:020000021000EC
:1090000000600020759301005D9301005F930100F3
:10901000619301006393010065930100000000006B
:109020000000000000000000000000006793010045
:1090300069930100000000006B9301006D93010033
:10904000B1B801006F930100B1BC01006F93010042
:109050006F9301000000000065BB01006F930100E9
:109060006F9301006F9301006F9301006F930100F4
:109070006F9301006F9301006F9301006F930100E4
:109080006F93010081A901006F9301006F930100AC
:109090006F9301006F930100E9E601006F930100F7
:1090A0006F9301006F9301000000000000000000BA
:1090B0006F9301006F9301000000000000000000AA
:1090C00000000000000000000000000000000000A0
:1090D0000000000000000000000000000000000090
:1090E0000000000000000000000000000000000080
:1090F0000000000000000000000000000000000070
:10910000000000000000000000000000000000005F
:10911000000000000000000000000000000000004F
:10912000000000000000000000000000000000003F
:10913000000000000000000000000000000000002F
:10914000000000000000000000000000000000001F
:10915000000000000000000000000000000000000F
:1091600000000000000000000000000000000000FF
:1091700000000000000000000000000000000000EF
:1091800000000000000000000000000000000000DF
:1091900000000000000000000000000000000000CF
:1091A00000000000000000000000000000000000BF
:1091B00000000000000000000000000000000000AF
:1091C000000000000000000000000000000000009F
:1091D000000000000000000000000000000000008F
:1091E000000000000000000000000000000000007F
:1091F000000000000000000000000000000000006F
:10920000354936480A1A02D0072291438D4634491F
:1092100034480A1A06D00722914381F309880222B2
:1092200082F3148830483149314A00F044F831481B
:109230003149324A00F03FF831483249324A00F0B1
:109240003AF832483249334A00F035F83248334967
:10925000334A00F030F833483349344A00F02BF8F1
:1092600033483449344A00F026F83448344900225F
:1092700000F02CF833483449002200F027F8334836
:109280003349091A082902DB002202604160314A91
:1092900090471F481F49884205D00268043003B434
:1092A000904703BCF7E700208646EC4600200021EB
:1092B000294A9047FEE7884207D0521A05D0037822
:1092C00001300B700131013AF9D17047884202D068
:1092D00002700130FAE7704700600020005800205B
:1092E000006000200060002074FB0100C822002004
:1092F000B0230020BC930100BC930100C8EC010026
:1093000074FB0100C8220020C8220020CCED01001F
:10931000CCED0100CCED0100CCED0100CCED010065
:10932000CCED0100CCED0100CCED010074FB01009F
:109330005CFC0100B0230020B0230020B0230020FB
:10934000F8320020F8320020F8320020F8320020F5
:10935000F83A00208B930100CDCE0100FEE7FEE736
:10936000FEE7FEE7FEE7FEE7FEE7FEE7FEE7FEE7D5
:1093700000F002B8FFF7FCBF0B484FF0070188432D
:1093800085460A488047FFF73BBF094809490A4A12
:10939000884207D0521A05D0037801300B70013192
:1093A000013AF9D17047000000600020D1B20100FD
:0C93B000CCED0100C8220020C8220020E3
:1093BC007047000007B5044B0093044A402300F0AB
:1093CC0032F803B05DF804FBDD930100B1230020FB
:1093DC002DE9F84388461446B2B10F4B0F4E0325C6
:1093EC00002743F00109224608EB0701002003F097
:1093FC00E7FE0744241A48B933782BB14FF47A406E
:10940C00C847013D02D13570BDE8F88301233370A4
:10941C00002CE8D1F8E700BFD0ED0100B02300200C
:10942C00704703F0FDBEF0B595B01D4616460846D4
:10943C000C4601F04DFE1A9B0D93CDE908650025F5
:10944C002B46082205A920460A958DF82C500C9520
:10945C0001F05AFE079B0293069B03939DF8143070
:10946C008DF8115003F00302012A1DD1BDF8142010
:10947C00059DC3F3C203C2F383168DF81030B200FE
:10948C0008230EA9204601F03FFEC5F3952508AB35
:10949C000093324602AB0EA9284600F02BFB204667
:1094AC0001F01AFE15B0F0BD022AF8D1BDF8165025
:1094BC00C3F3C203C5F389158DF810300827082DA6
:1094CC002E4628BF08263B4632460EA9204601F000
:1094DC001BFEAD1B08AB02AA31460EA8374400F0A8
:1094EC006DFB002DEBD1DAE708B5FFF79AFF0448C6
:1094FC00042100F06FFA034B01225A7108BD00BF22
:10950C00BCED0100C82200200378024613F00400D1
:10951C0006D003F00300012803D0022809D0012053
:10952C0070470B6812880233C2F3831213440B602A
:10953C0070470B685288023303EB92130B60EEE713
:10954C002DE9F04FDFF81CA187B00F46002304462D
:10955C00861C0DF1070015468DF8073001F09EF8BA
:10956C00DAF804203A60DAF8083003F580739B1AB5
:10957C000AF21C470AF583690AF21448B3421AD35B
:10958C000020002D69D004F00F039B0143F005036C
:10959C0063F30F00DAF80430DAB2033233444AF8DA
:1095AC0022009DF80700CAF8043001F09BF8012056
:1095BC0007B0BDE8F08F0121384601F0B8FA4846F3
:1095CC0001F0CDFA404601F0CAFADAF80800029030
:1095DC00C0B203300AEB800002A9FFF795FF029B93
:1095EC0030BBDAB20AEB8202D16803919A1C0133C8
:1095FC00DBB20AEB83030292D3F80CB001F0030345
:10960C00012B22D0022B15D08346404601F0AAFA3A
:10961C0010B1029BCAF808305946384601F087FA57
:10962C00DAF80830DAF8042003F580739B1AA5E702
:10963C00D8B2CEE7BDF80E30C3F3891303334FEA2B
:10964C001B4B02EB93030293DFE7BDF80C30C3F323
:10965C0083134FEA1B4B1344F5E7A40544F00600B3
:10966C0098E700BFC4240020064B074810B5002221
:10967C001A7001F0E6FC044610B9044801F072FDC2
:10968C00204610BDC424002028ED01000CEE010082
:10969C0030B50A4C71B10A4A0A49121BD208002390
:1096AC009A4201D1002030BD31F82350854202D0BE
:1096BC000133F5E7034654F83300F4E73CED0100C1
:1096CC00BCED0100C8220020094B013903EBC0009E
:1096DC00032909D8DFE801F00A02040604207047C8
:1096EC00007970474079704700207047022070471E
:1096FC003CED010070470000034BD3E90130C31A65
:10970C0058425841704700BFC42400202DE9F04155
:10971C0086B0FFF7F1FF0546002840F0ED80774C4E
:10972C00C4F81804BFF34F8FA3680293DBB2033362
:10973C0004EB830002A9FFF7E7FE029B18B1D4F8F3
:10974C001824002A5AD0DAB2991C013304EB820295
:10975C00DBB204EB8303D268DB68049302F00303EF
:10976C00022B0392029154D1BDF80E306448C3F31E
:10977C008917502F3E4628BF502606F1080166F384
:10978C008F13C1F30901ADF80E3001F072FC0546E0
:10979C00002800F09C8001F09BFC0023082203A908
:1097AC00284601F0A7FC0299CB43DBB20133C9B2C6
:1097BC000331B6EB830F4FEA830204EB810125D909
:1097CC005FFA82F80823A6EB0806284601F092FC03
:1097DC00F6B208F108034B4903F0FC033246284665
:1097EC0001F088FC029B033703EB97070297D4F830
:1097FC001834002B43D1D4F8106453E062689A42B9
:10980C0094D8A260284606B0BDE8F0810823324601
:10981C00E5E7012B5BD1BDF80C303948C3F383115C
:10982C00062928BF062161F38913023101F00F01CB
:10983C008900ADF80C3001F01CFC0546002846D020
:10984C0001F046FC0023082203A9284601F052FC33
:10985C000026BDF80C20C2F38312B300964203F12C
:10986C000803C4D202994A1CC9B20331029204EB18
:10987C0081010422284601F03DFC0136E9E7284627
:10988C0001F02AFCFFF738FF80F00105EDB2B9E7D3
:10989C00F3685B7923B1336829461B6830469847D7
:1098AC00F3681E68002EF3D1284601F015FC0DF16B
:1098BC0007008DF8076000F0F1FED4F818340BB9EE
:1098CC00029BA3609DF8070000F00CFFDAE7D4F8C8
:1098DC00104454B90C4B0D480D49C01AC008000473
:1098EC0040F0020000F05EF8CCE7236820469B684D
:1098FC009847E3681C68ECE7002583E7C424002044
:10990C0028ED0100D02400203CED010064ED0100A5
:10991C00F4ED01002DE9F34704460E46924601A9E9
:10992C00012218469946FFF70BFE1C4F10B3019D00
:10993C004FF00008AA1CC84508EB020125D11848B5
:10994C00002101F0C5F880F31000000440EA144037
:10995C00E4006B1C04F03804DBB2EDB244F00104FB
:10996C0007EB8303033544EA881444EA8624D86061
:10997C0047F825403B781BB1FFF7C8FE0028FBD108
:10998C00FFF7B8FE02B0BDE8F087C9B207EB810162
:10999C005AF82830CB6008F10108CCE7C424002029
:1099AC00E028002000231A46FFF7B4BF07B50123B7
:1099BC00019201AAFFF7AEFF03B05DF804FB07B5F7
:1099CC00CDE9002302236A46FFF7A4FF03B05DF83C
:1099DC0004FB000030B50F4CD4F8102403460020D3
:1099EC00114631B9D96808714AB9C4F810340A6003
:1099FC0030BDC9680D79854206D00968F1E7D26897
:109A0C0014680C601360F3E701300A28E8D14FF0BA
:109A1C00FF30EDE7C424002038B5084B0125D3F8FE
:109A2C0010441D7004B938BDE3685D71236820468D
:109A3C005B689847E3681C68F4E700BFC424002007
:109A4C00C38873B504460D4633B1144A00921449C9
:109A5C00144A284601F0E9F8217A05291CD0637ACA
:109A6C004BB1A088FFF730FE0F4B104953F8202064
:109A7C00284601F0DAF8227A0D4BA08853F82260C0
:109A8C000021FFF705FE0B4903463246284602B07B
:109A9C00BDE8704001F0C9B802B070BD38EE0100ED
:109AAC0020EE010018EE0100A4EE01003DEE0100D5
:109ABC00C8EE010040EE010010B5037A052B0C46F0
:109ACC000FD0437A23B1084A0849204601F0ADF87B
:109ADC000749204601F0A9F82046BDE8104001F0E6
:109AEC0099B8002AF8D0F3E738EE01003DEE0100FA
:109AFC0035EE01002DE9F04385B01F460C9D002387
:109B0C0095F80C902B7306460C4690462946384621
:109B1C00FFF796FFB8F1060F09D8DFE808F004123A
:109B2C00181F283340003146284601F07EF80022E9
:109B3C0029463846FFF7C0FF85F80C9005B0BDE804
:109B4C00F08322683146284601F06FF8EFE7D4E93C
:109B5C0000233146284601F068F8E8E7A368009333
:109B6C003146D4E90023284601F05FF8DFE7E368CB
:109B7C000193A36800933146D4E90023284601F0F1
:109B8C0054F8D4E723690293E3680193A368009324
:109B9C003146D4E90023284601F047F8C7E763694A
:109BAC00039323690293E3680193A36800933146FE
:109BBC00D4E90023284601F038F8B8E708292DE944
:109BCC00F74F80460E4617461C463DD800251B7B9A
:109BDC002573214610460193FFF732FFDFF888A06A
:109BEC00DFF888B0AE4232D918F805205946204625
:109BFC0001F01BF80135082DF4D11D49DFF874A0D4
:109C0C00DFF874B0204601F010F84FF000094E4513
:109C1C0024D918F809507E2D1ED8284604F07AFF56
:109C2C00002814BF2A462E225946204600F0FDFF7C
:109C3C0009F10109B9F1080FE9D101222146384691
:109C4C00FFF73AFF019B237303B0BDE8F08F514639
:109C5C00204600F0EAFFCDE72E22E5E751462046EC
:109C6C0000F0E3FFE4E700BF50EE01004AEE010014
:109C7C0054EE010052EE010056EE0100C30710B580
:109C8C0007D4F023054A4008145C234019431154AF
:109C9C0010BD0901C9B20F23F4E700BF90290020C1
:109CAC0030B5094B1C78094B0246196800239C42BD
:109CBC0001DC002030BD11F83350954201EBC3009C
:109CCC00F8D00133F3E700BF7C290020A029002045
:109CDC0070B504460D46FFF7E3FF30B1436823B17E
:109CEC0029462046BDE87040184770BD034B044818
:109CFC0019680022490800F089BA00BF80290020A9
:109D0C00D022002010B5C0B2FFF7CAFF044600787D
:109D1C0001F018FF63785A1E53425341834208D115
:109D2C00044BD3E90023134303D1BDE81040FFF7E4
:109D3C00DDBF10BD8829002037B54308374AD35CF6
:109D4C00C2074CBF1B0903F00F0304460D46042B3E
:109D5C0025D8DFE803F003262F3C4000F9B10121A0
:109D6C00FFF78CFF00230DF107008DF8073000F092
:109D7C0095FC0120A4F12003C4F12001284A20FA0B
:109D8C0001F100FA03F30B43A040D2E90041204358
:109D9C000B43C2E900039DF8070000F0A3FC03B0DD
:109DAC0030BD002918BF0221204603B0BDE8304069
:109DBC00FFF764BF49B10321FFF760FF0121204683
:109DCC0003B0BDE83040FFF783BF0121ECE7002969
:109DDC00E5D10421E8E709B10321E5E7FFF74EFFE0
:109DEC0029462046FFF774FF0DF107008DF8075048
:109DFC0000F054FC0120A4F12003C4F12001084A16
:109E0C0020FA01F100FA03F30B43A040D2E9004120
:109E1C0024EA000021EA0303BBE700BF90290020DD
:109E2C00882900202DE9F041124E134F002433787D
:109E3C00A34208DC114BD3E90023134318D0BDE82F
:109E4C00F041FFF753BF3D6805EBC40815F834002B
:109E5C0001F078FE98F801305A1E53425341181AFB
:109E6C004142414115F83400FFF766FF0134DEE74B
:109E7C00BDE8F0817C290020A02900208829002041
:109E8C00092AF7B505460C4616463ED901F092FD57
:109E9C00E8B11F4B1F481D601F4B204F1C70204BFF
:109EAC00002110221E6004F080FE1E4B00200021B9
:109EBC00C3E90001013CE4B20326FF2C0DD11A4A80
:109ECC001A48002103B0BDE8F04000F08DB901F054
:109EDC0039FD0028DDD003B0F0BD9DF8063015F833
:109EEC0034008DF8046005EBC40223F007038DF8F1
:109EFC00063001A993788DF805303A4601F064FDDF
:109F0C00013CE4B20028D8D0E5E70720E3E700BF26
:109F1C00A0290020902900207C290020119D0100FF
:109F2C008029002088290020319E0100E8EE0100E4
:109F3C0070B5084D084E00242B789C4201D30020AC
:109F4C0070BD3368012113F8340001F0B5FD013404
:109F5C00F2E700BF7C290020A02900201FB50021BA
:109F6C00039001AA44F20100CDE9011100F004F8BC
:109F7C0005B05DF804FB000038B572B6FFF74CFD78
:109F8C00FFF7C4FB0028FBD1104B114C114D1249AB
:109F9C00E41AE408240444F00100FFF703FDD5F8AB
:109FAC00F030DB0700D500BE0C4944F00200FFF78F
:109FBC00F9FCBFF34F8FEA68094B02F4E0621343DC
:109FCC00EB60BFF34F8F00BFFDE700BF3CED01001E
:109FDC0064ED010000ED00E0ECEE0100F8EE010094
:109FEC000400FA0510B5034649B152B1541E14EAE7
:109FFC00020006D1986019609C80D86010BD0E20BC
:10A00C00FCE70920FAE710B58468C2688388121B44
:10A01C00934208D3C26813400268D154C368013319
:10A02C00C360002010BD0420FCE78268C3689A421C
:10A03C000AD08268838813400268D35C0B708368F3
:10A04C0001338360002070470520704710B5D0E9BC
:10A05C000243D1E90202A04272EB03032CBF0120A0
:10A06C00002010BD08B50A4800F06DFC094AD2E981
:10A07C000031C018084BD3E9002341F10001904294
:10A08C0071EB030303D210F1807041F1000108BDA4
:10A09C00F0220020A8290020202A002037B50546F0
:10A0AC000C460A4801A900F082FC60B105704460BE
:10A0BC0001A9064800F0A5FC18B1054800F048FCC1
:10A0CC00002003B030BD0420FBE700BF0C2A0020A9
:10A0DC00F0220020294B73B51E7804461EB90026C9
:10A0EC00304602B070BD0028F9D0FFF7BBFFD4E9B1
:10A0FC0002239042994139D300230DF107008DF8CA
:10A10C00073000F0CBFA23692BB94FF0FF324FF038
:10A11C00FF33C4E902239DF8070000F0E3FAD4E909
:10A12C000530984700250DF107008DF8075000F019
:10A13C00B5FA2369C3B1D4E90212B2F1FF3F08BFEB
:10A14C00B1F1FF3F05D05B1842F10002C4E90232C5
:10A15C0035469DF8070000F0C5FA002DBFD0084821
:10A16C00214601F01EF8BBE71D46F2E7B3F1FF3FB5
:10A17C0008BFB2F1FF3FB2D0F1E700BFB029002019
:10A18C0014EF010013B5114B114918680190082305
:10A19C001048582200F0F8FB044698B90E4A0F48B4
:10A1AC0001A900F0C1FA044660B90C48012100F085
:10A1BC00ADFB01230A4A0948194600F00FFB094B75
:10A1CC0001221A70204602B010BD00BF10EF010032
:10A1DC00B42900200C2A0020D1A20100F02200207A
:10A1EC00FFFF7F00B029002030B56AB103684FF043
:10A1FC00FF344FF0FF355A614A1E5142C3E9024504
:10A20C0051411961002030BD0720FCE7F7B5044629
:10A21C0000250DF1070017460E468DF8075000F08B
:10A22C003DFAD4E90223B3F1FF3F08BFB2F1FF3F7F
:10A23C0007D1FFF717FF301841F10001C4E9020103
:10A24C0001259DF8070000F04DFA55B12369A7616F
:10A25C0003B126612146002003B0BDE8F040FFF7B2
:10A26C001DBF284603B0F0BD37B5054600240DF1DF
:10A27C0007008DF8074000F011FAD5E90223B3F17D
:10A28C00FF3F08BFB2F1FF3F06D04FF0FF324FF057
:10A29C00FF33C5E9022301249DF8070000F022FAE0
:10A2AC0034B12946012003B0BDE83040FFF7F6BEBB
:10A2BC00204603B030BD0000014800F044BB00BF95
:10A2CC00F02200202DE9F743064600F027FB40B1B1
:10A2DC00634AD2E9003113F1807341F10001C2E904
:10A2EC0000310021304600F028FB38B15D4C23686A
:10A2FC0023B12068FFF7EEFE0023236001213046D6
:10A30C0000F01BFB20B1FFF7ADFE574BC3E900017A
:10A31C005648544F01A900F084FB4FF0FF344FF026
:10A32C00FF35A0B9DFF848814E4D404600F04FFF95
:10A33C00002800F08680D0E90223B3F1FF3F08BF6C
:10A34C00B2F1FF3F33D1404600F03BFFEDE703781D
:10A35C00012B21D0022B09D1DFF81481404600F0EB
:10A36C0030FF002877D0C0E90245F7E75BB94168B8
:10A37C00D1E90223B3F1FF3F08BFB2F1FF3F02D096
:10A38C003B4800F00EFF01A9384800F075FB01A90D
:10A39C00364800F046FBC4E741683B68994202D15D
:10A3AC0000233B60EFE7324800F014FFEBE729682D
:10A3BC0091B12968D1E9020182428B412FD22B68DD
:10A3CC00D3E90223B3F1FF3F08BFB2F1FF3F03D043
:10A3DC002968404600F0E5FE404600F0F2FED0E968
:10A3EC0002490746FFF73EFE201A69EB01090128D6
:10A3FC0079F1000318DBB0F5350F13D3FFF75CFFD1
:10A40C001C4A02441C484FF49603002100F006FA43
:10A41C0090B92B6813B9304600F0D8F92F6003B00F
:10A42C00BDE8F0832246EDE71348002100F07BFAEB
:10A43C003846FFF74FFE01E00D28F9D000232B60C2
:10A44C0073E7084B1B68002BE9D1304603B0BDE81D
:10A45C00F04300F0BFB9094B01221A7093E700BF1B
:10A46C00A8290020282A0020202A00200C2A0020BD
:10A47C0014EF0100FFFFB400F0220020B0290020EF
:10A48C000648074A03780749D35C012213B104300C
:10A49C0002F068B80C3001F02BBE00BFF82200208F
:10A4AC009C2A0020542A00200648074A03780749B2
:10A4BC00D35C012213B1043002F006B80C3001F069
:10A4CC00C7BD00BFF82200209C2A0020552A00207E
:10A4DC0037B50578012D0DD0022D30D075B91F4937
:10A4EC001F48FFF7A2FD002834D103B0BDE830406F
:10A4FC00FFF7DABF037A1BB9FFF7C2FF03B030BD19
:10A50C004368184C19782046FFF77DFD80B18DF813
:10A51C0000500190144B68461B689847A168E3688B
:10A52C00A2885B1A9A42E7D2104B01221A70E5E717
:10A53C00A268E3689A42F1D08DF80000EAE7C3689C
:10A54C008DF800500193FFF79BFF074B68461B6883
:10A55C009847D3E703238DF80030F6E7552A0020FF
:10A56C00442A0020302A00202C2A0020402A0020D7
:10A57C00F0B51F46234B89B004461A600D460029DE
:10A58C003DD08A8820480968FFF72CFD002834D17B
:10A59C00AA89A9681D48FFF725FD00282DD11C4E5E
:10A5AC000FCE6D460FC596E80F0085E80F00636966
:10A5BC000693237C174A18488DF81C70003B18BF73
:10A5CC0001238DF81430637C002B14BF0E23002361
:10A5DC008DF81530E3680293A36803932368019305
:10A5EC0069466368009301F0E5F830B90B4B1870BD
:10A5FC002368013301D0FFF743FF09B0F0BD0720FA
:10A60C00FBE700BF2C2A0020302A0020442A00201F
:10A61C0020EF0100DDA40100F8220020402A0020D8
:10A62C0070B5084D014608482E78FFF7FEFC04462D
:10A63C0036B100232B70FFF723FF08B1FFF78EFC18
:10A64C00204670BD402A0020302A002010B501465B
:10A65C000E48FFF7D8FC0446A8B90D480D4A0378FC
:10A66C00D35C63B1043001F023FF60B90A49074899
:10A67C00FFF7DBFC38B9BDE81040FFF715BF0C3015
:10A68C0001F0DAFCF1E7204610BD00BF442A00209F
:10A69C00F82200209C2A0020552A002070B5EFF3E8
:10A6AC00108672B60C4A946801239CB993600B4BCC
:10A6BC000B4DD3F8801029401160C3F88050D3F8AB
:10A6CC00841051604FF0FF32C3F88420047006B937
:10A6DC0062B670BD0370FAE7582A002000E100E072
:10A6EC00FC06FFBD084B9A6810B55AB150B9EFF390
:10A6FC00108172B6054A1C6814605C6854609860DE
:10A70C0001B962B610BD00BF582A002000E100E07C
:10A71C000346405882B028B100225A505B5801932E
:10A72C00019B012002B07047F8B5204B4479204EB4
:10A73C0043F824201F4A204B06EBC4049B1A2279B1
:10A74C00DB081B0432B143F002001C49FFF72AF965
:10A75C000820F8BD02680C88C2F8084590F904502E
:10A76C008A7804795201002DD2B219DB14494F19A1
:10A77C0087F8002301226D0904F01F0402FA04F487
:10A78C0041F82540427906EBC201012446F832001B
:10A79C000C7143F003000B49FFF704F90020D8E7D4
:10A7AC00094904F00F040A55ECE700BF6C2A00209D
:10A7BC00642A00203CED010074ED010040EF010023
:10A7CC0000E100E062EF010014ED00E003680122FB
:10A7DC001A607047036801225A60704773B501F123
:10A7EC005005AD000068ADB24FF480348C400026AB
:10A7FC00C0F80843C0F84843465101F5A8714559C3
:10A80C00019522F07F42019D40F82120C0F844437D
:10A81C000BB1C0F8044302B070BD00002DE9F74F36
:10A82C000D4622F07F4402684FF4803705F1500644
:10A83C008F408046B60002EB8500C2F84873B6B272
:10A84C00C2F80873D2F8041599464FF0000BD0F8F3
:10A85C004035C0F8401542F806B05B1A9259009288
:10A86C0023F07F43012B009A4FEA850A0CD1264B2B
:10A87C004FF4806043F001039847D8F8003043F858
:10A88C0006B09B590193019BD8F80010D1F80465D0
:10A89C00C1F84473A31B23F07F43012B1CD11A4B2B
:10A8AC0005F5A875013443F0010341F825404FF438
:10A8BC0080609847D8F80030D3F804359E4209D10F
:10A8CC00D8F800300020C3F84473C3F8047303B005
:10A8DC00BDE8F08F0D20FAE78A44C9F1FF13CAF8DE
:10A8EC004045D1F80405221A013A22F07F4203F5C3
:10A8FC007F439342EED3002AE2D10134CAF840459B
:10A90C00D1F804359842DAE780EF0100036802229F
:10A91C00C3F8442309B1C3F80423704700684FF40B
:10A92C008271FFF7F5BE4FF4803303FA01F103682F
:10A93C00C3F84813C3F808137047503189000068F6
:10A94C0089B2FFF7E5BE0368D3F804057047000031
:10A95C0090F90430002B09DB5A09012103F01F0385
:10A96C0001FA03F34032024941F82230704700BF2C
:10A97C0000E100E0024B034A1B681068184700BF57
:10A98C006C2A0020642A002030B5054659B1B2FB70
:10A99C00F3F403FB1424A0B238B9C5E90010A86085
:10A9AC00AA81EB8130BD0E20FCE70920FAE737B510
:10A9BC0050E8013F9DB2C48925448489A54228BF33
:10A9CC002D1B0489A54202BFBFF32F8F002207E085
:10A9DC00C5EA030540E80154002CE9D14FF001020F
:10A9EC008DF803200193019A0A609DF8031001F081
:10A9FC00FF0321B1006810FA82F003B030BD184695
:10AA0C00FBE70A884B889A4209D150E8012FC2EA29
:10AA1C00024240E80123002BF7D1012070470020AF
:10AA2C00704737B550E8023F1FFAA3F5C488A5421A
:10AA3C0002BFBFF32F8F00220DE0C4892544848907
:10AA4C00A54228BF2D1BC3EA054540E80254002C43
:10AA5C00E8D14FF001028DF803200193019A0A60AE
:10AA6C009DF8031001F0FF0321B1006800EB1240C8
:10AA7C0003B030BD1846FBE70A884B889A4209D1CF
:10AA8C0050E8022FC2EA224240E80223002BF7D101
:10AA9C00012070470020704701F01F024B09012173
:10AAAC00914000EB830000F01EB801F01F0301225F
:10AABC009A404B0900EB8300D14300F02CB84B09B2
:10AACC0001F01F0150F82300C84000F0010070474E
:10AADC0010B5034653E8000F0A4643E8002494F0EF
:10AAEC00000FF7D110BD10B5034653E8002F42EA12
:10AAFC00010043E8000494F0000FF6D110BD10B52E
:10AB0C00034653E8000F00EA010243E8002494F0E6
:10AB1C00000FF6D110BD10B5034653E8002F02EA22
:10AB2C00010043E8000494F0000FF6D110BD10B5FD
:10AB3C00034653E8002F02EB010043E8000494F0B5
:10AB4C00000FF6D110BD10B5034653E8002FA2EB51
:10AB5C00010043E8000494F0000FF6D110BD012170
:10AB6C00FFF7C1BF0021FFF7CABF10B590B1D0E904
:10AB7C00012301689B1ADBB20A60013BDBB2FF2B9D
:10AB8C00026802D10020107110BD11684C1C1460B9
:10AB9C000B70F2E70E20F7E737B5054600240DF1F0
:10ABAC0007008DF80740FFF779FD2A686B6811687C
:10ABBC0099420ED9481E106011F8013CEC68298AA4
:10ABCC0001FB0344AB6811791B1ADBB2994238BF05
:10ABDC0013719DF80700FFF785FD204603B030BDCB
:10ABEC0037B5054600230DF107000C468DF80730EC
:10ABFC00FFF754FD2A681368591C1160E968641A40
:10AC0C00298AB4FBF1F41C709DF80700FFF76AFD6C
:10AC1C0003B030BD826810B504462AB1436901689F
:10AC2C00006998470023A36010BD0EB403B50399C7
:10AC3C0021B104AB01AA019300F076F802B05DF8E3
:10AC4C0004EB03B070470A2938B504460D4602D10F
:10AC5C000D21FFF7F8FFA3682268591CA160D55499
:10AC6C00D4E901329A4204D32046BDE83840FFF7BC
:10AC7C00D1BF38BD2DE9F84F9846DDE90A4315469A
:10AC8C0082460F460A464FF00109AA420FD2C1452F
:10AC9C0038BFC14613F0010B01D16CB90024012659
:10ACAC00B8F1010F1BD908F1FF386E43F8E709F131
:10ACBC000109B2FBF5F2E8E79B070ED5B8F1000FDE
:10ACCC000CBF30262026A145E9D2013C3146504626
:10ACDC00FFF7B9FF002CF6D1E0E72026F3E7B7FB2E
:10ACEC00F6F39D42E1D9DFF83C80B7FBF6F3504612
:10ACFC0018F8031006FB1377FFF7A5FF3346AB429A
:10AD0C00B6FBF5F6F1D2BBF1000F02D00CB1A145A8
:10AD1C0001D3BDE8F88F20215046013CFFF793FF8B
:10AD2C00F4E700BF86EF01002DE9F74F0546174603
:10AD3C008846002900F03E8118F8011B49B92B7B8D
:10AD4C00002B00F03781284603B0BDE8F04FFFF729
:10AD5C0061BF252940F0B780002698F800302D2BD4
:10AD6C00424608F1010823D0302B24D02B2B25D0C0
:10AD7C0000242A2B02F1010123D13B681A1D1B6808
:10AD8C003A601C440A4613782E2B26D101324FF020
:10AD9C00000A104610F8011BA1F1300CBCF1090F90
:10ADAC001DD80A2303FB0A13A3F1300A0246F0E76D
:10ADBC0046F00106D1E746F00206CEE746F004065F
:10ADCC00CBE711F8013CA3F130000928DBD80A22AB
:10ADDC0002FB0434303C0A46CBE74FF0000A12F871
:10ADEC00011B01F0FB0068289046F8D0782909D89F
:10ADFC006F290CD8632962D022D8252963D0582911
:10AE0C0000F0888098F80030002B95D197E77039C6
:10AE1C000829F7D801A353F821F000BF9BAF01001C
:10AE2C0011AE010011AE010031AF010011AE0100F5
:10AE3C000FAF010011AE010011AE010021AF0100F6
:10AE4C00642901D06929DDD13A68D2F80090111D2E
:10AE5C0089EAE9723960A2EBE9724FF0010B092A19
:10AE6C0035DCD34538BFD3462CB1B9F1000F01DB2B
:10AE7C00720700D5013CB30702D5BAF1000F03D01D
:10AE8C00F00701D44CBB0024B9F1000F2DDAC9F145
:10AE9C0000092D212846FFF7D6FE06F00302022AF0
:10AEAC0004D1BAF1000F01D11CBB0024CDE900463E
:10AEBC0053460A2249462846FFF7DCFEA2E73B68C8
:10AECC001A1D19783A602846FFF7BDFE9AE70A2347
:10AEDC000BF1010BB2FBF3F2C1E7A345D4D2202155
:10AEEC002846013CFFF7AFFECCE77107D5D52B21E7
:10AEFC00D0E7A345DAD230212846013CFFF7A3FE68
:10AF0C00D2E73968CDE900460A1D3A6053460A2259
:10AF1C000968D0E739680A1D3A60CDE90046534606
:10AF2C001022F5E73B681A1D3A6016F00106D3F8BB
:10AF3C00009024D1B9F1000F03D0484603F08AFEEB
:10AF4C000646B4421DD809F1FF3919F8011F002932
:10AF5C003FF458AF2846FFF776FEF6E72846013651
:10AF6C00FFF771FE19F806100029F7D1A642BFF4BD
:10AF7C0049AF20212846013CFFF765FEF6E7002685
:10AF8C00F0E720212846013CFFF75DFED9E73B683E
:10AF9C001A1D3A60302128461C68FFF754FE7821B0
:10AFAC002846FFF750FE00220823CDE90032214647
:10AFBC00102280E703B0BDE8F08F00BF2DE9F84FF9
:10AFCC00B0F806A04579D2F800B09DF828900AFB9D
:10AFDC0005F5043D88460BEB0301A94203F104047B
:10AFEC0088BFA5EB030BB4FBFAF607460AFB164425
:10AFFC00C2F800B04EB9AAEB04055D4528BF5D460A
:10B00C00BBF1000F04D1BDE8F88F3F68013EF1E7BA
:10B01C00043408EB06003C442A46B9F1000F0DD06D
:10B02C002146ABEB050B03F097FDDA452E443F6848
:10B03C0055464FF0000428BF5D46E1E70146204627
:10B04C00EFE7FFF792BDF8B546790146721E05464B
:10B05C00002393422D6803D30024A64202D8F8BDE6
:10B06C000133F6E70F682846FFF7BAFD013439467D
:10B07C00F3E72DE9F843068ACD1C0746FFF78CFD54
:10B08C00043E35440446B5FBF6F5F0B14FF480733D
:10B09C00EDB28380C680013D076081464FF0000809
:10B0AC00A84512D23846FFF777FD064648B16379BA
:10B0BC000133637108F10108C9F80000076081468B
:10B0CC00EEE72046FFF7BFFF34462046BDE8F88385
:10B0DC0001210430FFF72BBD10B5012104460430CB
:10B0EC00FFF731FDC0B220B92046BDE81040FFF794
:10B0FC00AABF10BD1FB503920022009203AAFFF74E
:10B10C005DFF05B05DF804FB1FB5039201220092B0
:10B11C0003AAFFF753FF05B05DF804FB41DF70474E
:10B12C00064B10B500241C70054B1C60BFF35F8FE1
:10B13C000449054800F01FF8204610BD782A00206D
:10B14C007C2A0020A0EF0100702A002008B503F033
:10B15C00ABFA18B1BDE80840FFF7E0BF20BF40BF15
:10B16C0020BF08BD836800225A60C3E904229A609C
:10B17C00DA601A6070470B684A684360934208BFF4
:10B18C000023016008BF43607047436843B1026805
:10B19C00916852680B449342436004BF00234360A0
:10B1AC00704770B5446806460D46206818B1B36800
:10B1BC002946984718B923682B60256070BD246810
:10B1CC00F3E74368186808B102681A60704743686F
:10B1DC00186870474368186800B97047884203D1F3
:10B1EC0002681A600120704703460068F4E700000B
:10B1FC0010B50D49A1F59472914201D800200FE0D1
:10B20C008C1AE30F03EBE4035B1002EBC30452F85C
:10B21C003330834205D802D204F10802ECE76068AF
:10B22C0010BD2146E8E700BFACF4010008B5FFF7FC
:10B23C00DFFF024B002808BF184608BD6FF3010062
:10B24C0010B50446C0B2FFF701FA204610BD00004D
:10B25C00BFF34F8F0549064BCA6802F4E0621343F3
:10B26C00CB60BFF34F8F00BFFDE700BF00ED00E0E8
:10B27C000400FA054FF08053D3F83001082804D0AD
:10B28C00A0F10E035842584170470120704700004E
:10B29C004FF08053D3F83021082A06D1D3F834313B
:10B2AC00052B02D8024AD05C70470020704700BFC3
:10B2BC00B2F40100024AD2F80034002BFBD07047E4
:10B2CC0000E001404FF0805310B5D3F830210E2A26
:10B2DC0001BFD3F844324FF08042C3F34233C2F87B
:10B2EC003C35FFF7C7FF40B14FF080430022C3F855
:10B2FC000C21C3F81021C3F83825FFF7BBFF002839
:10B30C0046D04FF080526A4BD2F80414C3F8201583
:10B31C00D2F80814C3F82415D2F80C14C3F8281565
:10B32C00D2F81014C3F82C15D2F81414C3F8301535
:10B33C00D2F81814C3F83415D2F81C14C3F84015FD
:10B34C00D2F82014C3F84415D2F82414C3F84815C5
:10B35C00D2F82814C3F84C15D2F82C14C3F8501595
:10B36C00D2F83014C3F85415D2F83414C3F860155D
:10B37C00D2F83814C3F86415D2F83C14C3F8681525
:10B38C00D2F84014C3F86C15D2F84424C3F87025D5
:10B39C00FFF77EFF18B1474B474AC3F88C26FFF7DF
:10B3AC0077FF18B1454BFB22C3F81825FFF770FF48
:10B3BC0070B14FF080414FF08053D1F8E42ED3F8A8
:10B3CC00583222F00F0203F00F031343C1F8E43E8E
:10B3DC00FFF75EFF20B13A4B4FF40072C3F84026E2
:10B3EC00FFF748FF48B14FF08043D3F80024D20751
:10B3FC0044BF6FF00102C3F800244FF08053D3F820
:10B40C0030310E2B01BF4FF08042D2F8E43E43F0B6
:10B41C000F03C2F8E43E4FF08053D3F83021082AD2
:10B42C000ED1D3F83431052B02D8264AD35C3BB16C
:10B43C004FF01023D3F808224FF08043C3F858255F
:10B44C004FF01021D1F80032002B03DBD1F804327D
:10B45C00002B17DA1C4901234FF01020C1F80435DA
:10B46C001224FFF727FFC0F80042FFF723FFC0F8B4
:10B47C000442FFF71FFF0023C1F80435FFF71AFF42
:10B48C00FFF7E6FED1F80C32DB070DD50E48012391
:10B49C00C0F804350024FFF70DFFC1F80C42FFF78C
:10B4AC0009FFC0F80445E9E7084B094A1A6010BDCA
:10B4BC0000C00040005000404881030000F00040F4
:10B4CC0000900240ACF4010000E001400C2300208D
:10B4DC000090D003054A4FF0A043105CD3F804351C
:10B4EC0023FA00F0C04300F001007047BCF40100E7
:10B4FC00044B1A5C012393404FF0A042C2F80C3568
:10B50C00704700BFBCF40100044B1A5C012393404C
:10B51C004FF0A042C2F80835704700BFBCF40100E0
:10B52C0008B50020FFF7F0FF0120FFF7EDFF022028
:10B53C00FFF7EAFFBDE808400320FFF7E5BF08B5B9
:10B54C000020FFF7D5FF0120FFF7D2FF0220FFF705
:10B55C00CFFFBDE808400320FFF7CABF074A4FF0F2
:10B56C00A041105CD1F804350122824022EA03008C
:10B57C001340C1F80805C1F80C357047BCF4010044
:10B58C00054A4FF0A043105CD3F8103523FA00F0B5
:10B59C00C04300F001007047B8F401000B2809D03B
:10B5AC000C2809D0182809D019280CBF03204FF0FB
:10B5BC00FF30704700207047012070470220704711
:10B5CC00014B185C704700BFB8F40100C20708B506
:10B5DC0001460CD54FF0A0430322C3F83427C3F81F
:10B5EC003827C3F83C27C3F84027FFF799FF8B0790
:10B5FC000AD54FF0A0430C22C3F82C27C3F83027F0
:10B60C00C3F86027C3F8642708BD000038B5074CA1
:10B61C00051E04F1080318BF1C4623682BB11A68D9
:10B62C0022605B6828469847F7E738BD882A0020D7
:10B63C0020B9054B01225A70FFF7E8BF012802D14F
:10B64C00014A9070F8E77047802A002020B9034B1C
:10B65C0001225A70FFF7DABF704700BF802A002022
:10B66C0038B50E4C2378B3B90D486360A3602361E1
:10B67C00E36000F0E7F8054603F016F808B900F0AF
:10B68C00EDF801232370074BD3F800340BB10123E1
:10B69C00A370284638BD8525F5E700BF802A002019
:10B6AC003DB601000000014037B50D4C00230DF1F3
:10B6BC0007008DF80730FEF7F1FFE368013BE3600C
:10B6CC00E36833B9074BD3F8005415B900F0D8F838
:10B6DC00A5709DF80700FFF705F803B030BD00BF5B
:10B6EC00802A002000000140012813B50CD003284B
:10B6FC0020D038B9134B0122C3F88020BFF34F8FF1
:10B70C00BFF36F8F02B010BD0F4C00230DF107007B
:10B71C008DF80730FEF7C2FF23780BB9FFF7A0FFB7
:10B72C00E3689DF807000133E3600123A370FEF783
:10B73C00D9FFE7E700F092F802B0BDE81040FFF740
:10B74C00B3BF00BF00E100E0802A00201FB50378E2
:10B75C008DF800304368019383688DF80830C36816
:10B76C00054A0393054B684653F8213052F82110D3
:10B77C00984705B05DF804FB942A0020982A002015
:10B78C001FB503788DF800304368019383688DF8FA
:10B79C000830C368054A0393054B684653F82130BB
:10B7AC0052F82110984705B05DF804FB942A00204C
:10B7BC00982A0020F0B5194B90F800C091F81DE0C4
:10B7CC0043F82C20164B16460A6943F82C20154BCF
:10B7DC0003F80CE00C4607460FCC89B06D460FC53C
:10B7EC0094E80F0085E80F00CDF810C0BEF1000FF3
:10B7FC0009D0002E0C4A694608BF3246381D00F0AD
:10B80C0095FD09B0F0BD002E084A694608BF3246C6
:10B81C0007F10C0000F05CFBF3E700BF982A002056
:10B82C00942A00209C2A002059B701008DB70100F2
:10B83C0000F18040002382B0036003680193019BF8
:10B84C0002B07047044B0246187918B91A600122ED
:10B85C001A71704785207047A02A0020074B1A6880
:10B86C00D20704D4C02283F8002301221A604FF0BF
:10B87C0080430122C3F81825704700BF00E100E0A7
:10B88C004FF0804208B50223C2F808334FF482709F
:10B89C00FFF7CEFF0123D360D2F81834DB03FBD4BF
:10B8AC0008BD00004FF0804210B5D2F8003153B102
:10B8BC004FF48070FFF7BCFF0123C2F808330B4B29
:10B8CC0000201B6898474FF08042D2F8043163B1D6
:10B8DC004FF48270FFF7ACFF0223C2F80833034B1E
:10B8EC00BDE810401B680120184710BDA02A00209D
:10B8FC0000F1804000F5C040002382B00360036873
:10B90C000193019B02B07047800000F1A040D0F879
:10B91C00002722F44032C0F80027D0F8003743EA61
:10B92C000143C0F800377047054B4FF0FF32072832
:10B93C0043F8202084BFC01880F84820704700BF0F
:10B94C00A82A002010B5184991F8583053BB4FF075
:10B95C00FF3222FA03F0C00748BFC81803F10103F5
:10B96C0048BF80F83020202BF3D10024E0B2013402
:10B97C00FFF7DAFF0C2CF9D10C4B0022C0204A65E2
:10B98C0083F80603402018604FF4BE70FFF7B0FF39
:10B99C00074B4FF00040C3F80403012381F85830E3
:10B9AC00104610BD0820FCE7A82A002000E100E0AA
:10B9BC0000600040034B93F85800003818BF01207A
:10B9CC00704700BFA82A0020F0B5394E331893F900
:10B9DC003030002B69DA8D78C5F34005002D0BBF94
:10B9EC00082300230C240824A34201D10420F0BD19
:10B9FC0056F82370013743D137185CB246F8232030
:10BA0C0087F8304015B9F21882F848008A78550743
:10BA1C0016D4D70736D5820002F1A042D2F80057CF
:10BA2C0025F00205C2F80057224FC50800F0070C9C
:10BA3C00012202FA0CF217F805C042EA0C027A5500
:10BA4C008A780D7812F0020225D09B0003F1804316
:10BA5C0003F5C0430002D3F8102522F4473222F438
:10BA6C004072C3F810252D04D3F8102500F4F850BB
:10BA7C0005F4403528431043C3F810050020B6E701
:10BA8C000133B1E74D7800F5E0724FF0A047AD00FF
:10BA9C0047F82250C8E7083C46FA84F494F8500062
:10BAAC0040EA851584F85050E8E708209FE700BF6E
:10BABC00A82A0020FC2A002038B5204C251895F91E
:10BACC003020072A18DD083A44FA82F494F85030F2
:10BADC009B09032B0BD14FF0A043D3F81015C14099
:10BAEC0001F001010231BDE83840FFF70DBF012B19
:10BAFC000CBF02210321F6E7D3B2072B1DD893000C
:10BB0C0003F1804303F5C043D3F8100540F0010066
:10BB1C00C3F8100502F1400040B2800080B2FFF77C
:10BB2C00E7FE51B195F9303054F823302BB1012395
:10BB3C0003FA02F2024BC3F8042338BDA82A0020F2
:10BB4C00006000404FF0A043D3F8103523FA00F00A
:10BB5C0000F00100704700002DE9F74F00244E4D16
:10BB6C0001944FF48072012102F1804303F5C0432C
:10BB7C0090B21B68012B06D1D5F804330B4202D0CE
:10BB8C00FFF7B6FE0C430432B2F5907F4FEA410149
:10BB9C00EAD1414BD3F87C31012B0CD14FF4BE7060
:10BBAC00FFF7A6FE4FF0A04344F00044D3F8202545
:10BBBC000192C3F82025E3B2D3B1384F00250126FA
:10BBCC00344210D0AB0003F1804303F5C043D3F8EB
:10BBDC001005D3F8101557F8253023B1C1F30141E6
:10BBEC00C0F3042098470135082D4FEA4606E7D1EB
:10BBFC00002C48DA294D4FF0A048294E4FF000098F
:10BC0C00012716F9013B5A1C31D0C3F3C20208328A
:10BC1C006A44DCB212F8042C03F03F0A03F0070369
:10BC2C0007FA03F31A4222D00AF5E073504658F88B
:10BC3C002330C3F3014BBBF1020F0CBF03210221D4
:10BC4C00FFF762FE07FA0AF3C8F8203505EB0A0382
:10BC5C0093F9303055F823304BB1A109032904D0A6
:10BC6C00BBF1020F12D1012901D15046984709F1BD
:10BC7C000109B9F1040FC4D1D8F820350193C8F8E3
:10BC8C002035002BB9D103B0BDE8F08FBBF1030F09
:10BC9C00EDD10229E8E700BF00600040A82A00208F
:10BCAC00F82A0020014B1B68184700BF042B00200A
:10BCBC000E4B984237B50C4602D0002003B030BD75
:10BCCC0000230DF107008DF80730FEF7E7FC084B59
:10BCDC001D7915B901221C601A719DF80700FEF739
:10BCEC0001FD002DE9D01120E8E700BF0020004045
:10BCFC00042B00200023435082B043580193019B36
:10BD0C0002B070470A4610B54FF48E71FFF7F2FF80
:10BD1C00136A9168C95C136A01331362C0F81C156D
:10BD2C0010BD024608B500684FF49271FFF7E2FFB0
:10BD3C0010684FF48471FFF7DDFF136801221A605D
:10BD4C0008BD8B690A4610B54FF4847123B9FFF70F
:10BD5C00D1FFD0F8183510BDFFF7CCFF536AD1686E
:10BD6C00D0F81805C854536A01335362F3E7000046
:10BD7C001FB501238DF80030044BCDE90110D3E938
:10BD8C0000126846904705B05DF804FB0C2B0020B0
:10BD9C0030B54D4DD5F804339A0585B051D5D5F84D
:10BDAC002431002B4DD04FF492712846FFF7A2FF9F
:10BDBC004FF40173C5F80833444B93F829200AB9A2
:10BDCC0001226A60404902228DF80020D1F88024BB
:10BDDC00C1F8802403929A690292DA6801920022D7
:10BDEC00C3E906226846D3E9001290473648D0F8DA
:10BDFC001C315BB1354A5169136A99424DD992F89D
:10BE0C002830002B49D11146FFF77CFF2E48D0F883
:10BE1C004431002B56D04FF4A271FFF76BFF2B4B24
:10BE2C0093F829200AB1012202609A69002A49D0AC
:10BE3C00586AD96800229A6105B0BDE83040FFF716
:10BE4C0097BFD5F804335B07D0D5D5F80831002B54
:10BE5C00CCD01E4C1C482146FFF773FF636AA269C5
:10BE6C009A42C3D1E369E1684BB1A3612369E360F2
:10BE7C000023606AE3616362FFF77AFFB6E794F828
:10BE8C0029300BB901236B600F4B4FF40172C3F8CF
:10BE9C0008230023606AA361EEE70B484FF48E7110
:10BEAC00FFF728FF5369002BB0D051690291002392
:10BEBC0091688DF80030019153616846D2E9001306
:10BECC009847A3E705B030BD002000400C2B0020A4
:10BEDC002DE9F843534D90F804802C2303FB0853B1
:10BEEC00064693F82A300C469146002B40F096807B
:10BEFC004D490068FFF7DCFE0746002840F09080B3
:10BF0C0022683068511C0BD04FF0A04101239340A4
:10BF1C00C1F8083502F5E0734FF0030C41F823C06B
:10BF2C0061684B1C1FBF01F5E0734FF0A04C4FF044
:10BF3C00000E4CF823E0A369C0F8243594F814C023
:10BF4C00637DBCF1010F4CEA0303C0F86C35C0F8FB
:10BF5C001415C0F80C251DD1A268531C1FBF02F587
:10BF6C00E0734FF0A0414FF0000C41F823C0E368A0
:10BF7C00591C0BD04FF0A04C01219940CCF808155E
:10BF8C0003F5E0714FF0030E4CF821E0C0F80835D2
:10BF9C00C0F810252C2202FB08F2AB18C3F8049051
:10BFAC002369AB50B9F1000F20D04FF48E71247F70
:10BFBC00FFF7A0FE4FF4A2713068FFF79BFE3268CA
:10BFCC001A4BC2F80433130B42F307326101002AF7
:10BFDC00C9B21EDB1648841884F8001301215209DB
:10BFEC0003F01F0301FA03F340F8223033680422F4
:10BFFC00C3F800252C2303FB08530022C3E90622B7
:10C00C0083F829205A61012283F82A203846BDE89A
:10C01C00F883084A03F00F03D154E7E70827F5E744
:10C02C001127F3E70C2B00209DBD010080000200BE
:10C03C0000E100E014ED00E00279044B2C2101FB3F
:10C04C0002335869003818BF012070470C2B0020B0
:10C05C002DE9F84F064690F8048089469246FFF782
:10C06C00EBFF044600283CD1204F2C2508FB057B18
:10C07C004FF48E71CBF814A0CBF80890CBF82000BD
:10C08C008BF828003068FFF735FE30680123836099
:10C09C005946FFF737FEDBF804305D461BBB3068B2
:10C0AC00DBF814402B6A9C4211D83368D3F81C215E
:10C0BC00002AFBD00122DA6000202C2303FB087736
:10C0CC0000237B61BDE8F88F95F828303BB9D0F898
:10C0DC001C31002BF8D05946FFF714FEE2E70F2075
:10C0EC00EBE71120EEE72046ECE700BF0C2B00201D
:10C0FC002DE9F0473A4D07792C2303FB07530646ED
:10C10C005C6824B103684FF40170C3F808032C2356
:10C11C0003FB0753986950B1D869002841D024B16A
:10C12C0033684FF40172C3F80423112436E09A618A
:10C13C00D9605862D8612C2303FB075393F829303C
:10C14C001BB910B93046FFF7ECFD4FF02C0808FB7B
:10C15C00075A3068DAF80430002B37D14FF4A2714B
:10C16C00D046FFF7C7FD3068D0F82491D0F80831DD
:10C17C00D0F84441CBB914B9B9F1000FF3D02C234A
:10C18C0003FB07550023AB61B9F1000F24D12CBB85
:10C19C0095F8291033680122B1B11A602046BDE828
:10C1AC00F0871961DA610120C5E7B9F1000FE6D11A
:10C1BC00002CE4D14146FFF7C4FDDAF82430DAF85C
:10C1CC0018209A42CFD8DAE75A60E7E74FF40173A8
:10C1DC00C0F804330024E1E70324DFE70F24DDE794
:10C1EC000C2B00200023435082B043580193019B39
:10C1FC0002B070471FB501238DF80030044BCDE918
:10C20C000110D3E900126846904705B05DF804FBB5
:10C21C00382B00207FB5434AD2F82461002E60D021
:10C22C0010464FF49271FFF7DDFF02238DF80030BA
:10C23C00D2F88034C2F880340393D2F83C350293A0
:10C24C00394BDA6801920022C3E906226846D3E929
:10C25C00001290473348D0F8443173B14FF4A271B7
:10C26C00FFF7C0FF304B9A693AB10022C3E90622AE
:10C27C00D968D0F83C05FFF7BDFF2A48D0F820312B
:10C28C00ABB14FF49071FFF7ADFF0123C360264BA8
:10C29C005A6962B1D0F84C150291002299688DF858
:10C2AC00002001915A616846D3E9001290471D485D
:10C2BC00D0F858319BB14FF4AC71FFF793FF1A4B88
:10C2CC005A6962B1D0F84C150291002299688DF828
:10C2DC00002001915A616846D3E90012904704B0DE
:10C2EC0070BDD2F81031002BB4D04FF488711046C9
:10C2FC00FFF778FF0C4BD2F83C0599698842A9D11D
:10C30C00DC69D96864B1D2F8005225F02005C2F876
:10C31C0000521A699C61DA60DE61FFF76BFF99E7E6
:10C32C009C61FAE700200040382B00202DE9F843EF
:10C33C005A4E90F80480242303FB0863044693F8B8
:10C34C0020300D469146002B40F0A38054490068E4
:10C35C00FFF7AEFC0746002840F09D802A68206855
:10C36C00511C0BD04FF0A04101239340C1F808356C
:10C37C0002F5E0734FF0030C41F823C069684B1CC5
:10C38C001FBF01F5E0734FF0A04C4FF0000E4CF8BE
:10C39C0023E0AB69C0F8243595F814C06B7DBCF173
:10C3AC00010F4CEA0303C0F86C35C0F80C25C0F83B
:10C3BC0014151DD1AA68531C1FBF02F5E0734FF072
:10C3CC00A0414FF0000C41F823C0EB68591C0BD076
:10C3DC004FF0A04C01219940CCF8081503F5E07101
:10C3EC004FF0030E4CF821E0C0F80835C0F81025CA
:10C3FC00242202FB08F2B318C3F804902B69B35043
:10C40C00B9F1000F2FD04FF488712A7FFFF7EAFEA5
:10C41C0020684FF49071FFF7E5FE20684FF492719D
:10C42C00FFF7E0FE20684FF4A271FFF7DBFE4FF43C
:10C43C00AC712068FFF7D6FE23681A49C3F80413C1
:10C44C00190B43F307335201002BD2B21CDB1648F5
:10C45C00C51885F8002301225B0901F01F0102FABF
:10C46C0001F140F8231023680822C3F80025242387
:10C47C0003FB08660023C6E906337361012386F8C3
:10C48C0020303846BDE8F883084B01F00F015A54B0
:10C49C00E9E70827F5E71127F3E700BF382B002061
:10C4AC0021C201001003420000E100E014ED00E0A5
:10C4BC000279044B242101FB02335869003818BF60
:10C4CC0001207047382B002001F06043B3F1005F6E
:10C4DC002DE9F0470646884692463BD190F80490E9
:10C4EC00FFF7E6FF0446002836D11D4F306824259F
:10C4FC0005FB09754FF49071C5F814A0C5F80880B8
:10C50C00FFF770FE4FF4AC713068FFF76BFE3368C9
:10C51C006A69A968C3F84415C3F8482501229A60D2
:10C52C006A68DAB9D3F82021D3F858011AB900286F
:10C53C00F8D00F2007E00028FBD10122DA60D3F8F5
:10C54C005821002AFBD0242303FB097700237B61AD
:10C55C00BDE8F0871020FBE71120F9E72046F7E74C
:10C56C00382B0020F8B501F06043B3F1005F0446AE
:10C57C000F465ED10379304D242101FB03514968EC
:10C58C0021B100684FF40476C0F80863242000FB46
:10C59C0003539E6956B1D869002839D021B123685C
:10C5AC004FF40472C3F80423112030E09A61DF6069
:10C5BC00DE6120684FF48871FFF714FE20684FF499
:10C5CC00A271FFF70FFE2368C3F83475C3F8382542
:10C5DC0016BB01221A602479242202FB04525268F1
:10C5EC000ABBD3F81011D3F84421D3F8240111431A
:10C5FC0002D10028F5D00A46242303FB045500235E
:10C60C00984218BF03209A42AB6118BF0F20F8BDA7
:10C61C001F61DA610126CCE7D3F8002242F0200238
:10C62C00C3F80022D7E74FF40472C3F804230020A8
:10C63C00EDE71020EBE700BF382B00200220FEF7BF
:10C64C008DBF00002DE9F04780460D46FEF7A6FF92
:10C65C000328044610D8012D10D0022D30D05DB91E
:10C66C001A48FDF701FE1A4B04EB440213449D7863
:10C67C00184B1B5DAB4219D0BDE8F087144E00EB94
:10C68C004003F218F55C5378470053B1DFF848903B
:10C69C000E484A464FF48041FDF7B8FD08B989F8B9
:10C6AC00008027443E440B4BB2781A55002DE3D042
:10C6BC000A4B1B68002BDFD02846BDE8F047184713
:10C6CC0000EB4004024804446578EFE73023002077
:10C6DC005E2B0020792B00205C2B0020742B00207B
:10C6EC0000780221FFF7AEBF08B5094B1B7853B198
:10C6FC000020FEF709FF0120FEF706FFBDE8084009
:10C70C000320FEF701BFBDE80840FEF709BF00BFDC
:10C71C005D2B0020F8B57A4C237805461BB100231D
:10C72C002370FFF7E1FF172D00F28780DFE805F09B
:10C73C000C1717425364757F878C878C9499999941
:10C74C009999C3C8D0D8E3E3FFF7CEFF6D48FDF746
:10C75C008BFD6D4B002204461A702046F8BD00205C
:10C76C00FEF7B8FEF0B10020FEF7CEFE022D0CBF96
:10C77C004FF4E1644FF47A64634B1D7000254FF461
:10C78C0000464FF47A7029464FF4FA620023E4FB1A
:10C79C00060102F009F92A460146BDE8F84059485D
:10C7AC00FDF734BDFEF7A4FE022D0CBFC8244FF4D8
:10C7BC00C874E1E70020FEF78DFE40B10020FEF7C3
:10C7CC00A3FE4FF44874504B03221A70D6E7FEF7C1
:10C7DC008FFEC824F7E70020FEF77CFE38B100205E
:10C7EC00FEF792FE4FF47A64474B0422EDE7FEF716
:10C7FC007FFE4FF4C874F7E70020FEF76BFE48B1DC
:10C80C000020FEF781FE404B05221A7040F6CD4108
:10C81C000022C2E7FEF76CFEF5E70020FEF79EFE55
:10C82C00394B06221A70002240F26661B5E70020EF
:10C83C00FEF75EFE344B07221A7000248DE70120B0
:10C84C002070FEF78BFEEEE701202070FEF786FECF
:10C85C0000224FF40051A0E7FEF771FE2A4B0C2288
:10C86C00EAE72A482A4EFDF7FFFCD5F111050446EC
:10C87C001CD0D8B9012D13D0C820454321464FF404
:10C88C0000474FF47A704FF4FA620023C5FB07019E
:10C89C0002F08AF8224601461C48FDF7B7FC044614
:10C8AC000220FEF725FE0123337056E70220FEF727
:10C8BC002BFE0023F8E7FFF717FF134B1222BBE701
:10C8CC00FFF712FF0020FEF713FE0F4B1322B3E706
:10C8DC00FFF70AFF0120FEF70BFE0B4B1422ABE710
:10C8EC00FFF702FF0020FEF703FE0120FEF700FE1B
:10C8FC00054B1522A0E7FEF722FE034B1D709CE7AB
:10C90C00702B002050230020782B002010230020B7
:10C91C005D2B0020044B1B68DB0703D5034B1878F9
:10C92C00FFF7F8BE704700BF6C2B0020782B00205F
:10C93C0010B5002914BF03240024FEF741FE80002B
:10C94C0000F1A040D0F8002722F44032C0F80027B4
:10C95C00D0F8003743EA0443C0F80037002010BD7C
:10C96C00032801D8FEF70CBE00207047044B1B684F
:10C97C0013F0010301D0FFF7CDBE1846704700BF7E
:10C98C006C2B002038B51C4B18601C4B10F00204AB
:10C99C00054619601AD01A4B1A480E221A700F222B
:10C9AC00DA7010229A7111225A72042140F2333239
:10C9BC00FDF766FA044648B9FDF7BAFA044628B9F9
:10C9CC000146114A1148FDF70FFC0446EB0711D53F
:10C9DC000120FEF7FBFD6CB921460D4A0D48FDF711
:10C9EC0003FC044630B9BDE838400B4A0B48012122
:10C9FC00FDF7FABB204638BD6C2B0020742B0020B1
:10CA0C005E2B0020E0F40100EDC6010004F50100EE
:10CA1C0021C9010008F5010049C6010000F501001B
:10CA2C00032811D8012A0AD101290FD100F10E02D5
:10CA3C00D2B20D4B00EB40001A5400207047012974
:10CA4C00F7D0022904D049B1072070470022F8E73B
:10CA5C00054B00EB400018444270EEE7024B00EB34
:10CA6C00400018448270E8E75E2B0020032802D8AF
:10CA7C000121FFF75DBF0620704708B50122022196
:10CA8C000020FFF7CDFF08B1072810D107220221A3
:10CA9C000120FFF7C5FF08B1072808D100210A22A1
:10CAAC000846FFF7BDFF10B1072808BF002008BDDE
:10CABC000388102B10B502D0112B1ED010BD1A4CB0
:10CACC002168B1B901220846FFF7AAFF08B107286F
:10CADC0024D1072202210120FFF7A2FF08B1072869
:10CAEC001CD1042202210020FFF79AFF08B107286D
:10CAFC0014D1236801332360E0E70B4A1368013B30
:10CB0C001360002BDAD1FFF7B8FF0028D6D0074B03
:10CB1C001B68002BD2D0BDE810401847034B1B6894
:10CB2C00002BE6D09847E4E7842B0020802B0020D4
:10CB3C0008B50C20FFF79AFF08B1062806D1012092
:10CB4C00FFF794FF10B1062808BF002008BD0000B5
:10CB5C000D4B10B518600C4629B10120FFF700FFF2
:10CB6C0040B102232370094B1B685BB9BDE8104030
:10CB7C00FFF783BF0C20FFF7F3FE08B10B23F1E79F
:10CB8C002070F0E7002010BD802B0020842B0020AB
:10CB9C0076DF70477ADF70477CDF70477FDF704746
:10CBAC008FDF7047B1DF704733DF7047FDF7D6B9C1
:10CBBC0008B50020FFF7DAFE08B1FDF7CFF9FFF753
:10CBCC00B7FF08B1FDF7CAF9FFF7EEFF18B1BDE8E2
:10CBDC000840FDF7C3B908BD0388212B13B50446E3
:10CBEC003FD007D8112B2DD0132B48D0102B0CD0A5
:10CBFC0002B010BD522B4AD0562B01D03B2BF7D193
:10CC0C00A0881321FFF7C4FF15E0254B25482649C2
:10CC1C00C01AC008000440F00300FCF7C3FE072054
:10CC2C00FFF7A4FE08B1FDF799F9204BA188204825
:10CC3C00198001F007FB0028DAD002B0BDE81040E3
:10CC4C00FDF78CB9164B17481A49C01AC0080004D6
:10CC5C0040F00300FCF7A6FE144B4FF6FF721A804F
:10CC6C00C6E7002380888DF8043001A98DF80530C3
:10CC7C00FFF796FF0028BBD0FDF770F9B8E70B481B
:10CC8C0000231A4685210088FFF788FFD3E7074861
:10CC9C0000231A4619460088FFF784FFCBE700BF34
:10CCAC003CED010064ED01000CF501007623002041
:10CCBC008C2D002016F5010008B503784BB9054BF7
:10CCCC003B211888FFF764FF18B1BDE80840FDF759
:10CCDC0045B908BD76230020072808B513D00A28CB
:10CCEC000DD0042819D10D4B13211888FFF750FFD4
:10CCFC0030F0080311D0BDE80840FDF72FB9BDE8AE
:10CD0C000840FFF755BF054B1A884FF6FF739A4240
:10CD1C0003D1034800F0C1FEEAE708BD76230020EA
:10CD2C00802C002008B548B103280BD10220FFF756
:10CD3C001DFE38B1BDE80840FDF710B9BDE808404C
:10CD4C00FFF736BF08BD0000F7B50378012B33D0D1
:10CD5C00022B31D073BB1B4C1B4D20782844FDF7A4
:10CD6C005FFC23780133DBB21D44237015F8012CD2
:10CD7C000A2A05D00D2A03D0144A12889A4219D8CF
:10CD8C00012B15D9124D104E124F2378ADF80630E9
:10CD9C000DF106022B883146384601F0CBFB0828F2
:10CDAC0006D01328F1D0052802D008B1FDF7D6F82B
:10CDBC000023237003B0F0BD406803B0BDE8F04021
:10CDCC00FDF7CCB87C2C0020882B0020742300208D
:10CDDC0076230020782300202DE9F04105780646C3
:10CDEC0045BB154C154BDFF85880E41AE4082404B5
:10CDFC0044F00104B28A95420AD33369134413F800
:10CE0C00013C0D2B16D10A20FDF720FC1128F9E767
:10CE1C003369585DFDF71AFC074648B11128F7D065
:10CE2C00024641462046FCF7C1FD3846FDF796F810
:10CE3C000135DFE7BDE8F08164ED01003CED010058
:10CE4C0023F501000D4B4A881B889A4214D10A889D
:10CE5C0040F677239A420FD18B88094A09480A4930
:10CE6C00033B9BB21380094A801AC00800041A467F
:10CE7C0040F00300FCF7A3BD704700BF76230020F1
:10CE8C007423002064ED01004EF501003CED01001F
:10CE9C00FDF764B808B50849084801F0EAF808B18C
:10CEAC00FDF75CF80548F72101F0F2F818B1BDE880
:10CEBC000840FDF753B808BD51CE0100782D002075
:10CECC0000B56D4D0FCDB1B005AC0FC495E80300A6
:10CEDC006A4B6B4A01934FF4807384E80300CDE9ED
:10CEEC0003230293674A072301A905A8FDF740FB1A
:10CEFC0008B1FDF733F84FF480410020FCF7B4FB88
:10CF0C0008B1FDF72BF8FCF7EFFAFDF73BF908B188
:10CF1C00FDF724F85C490320FFF734FD08B1FDF759
:10CF2C001DF805A90020FFF713FE08B1FDF716F850
:10CF3C00FEF7F6F808B1FDF711F801F077FB08B130
:10CF4C00FDF70CF8002305A90120059301F000FC66
:10CF5C0008B1FDF703F805A801F0BAFC08B1FCF71D
:10CF6C00FDFF112349498DF804300B2201A8FFF76E
:10CF7C0013FE08B1FCF7F2FF0023ADF818301023B4
:10CF8C00ADF814303C23ADF8163005A84FF4C87337
:10CF9C00ADF81A30FFF7FEFD08B1FCF7DFFFFFF725
:10CFAC0079FF3B4B3B48059305A901F039F908B1D2
:10CFBC00FCF7D4FF384B3948019301A901F040FA32
:10CFCC0008B1FCF7CBFFAC22002105A801F0EDFD68
:10CFDC0002238DF8143005238DF8173001234021DE
:10CFEC00ADF860308DF8903044F25063CDE92713E2
:10CFFC002B4A2C4B2C48199205A92E9300F0A9FB17
:10D00C0008B1FCF7ABFF2848012100F09FFB14226C
:10D01C000DEB0200002101F0C8FD4FF4F0234FF49A
:10D02C00A032CDE9062303238DF820301F4B0A9341
:10D03C0005A81F4B0B9300F04FFE08B1FCF78EFFB9
:10D04C001C4801F06FFD1C4B1C481D49C01AC00840
:10D05C00000440F00300FCF7A5FC1348032100F08A
:10D06C00E8FB08B1FCF77AFFFCF750FB0028FBD17A
:10D07C00FEF76CF8F8E700BFB0F50100982D002022
:10D08C00982E002055CD0100E5CC01006AF5010079
:10D09C00B9CB01008C2D0020E5CD010078230020B8
:10D0AC007023002031CD0100802C0020C5CC010064
:10D0BC009DCE010076F501003CED010064ED010010
:10D0CC0087F501000369C26893429CBF80681B18F6
:10D0DC00013B981A70472DE9F843D0E902940546B4
:10D0EC00A9EB04084068904520440F46144404D929
:10D0FC0001F032FDEC60BDE8F8834246A4EB090474
:10D10C0001F02AFD6868224607EB0801F0E72DE9DB
:10D11C00F843C5680646894617464FF0000834693F
:10D12C00B3687068A54228BFE418013C621B5C1B05
:10D13C00BC4228BF3C46944228BF1446494628446A
:10D14C00224601F009FDB3682544AB4208BF002517
:10D15C003F1BA044A144F560E1D14046BDE8F883F3
:10D16C0010B5114C114AA2610223C4E90433104BCF
:10D17C00E361A2644FF400730E4A0F492362E26428
:10D18C0000231022E01DA3626362E362A365636562
:10D19C00E365226501F03CFD0849204601F038FDAD
:10D1AC002023A37110BD00BF982F0020C8F50100EB
:10D1BC002030002010300020D1F50100D5F5010001
:10D1CC0070B5164B182400FB04451D4404FB0033BA
:10D1DC001646DC6A012C0ED0022C18D0E4B9284675
:10D1EC00FFF770FF864204D832462846FFF773FFDC
:10D1FC003446204670BD2846FFF764FF864234460D
:10D20C0028BF044622462846FFF765FFF1E728466B
:10D21C00BDE87040FFF77BBF0024EAE7982F0020A1
:10D22C00FFF79EBF6DDF704779DF70477DDF70477A
:10D23C0064DF70472DE9F04F85B000250E9CBDF8DA
:10D24C003CB0B4F800A00191074690461E46A94692
:10D25C003A884A450DDC45B12388013BA3EB0A0310
:10D26C009BB2FF2B3AD806F80A30002005B0BDE877
:10D27C00F08F7A6852F82900039000220DF10B010F
:10D28C0003A8FFF7D5FF0028F0D19DF80B204245ED
:10D29C0021D12288002D14BF0020022002EB0801AE
:10D2AC00014459451ADC3DB9013292B2019B2280EE
:10D2BC00B35422880132228022880DF10B013244B2
:10D2CC0003A8FFF7B5FF0028D0D121889DF80B20CB
:10D2DC000A442280012509F10109B9E70C20C5E7B0
:10D2EC002DE9F341089FBDF824801546CDE900785F
:10D2FC00022204461E46FFF79DFF50B9334610220A
:10D30C0029462046CDE9087802B0BDE8F041FFF788
:10D31C0091BF02B0BDE8F0812DE9F04F00231788D2
:10D32C00138090F82D3085B006460D4614465BB33D
:10D33C00082F01D80C2028E102A8FFF773FF002862
:10D34C0040F023812388DDF809100822EA54238851
:10D35C0001339BB21B222380EA54238801339BB2F6
:10D36C00EA182380E950BDF80D30938023889DF88E
:10D37C00082006339BB212F0FE0218BF0122238054
:10D38C00EA54238801332380B378FBB12388043318
:10D39C00BB42CFD802A8FFF747FF002840F0F5802A
:10D3AC0023880322EA54238801339BB21922238059
:10D3BC00EA542388BDF8082001339BB2E918238076
:10D3CC00EA54120A4A70238802332380F2789AB105
:10D3DC002388D91CB942ADD80221E95423880133E2
:10D3EC009BB201212380E95423880B449BB22380F8
:10D3FC00EA5423880B4423807268AAB12388D91C71
:10D40C00B94297D8022192F90020E95423880133BC
:10D41C009BB20A212380E954238801339BB22380D9
:10D42C00EA542388013323803389002B40F0A180F8
:10D43C00338A5BB1CDE900472B460722032106F165
:10D44C001000FFF74DFF002840F09F80338B5BB13D
:10D45C00CDE900472B461522142106F11800FFF7E1
:10D46C003FFF002840F09180326A002A40F0908003
:10D47C00D6F82480B8F1000F30D0B8F804302188E9
:10D48C00981C8A1C0244BA423FF654AFFE283FF661
:10D49C0051AF03336B54238801339BB2FF2223809B
:10D4AC00EA54238801339BB22380B8F80020EA5455
:10D4BC00E918120A4A702088023080B22080B8F82D
:10D4CC0004205AB1D8F8081000296BD0284401F078
:10D4DC0043FB2388B8F804201344238096F82C309F
:10D4EC00002B40F09880307800284ED03388012BE8
:10D4FC0058D0228802F1020CBC453FF61BAF012824
:10D50C0005D17378023313449F42FFF413AF023FEB
:10D51C00BF1ABFB202A905EB0C00ADF80870FFF7FB
:10D52C0085FE90BB3178BDF80830022900F0B98037
:10D53C0072789A4202D39F4280F0B180012940F068
:10D54C00B280974293B2C0F0AE80ADF8083008219B
:10D55C00BDF80830FE2B3FF6EDAE22880133AB54FC
:10D56C002288013292B22280A9542288134423804B
:10D57C000BE0CDE900472B460622022106F10800FC
:10D58C00FFF7AEFE00283FF453AF05B0BDE8F08FB7
:10D59C00B4F800C00CF10603BB423FF6CBAE1188C9
:10D5AC00052901D80720F0E76FF4486E01EB0E0354
:10D5BC009BB24FF27D3E7345F4D95388052BF1D9BC
:10D5CC006FF44860181880B27045EBD94FF6FF70B5
:10D5DC00814201D09942E5D8052305F80C30238807
:10D5EC0001339BB212212380E954238801339BB26F
:10D5FC0023801188E954E818090A41702388023302
:10D60C009BB223805288EA54E918120A4A70238884
:10D61C00023323802CE7B36A002BC3D04FF00008F1
:10D62C004FF00C0A4FF0160BB16A5FFA88F20AFB46
:10D63C0002F201EB0209B9F80430981CFE283FF6FF
:10D64C0079AE208803332B54238801339BB223807B
:10D65C0005F803B0238801339BB223808A5AEA541D
:10D66C00E918120A4A702088023080B22080B9F87A
:10D67C0004205AB1D9F80810002993D0284401F09D
:10D68C006BFA2388B9F804201344238096F82C20D5
:10D69C0008F101085FFA88F39A42C5D823E70921FB
:10D6AC0056E79F42FBD2ADF8087050E730B5C8B1D1
:10D6BC00F2B10024651C8D4206DA1588A54212D8F9
:10D6CC0005196D789D420ED1A14211D9005D48B16A
:10D6DC00013880B230B10234A3B210FA84F4A14202
:10D6EC0006DB138030BD055D01352C44A4B2E1E7A7
:10D6FC000020F7E713B513460022ADF806200DF114
:10D70C0006020446FFF7D2FF10B1BDF80600204414
:10D71C0002B010BD72DF704773DF704774DF704763
:10D72C0038B5012204460D46B0F8D810D0F8D40014
:10D73C00FFF7E0FF00B1057004F13C0204F1D401E5
:10D74C0004F15400BDE83840FFF7E4BF80F8301016
:10D75C007047F8B504460F46002966D0002864D0FF
:10D76C0091F87A301BB191F89830002B5FD1D7F833
:10D77C00A030042B5BD0D7F89C30042B57D04FF043
:10D78C00000C84F802C007F178060FCE251D0FC5DA
:10D79C000FCE0FC596E8070085E8070084F830C067
:10D7AC00D7F8A4306363D7F8A830A36304F1D4028C
:10D7BC004FF6FF73C4F8EAC0A4F8E830C4F8E420CC
:10D7CC00C4F8EDC022780AB984F85430224604F12A
:10D7DC0055011F25C4F8D410384622F8D85FFFF73E
:10D7EC009BFD08BB224604F19301C4F8DC1007F141
:10D7FC003C0022F8E05FFFF78FFDA8B9A369A4F8FD
:10D80C0048304FF480730125A4F8503063692064CC
:10D81C00014684F83C50636404F13C0204F154006A
:10D82C00FFF778FF00B92570F8BD0E20FCE7072044
:10D83C00FAE7F8B5077804460D46002F00F0F6809D
:10D84C000023C0F8EA30C0F8ED30C388817000F1D5
:10D85C00EA060BB1012903D0E37943B1022D06D1BD
:10D86C00636BABB1012284F8F1200820984704F1D6
:10D87C00EB0304F1F10113F8012B12B99942FAD11F
:10D88C0017466B1E032B4ED8DFE803F0050B0F1267
:10D89C0084F8F130EBE7A3791BB194F8243003B989
:10D8AC005FB9E3790BB1002F3FD1237A002B3ED126
:10D8BC00637A002B0CBF00250425636BA570002B2D
:10D8CC0037D0033D012D34D8627992B394F8F2200D
:10D8DC007ABB84F8F420012284F8F32007209847BF
:10D8EC0004F13C0518220021284601F05EF9E26A99
:10D8FC00531E0121022B94F8243084F83C1028BFCD
:10D90C000A4684F8512033B1A36A5A1E022A28BF52
:10D91C000B4684F85230A378042B1CD8DFE803F0B4
:10D92C006D0D233353000025C7E70225C5E70325FA
:10D93C00C3E7002384F8F330D2E7012384F83130B5
:10D94C000023C4E91063C4F8E430022384F83C30AB
:10D95C008023A4F84830A378002B52D1636B002BA2
:10D96C0060D100205DE0022384F83130032384F879
:10D97C003C302369A4F848300023C4F8E430E36851
:10D98C0026646364E7E763696364A369A4F84830B9
:10D99C006379B3B194F8F2309BB994F8F43083B155
:10D9AC00022384F8503004212046FFF7B9FE0028EA
:10D9BC00D1D1052384F8313004F1D403C4F8E43018
:10D9CC00C9E70323F6E7E3696364236AA4F84830E4
:10D9DC00637983B194F8F2306BB994F8F43053B1A5
:10D9EC00022384F8503004212046FFF799FE0028CA
:10D9FC00B1D10623DEE70423DCE7002384F83130C1
:10DA0C00A9E7D4F8E4102A4604F15400FFF782FE8B
:10DA1C0038B994F8301094F85400FFF77DFE0028C4
:10DA2C009CD0F8BD94F8310098479AE70820F8E7A5
:10DA3C000388112B10B50C460AD0262B1FD0102BA7
:10DA4C0005D1C37B012B02D18388A1F8E83010BD2E
:10DA5C000022838881F8F220B1F8E8209A42F6D1AE
:10DA6C000B79002BF3D101212046FFF7E2FE0028B1
:10DA7C00EDD0A36B002BEAD0BDE810401847037A19
:10DA8C00013B012BE3D8897805230131B1FBF3F37A
:10DA9C0003EB8303C91AC9B2E6E738B5044690F81C
:10DAAC005400FFF73BFE012384F8F230002384F886
:10DABC00F43084F8503006212046FFF731FE05463D
:10DACC0038B9A1782046FFF7B4FE10B1A36B03B1AF
:10DADC009847284638BD75DF704776DF70477ADF88
:10DAEC0070477BDF70470000034B1A8882420CBFE3
:10DAFC0018460020704700BF3C320020024B9B6947
:10DB0C0003B11847704700BF2032002073B585B2AF
:10DB1C002846FFF7E9FF044638B3174E027A337BE9
:10DB2C009A420CD200F10A012846FFF7D4FFF0B15B
:10DB3C0011281AD002B0BDE87040FFF7DFBF0023F8
:10DB4C000372337C43B13B212846FFF7C6FF30F00C
:10DB5C00080301D0FFF7D2FF736933B100228DF8AF
:10DB6C000420ADF8065001A8984702B070BD237A86
:10DB7C0001332372F9E700BF2032002013B50B46A6
:10DB8C00497A02460E4871B9D0E901101C7A002C72
:10DB9C0018BF01465868FCF739FB78B102B0BDE8F4
:10DBAC001040FFF7ABBF00211972436933B101215B
:10DBBC008DF80410ADF8062001A8984702B010BDEE
:10DBCC00203200204B8802889A4212D842889A420E
:10DBDC000FD380888B8840F2F311884294BF021ACD
:10DBEC00421A9A4205D80844984234BF00200120BA
:10DBFC0070470020704700000388122B70B5014657
:10DC0C0059D004D8102B1ED0112B44D070BD502BE2
:10DC1C00FCD12F4BC288DB899A42F7D1038A022BA5
:10DC2C00F4D186883046FFF75FFF05460028EDD01B
:10DC3C0001F1120000F071F938BB6868FCF714FBB5
:10DC4C000028E3D009E0C37B012BDFD14FF6FF7036
:10DC5C00FFF74AFF054620B90420BDE87040FFF7E6
:10DC6C004DBF1C4A8E880680002303721368C0F8CF
:10DC7C000A305368C0F80E3010310A30FFF7A2FF9B
:10DC8C00134B6872DB89002BC0D129463046BDE8A6
:10DC9C007040FFF773BF8088FFF726FF044600280B
:10DCAC00B4D04068FCF7E0FA08B1FFF727FF4FF655
:10DCBC00FF732380AAE786883046FFF715FF0546D9
:10DCCC000028A3D008310A30FFF77CFF6872DCE72C
:10DCDC002032002050320020F8B5064648B30546E5
:10DCEC000FCD154F3C460FC495E8070084E807009C
:10DCFC003068124C3C60B0B1FFF7F1FEC0B932682D
:10DD0C0013682360536863600D480E4A4FF6FF7327
:10DD1C0003800D4B40F8043F0021FCF765FA002806
:10DD2C0018BF032004E02046FFF7DBFE0028EBD0F1
:10DD3C00F8BD0E20FCE700BF20320020503200203E
:10DD4C003C32002019DB0100583200200AB1FCF7EC
:10DD5C00A3BEFCF7AABE73B50191019C06466CB13B
:10DD6C0000252C46294601A8FCF7A9FE18B106EBA4
:10DD7C00440301349D800135142DF3D130463460B9
:10DD8C0002B070BD2DE9F04303888488103B8DB040
:10DD9C000A2B1ED8DFE803F006361D1D1D1D1D1DA8
:10DDAC001D5B3D002E4FBB68DB43009379686846D2
:10DDBC00FCF7B1FE009901A8FFF7CDFF0DF10808A3
:10DDCC000026019B9E4207D3132C12D90420FCF78A
:10DDDC00C5F80DB0BDE8F08338F8029B002501357D
:10DDEC00494607EB8500FCF760FE1E2DF7D1013686
:10DDFC00E7E721461B48FCF74FFE1B482146FCF782
:10DE0C004BFEE6E7174821460DB0BDE8F043FCF7A2
:10DE1C004CBE027A15483F2A4FEA1215214694BF90
:10DE2C0000220122FFF792FF022D94BF0022012253
:10DE3C000F482146FFF78AFF012D0E4894BF0022A0
:10DE4C00012221460DB0BDE8F043FFF77FBF037AF6
:10DE5C00002BBED1427A0548C2F3C0022146F1E73D
:10DE6C0078320020803200207C320020903200205A
:10DE7C008C320020883200201328014602D8024838
:10DE8C00FCF71DBE002070477C32002010B5044604
:10DE9C00FFF7F2FF002814BF2046142010BD70B508
:10DEAC000546164608460AB90E2070BD00231360BD
:10DEBC00002DF9D02B68002BF6D0EB8813F003045F
:10DECC000ED1FFF7E3FFC0B214280BD02B7983429D
:10DEDC000AD9EA882B6800FB023030602046E4E760
:10DEEC000720E2E70520E0E70420DEE7AADF704721
:10DEFC00002301380B70042806D8DFE800F0030675
:10DF0C00080A0C0011230B7070472123FBE7312307
:10DF1C00F9E71223F7E72223F5E7008800F0010068
:10DF2C007047F0B58B7891B00C46012B38BF0123AC
:10DF3C0000278DF80E3005460B88607CADF80C3050
:10DF4C006946ADF800708DF80270FFF7D1FFA07C28
:10DF5C000DF10101FFF7CCFF1646237BE27B217DFF
:10DF6C0043EAC203227C43EA02139DF80220B94221
:10DF7C0022F0190203F0190314BF022101211343EB
:10DF8C0061F342031C22394609A88DF8023000F0D7
:10DF9C000CFE637B13F0300F14D00DF10901E07C03
:10DFAC00ADF808708DF80A70FFF7A2FF11238DF8F9
:10DFBC0008309DF80A30012102AA61F342038DF862
:10DFCC000A300E92637B8DF82430A37B8DF82530BC
:10DFDC000023CDE90633089303AB0493A388ADF873
:10DFEC001C30A368CDF814D01BB1E288ADF8182012
:10DFFC000893A36973B301A90022ADF804208A70B9
:10E00C001A88ADF82C205A88ADF82E205A680D913C
:10E01C00187B0A92FFF76CFFA3690DF10501587B81
:10E02C00FFF766FFA3699A7A197A41EAC201DA7A94
:10E03C009B7B41EA02119DF80620002B01F019018F
:10E04C0022F0190214BF02230123114363F342018E
:10E05C008DF80610E36903B10C93334604AA09A9A1
:10E06C002846FFF743FF11B0F0BDA5DF7047B5DFC1
:10E07C00704758B14FF0F7130360FB230371F7237C
:10E08C00C3801723C1608360002070470E20704747
:10E09C0030B1A1F11703E02B04D8018000207047A8
:10E0AC000E2070470720704713B5034680880C4636
:10E0BC0090B91A883A2A68D010D8102A3DD0112A63
:10E0CC005ED0A37A43B1E1880020FFF7CEFF002891
:10E0DC0076D14FF48073638102B010BD552AF0D114
:10E0EC00DB88C988A072172B38BF17238B4228BF37
:10E0FC000B462381FFF7BBFF60B1FDF797F8394B57
:10E10C003949024639481B1ADB081B0443F001004D
:10E11C00FBF74CFCE27A002AD3D1E368002BD0D079
:10E12C0040F67721ADF802202289ADF80010ADF849
:10E13C000420694620469847C3E7DB7B012B04BFCC
:10E14C000B88CB80C98823898B42BAD20020FFF779
:10E15C008CFF10B90123E372B3E7112802D101231C
:10E16C00A372AEE7FDF762F81E4B214902461F4829
:10E17C001B1ADB081B0443F00100FBF717FCA0E79C
:10E18C00F723CB8017238B609BE75B89CA8893426C
:10E19C0028BF1346172BCA6838BF17230B8162B1EF
:10E1AC00C97A51B140F67721ADF80010ADF80200F4
:10E1BC00ADF804306946204690470023638180E720
:10E1CC00112889D0FDF732F8064B09490246074859
:10E1DC001B1ADB081B0443F0010002B0BDE8104021
:10E1EC00FBF7E4BB8CED01000DF601003CED0100EA
:10E1FC00DCF50100B0DF704766DF704710B5002119
:10E20C0004464088FFF7F8FF034608B9237210BD97
:10E21C00112801D10123F9E76368BDE810401847C4
:10E22C0060B159B10378DE2B0AD00B684360DE2352
:10E23C0003704FF6FF734380002070470E20704729
:10E24C000820704728B10378DE2B04D141800020D0
:10E25C0070470E20704708207047F0B5054685B012
:10E26C000C46002942D0002840D00B78DE2B3DD143
:10E27C0082884B889A4204D10B7A13B10846FFF777
:10E28C00BDFF2B88112B33D0512B0FD0012B2DD14F
:10E29C002B7A012B2AD1A9886288914226D120465B
:10E2AC00237205B0BDE8F040FFF7A8BFAE886388C5
:10E2BC00B3421BD1AF79022F18D1AD7B2B1F022B90
:10E2CC0014D800211022684600F06FFC052D18BFF1
:10E2DC004FF4C0736946304618BFADF804308DF862
:10E2EC000070FFF787FF08B16368984705B0F0BD71
:10E2FC006388AA889A4204BF4FF6FF736380F5E7E0
:10E30C00A8DF7047ADDF7047AEDF704762DF704744
:10E31C00F0B505468BB00C4600295FD000285DD0C7
:10E32C000388502B35D0572B6CD0102B56D18188AD
:10E33C006069002601AA0196FFF7B1FD022321892D
:10E34C00A888ADF80A6002AACDF80CD0ADF8083058
:10E35C00FFF7D8FF002841D1A369002B3ED00398CA
:10E36C00FFF7DBFD002839D0019E0EB1012333707D
:10E37C001822002104A800F018FC02238DF810309C
:10E38C00AB88ADF81830A3690594079604A8984794
:10E39C0024E08188606902AAFFF781FD1822002120
:10E3AC0004A800F002FCAB882189ADF81830EB888A
:10E3BC00029A05949942079217D12E8A022E14D1F3
:10E3CC0062B105F11200FFF7A8FD029B40B10122DA
:10E3DC001A708DF81060A369002BD7D10BB0F0BD6B
:10E3EC00187003238DF81030F5E7A2899A42F5D105
:10E3FC00A369002BF2D005F1120208922A8AADF81B
:10E40C002420C3E78188606902AAFFF748FD014612
:10E41C000028E3D1029F3B78002BDFD0A669002EA9
:10E42C00DCD0182204A800F0C0FB01238DF81030BA
:10E43C00AB880594ADF81830079704A8B047CDE722
:10E44C00F0B53A4B8FB002AD04460A4603F1100CFE
:10E45C002F46186859682E4603C60833634535465F
:10E46C00F7D1002C5FD0002A5DD01368A361214640
:10E47C003846FFF74BFF002853D12246012512F8EE
:10E48C00023B8DF8063001A92846ADF80450FFF781
:10E49C0037FF002845D10146202206A800F085FB55
:10E4AC0022460223ADF8183012F80C3B8DF81A30C6
:10E4BC00BDF824301E4E6088079623F44F6323F07A
:10E4CC000F0343F440632B4306A9ADF824308DF8B9
:10E4DC0029508DF82A50FFF724FD10BB014620224D
:10E4EC0006A800F062FB22460323ADF8183012F8A0
:10E4FC00043B8DF81A30BDF824306088079623F45D
:10E50C00875323F01F0343F480532B43ADF824307F
:10E51C0006A940F201138DF82950ADF82A30FFF707
:10E52C0000FD0FB0F0BD0E20FBE700BF51F601005F
:10E53C00F4000100F0B50F4687B016461C460546A0
:10E54C0010B3406901AA1946FFF7A9FCD0B94FF6E0
:10E55C00FF739C421AD0019BC3B11B78C3B13388A3
:10E56C00F42B17D8AB88CDF80B008DF80F00ADF855
:10E57C00083002A901232046CDE904678DF80A3042
:10E58C00FFF7C2FE07B0F0BD0E20FBE70520F9E750
:10E59C000820F7E70720F5E710DF704713B50446AE
:10E5AC0009496846FCF7E7FD019808B902B010BDAF
:10E5BC00D0E900312046984718B16846FCF7E5FDD4
:10E5CC00F2E71120F2E700BF70F6010013B5044624
:10E5DC0007496846FCF7CFFD019B0BB902B010BD93
:10E5EC002046D3E9002190476846FCF7CEFDF3E7BF
:10E5FC0088F601000B4991F816335A09EC231341A4
:10E60C00DB0706D5084B9A683AB94FF480030B60C8
:10E61C00704742F20200FBF7A1BC1A6842F4800278
:10E62C001A60704700E100E0582A0020F7B5194F36
:10E63C003C7864BB184E012520463570FFF7AEFFC1
:10E64C00112821D02046FFF7C1FF144B8DF8034051
:10E65C00186801900DF10300FCF720F8104901A88F
:10E66C00FFF79AFF0446B0FA80F0400938709DF825
:10E67C000300FCF737F83CB90A4B34701C70FFF7F9
:10E68C00B9FF2846FFF7A2FF204603B0F0BD0824CF
:10E69C00FAE700BFF5320020F432002069F60100E1
:10E6AC00859F0100F6320020014B1878704700BF9F
:10E6BC00F532002007B508496846FCF75CFD019B64
:10E6CC0013B903B05DF804FBD3E90020904768460A
:10E6DC00FCF75BFDF3E700BF7CF60100FFF7EABF38
:10E6EC0060DF704769DF704761DF704730B5134DED
:10E6FC00ADF5017D4FF4FA740DF1020103A8ADF8EC
:10E70C000240FFF7F1FF70B9294601A8FCF733FD71
:10E71C00029B002BF0D003A8D3E90021904701A85D
:10E72C00FCF733FDF4E7052805D00DF5017DBDE8B8
:10E73C003040FBF713BC0DF5017D30BD10F9010025
:10E74C00024B1B780BB1FFF7D1BF7047F73200209B
:10E75C0030B5054685B00C46002900F0A480002396
:10E76C00CDE90133514A039301230A608DF804006B
:10E77C008DF8063001A906232020ADF80830FFF7EC
:10E78C00B1FF60B1FCF752FD494B4A4902464A4879
:10E79C001B1ADB081B0443F00100FBF707F90023ED
:10E7AC00CDE9013303932268012301A940208DF8A0
:10E7BC000530FFF797FF60B1FCF738FD3C4B3F4944
:10E7CC0002463D481B1ADB081B0443F00100FBF713
:10E7DC00EDF80023CDE90133039322688DF8045042
:10E7EC00F72301A92320ADF80630FFF77BFF60B1BA
:10E7FC00FCF71CFD2E4B324902462F481B1ADB0836
:10E80C001B0443F00100FBF7D1F800230120226820
:10E81C00039301A9CDE901338DF80400FFF762FFE2
:10E82C0060B1FCF703FD224B2649024622481B1A15
:10E83C00DB081B0443F00100FBF7B8F80023CDE91B
:10E84C00023322684FF4B06301A9A1200193FFF7B2
:10E85C0049FF60B1FCF7EAFC154B1B490246164810
:10E86C001B1ADB081B0443F00100FBF79FF8002583
:10E87C002268039501A9A020CDE90155FFF732FFCD
:10E88C00034668B1FCF7D2FC094B104902460A4812
:10E89C001B1ADB081B0443F00100FBF787F82B461F
:10E8AC00184605B030BD0E23FAE700BFC822002081
:10E8BC009CED010094F601003CED0100DAF601003C
:10E8CC0026F701006DF70100B9F701000AF8010005
:10E8DC00F8B506460768FFF703FF3368BB420546E9
:10E8EC001DD91948194C1A49241AE408240444F077
:10E8FC0002042046FBF756F8336816493A46204680
:10E90C00FBF75DF84FF080533268D3F80C311249A5
:10E91C009B0203F100539A1A2046FBF747F825B9DE
:10E92C000E4B01221A702846F8BD2846FCF77EFCD7
:10E93C00064B0B49024604481B1ADB081B0443F028
:10E94C000100FBF733F8EEE73CED01009CED010014
:10E95C005DF801008CF80100BDF80100F7320020D1
:10E96C00E7F801004BDF70471FB50E4C01A8FFF70D
:10E97C00F9FF70B9214602A8FCF7FDFB039B002BA5
:10E98C00F4D00198D3E90021904702A8FCF7FDFBD5
:10E99C00F4E7052804D004B0BDE81040FBF7DEBA5C
:10E9AC0004B010BD28F9010053EA020C61D02DE926
:10E9BC00F04BB3FA83F51E0007BFB2FA82F502FAE8
:10E9CC0005F403FA05F41646C5F120051EBF22FA1C
:10E9DC0005F73C43203556EA044C4FEA144418BF63
:10E9EC000134A3464FF00009C846904271EB030C6A
:10E9FC0039D3094207BFB0FA80F700FA07F6B1FA2B
:10EA0C0081F701FA07F6C7F120071EBF20FA07FCB1
:10EA1C0046EA0C062037B6FBFBFC7F1B103F07F0C9
:10EA2C001F04C4F120060CFA04F42CFA06F644BFB9
:10EA3C0034460026202FA4BF2646002454EA060C98
:10EA4C0008BF012418EB040849EB0609A4FB027C5F
:10EA5C00C01B06FB02CC04FB03CC71EB0C019042F7
:10EA6C0071EB030CC5D20B46024649464046BDE845
:10EA7C00F08BB2FBF3F200007F2805D8034A044B5D
:10EA8C00105C5B5C184070470020704740F9010037
:10EA9C00C0F90100A0F16103192B98BF2038704711
:10EAAC00A0F14103192B98BF203070477F299ABFE2
:10EABC00017001206FF02E00704700BF5AB10A7828
:10EACC007F2A0AD800B102600021501AC3E9001154
