:020000022000DC
:1070000000000420757302005D7302005F730200CC
:1070100061730200637302006573020000000000E8
:107020000000000000000000000000006773020084
:1070300069730200000000006B7302006D730200B0
:10704000419E02006F730200CDA40200B1AF0200A6
:107050006F7302006F73020051A302006F7302008E
:1070600095B60200A5B602006F7302006F730200AE
:107070006F7302006F7302006F7302006F73020080
:107080006F730200A58902006F7302006F73020024
:107090006F7302006F730200A1D102006F730200D0
:1070A0006F7302006F7302006F7302006F73020050
:1070B0006F7302006F730200000000000000000008
:1070C0006F7302006F7302006F7302006F73020030
:1070D0006F7302006F7302006F7302006F73020020
:1070E0006F7302006F7302006F73020000000000F4
:1070F000000000006F730200000000006F730200C8
:10710000000000000000000000000000000000007F
:10711000000000000000000000000000000000006F
:10712000000000000000000000000000000000005F
:10713000000000000000000000000000000000004F
:10714000000000000000000000000000000000003F
:10715000000000000000000000000000000000002F
:10716000000000000000000000000000000000001F
:10717000000000000000000000000000000000000F
:1071800000000000000000000000000000000000FF
:1071900000000000000000000000000000000000EF
:1071A00000000000000000000000000000000000DF
:1071B00000000000000000000000000000000000CF
:1071C00000000000000000000000000000000000BF
:1071D00000000000000000000000000000000000AF
:1071E000000000000000000000000000000000009F
:1071F000000000000000000000000000000000008F
:10720000354936480A1A02D0072291438D4634493F
:1072100034480A1A06D00722914381F309880222D2
:1072200082F3148830483149314A00F044F831483B
:107230003149324A00F03FF831483249324A00F0D1
:107240003AF832483249334A00F035F83248334987
:10725000334A00F030F833483349344A00F02BF811
:1072600033483449344A00F026F83448344900227F
:1072700000F02CF833483449002200F027F8334856
:107280003349091A082902DB002202604160314AB1
:1072900090471F481F49884205D00268043003B454
:1072A000904703BCF7E700208646EC46002000210B
:1072B000294A9047FEE7884207D0521A05D0037842
:1072C00001300B700131013AF9D17047884202D088
:1072D00002700130FAE770470000042000E003204C
:1072E000000004200000042030F40200E82A0020FE
:1072F000CC2B0020D0730200D0730200F8DE020015
:1073000030F40200E82A0020E82A00201CE00200F5
:107310001CE002001CE002001CE002001CE0020075
:107320001CE002001CE002001CE0020030F402003D
:1073300014F50200CC2B0020CC2B0020CC2B0020FD
:107340006C5A00206C5A00206C5A00206C5A0020A5
:107350006C7A00209D730200E1C10200FEE7FEE7A7
:10736000FEE7FEE7FEE7FEE7FEE7FEE7FEE7FEE7F5
:1073700000F002B8FFF7FCBF0F484FF00701884349
:1073800085460E4880470E48016841F4700101604F
:10739000BFF34F8FBFF36F8FFFF732BF09480A4922
:1073A0000A4A884207D0521A05D0037801300B7080
:1073B0000131013AF9D170470000042041980200E0
:1073C00088ED00E01CE00200E82A0020E82A002006
:1073D0007047000007B5044B0093044A402300F0B7
:1073E00032F803B05DF804FBF1730200CD2B0020EE
:1073F0002DE9F84388461446B2B10F4B0F4E0325D2
:10740000002743F00109224608EB0701002005F0A0
:107410003DF80744241A48B933782BB14FF47A4029
:10742000C847013D02D13570BDE8F88301233370B0
:10743000002CE8D1F8E700BF20E00200CC2B0020B0
:10744000704705F053B8F0B595B01D46164608468E
:107450000C4601F055FE1A9B0D93CDE908650025F9
:107460002B46082205A920460A958DF82C500C952C
:1074700001F062FE079B0293069B03939DF8143074
:107480008DF8115003F00302012A1DD1BDF814201C
:10749000059DC3F3C203C2F383168DF81030B2000A
:1074A00008230EA9204601F047FEC5F3952508AB39
:1074B0000093324602AB0EA9284600F033FB20466B
:1074C00001F022FE15B0F0BD022AF8D1BDF8165029
:1074D000C3F3C203C5F389158DF810300827082DB2
:1074E0002E4628BF08263B4632460EA9204601F00C
:1074F00023FEAD1B08AB02AA31460EA8374400F0AC
:1075000075FB002DEBD1DAE708B5FFF79AFF0448C9
:10751000042100F071FA034B01225A7108BD00BF2B
:107520000CE00200E82A0020037813F0040216D0D1
:1075300003F00303012B03D0022B09D00120704775
:107540000A6800880232C0F3831002440A60F5E73B
:107550000B684288023303EB92130B60EEE7104690
:10756000704700002DE9F04FDFF81CA187B00F46EF
:1075700000230446861C0DF1070015468DF80730E0
:1075800001F0A2F8DAF804203A60DAF8083003F5DE
:1075900080739B1A0AF21C470AF583690AF21448A1
:1075A000B3421AD30020002D69D004F00F039B01D1
:1075B00043F0050363F30F00DAF80430DAB2033264
:1075C00033444AF822009DF80700CAF8043001F05D
:1075D0009FF8012007B0BDE8F08F0121384601F087
:1075E000BEFA484601F0D3FA404601F0D0FADAF884
:1075F00008000290C0B203300AEB800002A9FFF736
:1076000093FF029B30BBDAB20AEB8202D16803918E
:107610009A1C0133DBB20AEB83030292D3F80CB05D
:1076200001F00303012B22D0022B15D083464046E4
:1076300001F0B0FA10B1029BCAF80830594638463A
:1076400001F08DFADAF80830DAF8042003F58073D7
:107650009B1AA5E7D8B2CEE7BDF80E30C3F3891365
:1076600003334FEA1B4B02EB93030293DFE7BDF8B2
:107670000C30C3F383134FEA1B4B1344F5E7A40507
:1076800044F0060098E700BFE02C0020064B0748B6
:1076900010B500221A7001F0ECFC044610B9044841
:1076A00001F06AFD204610BDE02C002058DF0200EA
:1076B0005CE0020030B50A4C71B10A4A0A49121B5B
:1076C000D20800239A4201D1002030BD31F8235066
:1076D000854202D00133F5E7034654F83300F4E75E
:1076E0006CDF02000CE00200E82A0020094B01399F
:1076F00003EBC000032909D8DFE801F00A02040601
:107700000420704700797047407970470020704727
:10771000022070476CDF020070470000034BD3E982
:107720000130C31A58425841704700BFE02C002076
:107730002DE9F04186B0FFF7F1FF0546002840F043
:10774000ED80774CC4F81804BFF34F8FA368029301
:10775000DBB2033304EB830002A9FFF7E5FE029BD3
:1077600018B1D4F81824002A5AD0DAB2991C01337F
:1077700004EB8202DBB204EB8303D268DB68049380
:1077800002F00303022B0392029154D1BDF80E3094
:107790006448C3F38917502F3E4628BF502606F190
:1077A000080166F38F13C1F30901ADF80E3001F043
:1077B00078FC0546002800F09C8001F0A1FC002325
:1077C000082203A9284601F0ADFC0299CB43DBB2A5
:1077D0000133C9B20331B6EB830F4FEA830204EBE6
:1077E000810125D95FFA82F80823A6EB080628460E
:1077F00001F098FCF6B208F108034B4903F0FC03D2
:107800003246284601F08EFC029B033703EB9707B4
:107810000297D4F81834002B43D1D4F8106453E005
:1078200062689A4294D8A260284606B0BDE8F0810A
:1078300008233246E5E7012B5BD1BDF80C3039480F
:10784000C3F38311062928BF062161F3891302318E
:1078500001F00F018900ADF80C3001F022FC054663
:10786000002846D001F04CFC0023082203A928463A
:1078700001F058FC0026BDF80C20C2F38312B300BF
:10788000964203F10803C4D202994A1CC9B20331DB
:10789000029204EB81010422284601F043FC0136E8
:1078A000E9E7284601F030FCFFF738FF80F00100DF
:1078B000C5B2B9E7F3685B7923B1336829461B6821
:1078C00030469847F3681E68002EF3D1284601F031
:1078D0001BFC0DF107008DF8076000F0F5FED4F8F1
:1078E00018340BB9029BA3609DF8070000F010FF4D
:1078F000DAE7D4F8104454B90C4B0D480D49C01ABE
:10790000C008000440F0020000F05EF8CCE72368F5
:1079100020469B689847E3681C68ECE7002583E7EE
:10792000E02C002058DF0200EC2C00206CDF02006D
:10793000ACDF020044E002002DE9F34704460E46A6
:10794000924601A9012218469946FFF70BFE1C4FEB
:1079500010B3019D4FF00008AA1CC84508EB0201B6
:1079600025D11848002101F0CBF880F31000000465
:1079700040EA1440E4006B1C04F03804DBB2EDB2C2
:1079800044F0010407EB8303033544EA881444EA16
:107990008624D86047F825403B781BB1FFF7C8FE26
:1079A0000028FBD1FFF7B8FE02B0BDE8F087C9B2EE
:1079B00007EB81015AF82830CB6008F10108CCE7C9
:1079C000E02C0020FC30002000231A46FFF7B4BF53
:1079D00007B50123019201AAFFF7AEFF03B05DF8DE
:1079E00004FB07B5CDE9002302236A46FFF7A4FF95
:1079F00003B05DF804FB000030B50F4CD4F8102440
:107A000003460020114631B9D96808714AB9C4F853
:107A100010340A6030BDC9680D79854206D0096806
:107A2000F1E7D26814680C601360F3E701300A28AC
:107A3000E8D14FF0FF30EDE7E02C002038B5084BDF
:107A40000125D3F810441D7004B938BDE3685D7199
:107A5000236820465B689847E3681C68F4E700BF2A
:107A6000E02C002030B5C38885B004460D4633B104
:107A7000144A00921449154A284601F0EEF8217A7A
:107A800005291DD0637A4BB1A088FFF72FFE104B5C
:107A9000104953F82020284601F0DFF8227A0E4BD7
:107AA000A08853F8222003920021FFF703FE039AD7
:107AB0000A490346284605B0BDE8304001F0CDB87C
:107AC00005B030BD88E0020070E0020068E002000E
:107AD000F4E002008DE0020018E1020090E00200F4
:107AE00007B503460846197A052911D05B7A2BB1F0
:107AF000094A0A49019001F0B0F80198084901903B
:107B000001F0ABF8019803B05DF804EB01F09AB80E
:107B1000002AF8D0F2E700BF88E002008DE0020002
:107B200085E002002DE9F04385B01F460C9D00233F
:107B300095F80C902B7306460C469046294638461D
:107B4000FFF790FFB8F1060F09D8DFE808F004123C
:107B5000181F283340003146284601F07EF80022E5
:107B600029463846FFF7BCFF85F80C9005B0BDE804
:107B7000F08322683146284601F06FF8EFE7D4E938
:107B800000233146284601F068F8E8E7A36800932F
:107B90003146D4E90023284601F05FF8DFE7E368C7
:107BA0000193A36800933146D4E90023284601F0ED
:107BB00054F8D4E723690293E3680193A368009320
:107BC0003146D4E90023284601F047F8C7E7636946
:107BD000039323690293E3680193A36800933146FA
:107BE000D4E90023284601F038F8B8E708292DE940
:107BF000F74F80460E4617461C463DD800251B7B96
:107C00002573214610460193FFF72CFFDFF88CA067
:107C1000DFF88CB0AE4232D918F80520594620461C
:107C200001F01BF80135082DF4D11B49DFF874A0D1
:107C3000DFF874B0204601F010F84FF000094E450F
:107C400024D918F809507E2D1ED8284605F03CFD91
:107C5000002814BF2A462E225946204600F0FDFF78
:107C600009F10109B9F1080FE9D10122214638468D
:107C7000FFF736FF019B237303B0BDE8F08F514639
:107C8000204600F0EAFFCDE72E22E5E751462046E8
:107C900000F0E3FFE4E700BFA4E00200A0E0020080
:107CA0009AE00200A2E00200A6E00200C30710B5BD
:107CB00007D4F023054A4008145C234019431154AB
:107CC00010BD0901C9B20F23F4E700BFA83100209D
:107CD00030B5094B1C78094B196800239C4202DC23
:107CE0000022104630BD11F83350854201EBC3022B
:107CF000F7D00133F2E700BF98310020C8310020EF
:107D000013B504460191FFF7E3FF38B143682BB187
:107D10000199204602B0BDE81040184702B010BDDE
:107D2000034B044819680022490800F087BA00BFD5
:107D30009C310020F02A002010B5C0B2FFF7C8FF28
:107D40000446007802F0F6FA63785A1E5342534113
:107D5000834208D1044BD3E90023134303D1BDE888
:107D60001040FFF7DDBF10BDA031002037B543083C
:107D7000374AD35CC2074CBF1B0903F00F0304460C
:107D80000D46042B25D8DFE803F003262F3C4000E6
:107D9000F9B10121FFF78AFF00230DF107008DF8EB
:107DA000073000F091FC0120A4F12003C4F1200170
:107DB000284A20FA01F100FA03F30B43A040D2E96C
:107DC000004120430B43C2E900039DF8070000F087
:107DD0009FFC03B030BD002918BF0221204603B02C
:107DE000BDE83040FFF762BF49B10321FFF75EFFF6
:107DF0000121204603B0BDE83040FFF781BF0121DB
:107E0000ECE70029E5D10421E8E709B10321E5E722
:107E1000FFF74CFF29462046FFF772FF0DF10700E0
:107E20008DF8075000F050FC0120A4F12003C4F1AC
:107E30002001084A20FA01F100FA03F30B43A040A5
:107E4000D2E9004124EA000021EA0303BBE700BFB6
:107E5000A8310020A03100202DE9F041124E134F2F
:107E600000243378A34208DC114BD3E900231343E9
:107E700018D0BDE8F041FFF753BF3D6805EBC408DB
:107E800015F8340002F056FA98F801305A1E5342A1
:107E90005341181A4142414115F83400FFF766FF7B
:107EA0000134DEE7BDE8F08198310020C8310020C0
:107EB000A0310020092AF7B505460C4616463ED9E2
:107EC00002F068F8E8B11F4B1F481D601F4B204FA0
:107ED0001C70204B002120221E6005F086FC1E4BEA
:107EE00000200021C3E90001013CE4B20326FF2C7D
:107EF0000DD11A4A1A48002103B0BDE8F04000F045
:107F00008BB902F003F80028DDD003B0F0BD9DF876
:107F1000063015F834008DF8046005EBC40223F038
:107F200007038DF8063001A993788DF805303A469D
:107F300002F032F9013CE4B20028D8D0E5E707208E
:107F4000E3E700BFC8310020A831002098310020AD
:107F5000397D02009C310020A0310020597E0200B2
:107F600038E1020070B5084D084E00242B789C4281
:107F700001D3002070BD3368012113F8340002F0F2
:107F80008BF90134F2E700BF98310020C83100209E
:107F90001FB50021039001AA44F20100CDE90111AF
:107FA00000F004F805B05DF804FB000038B572B6C7
:107FB000FFF744FDFFF7BCFB0028FBD1104B114C31
:107FC000114D1249E41AE408240444F00100FFF7BB
:107FD000FBFCD5F8F030DB0700D500BE0C4944F0BF
:107FE0000200FFF7F1FCBFF34F8FEA68094B02F480
:107FF000E0621343EB60BFF34F8F00BFFDE700BFAC
:108000006CDF0200ACDF020000ED00E03CE10200AA
:1080100048E102000400FA0549B152B1531E1A406A
:1080200007D1826001608380C260104670470E20D5
:1080300070470920704710B58468C2688388121B96
:10804000934208D3C26813400268D154C368013315
:10805000C360002010BD0420FCE78268C3689A4218
:108060000AD08268838813400268D35C0B708368EF
:1080700001338360002070470520704710B5D0E9B8
:108080000243D1E90202A04272EB03032CBF01209C
:10809000002010BD08B50A4800F06DFC094AD2E97D
:1080A0000031C018084BD3E9002341F10001904290
:1080B00071EB030303D210F1807041F1000108BDA0
:1080C000102B0020D03100204832002037B5054663
:1080D0000C460A4801A900F082FC60B105704460BA
:1080E00001A9064800F0A5FC18B1054800F048FCBD
:1080F000002003B030BD0420FBE700BF3432002075
:10810000102B0020294B73B51E7804461EB900269B
:10811000304602B070BD0028F9D0FFF7BBFFD4E9AC
:1081200002239042994139D300230DF107008DF8C5
:10813000073000F0C9FA23692BB94FF0FF324FF036
:10814000FF33C4E902239DF8070000F0E1FAD4E907
:108150000530984700250DF107008DF8075000F015
:10816000B3FA2369C3B1D4E90212B2F1FF3F08BFE9
:10817000B1F1FF3F05D05B1842F10002C4E90232C1
:1081800035469DF8070000F0C3FA002DBFD008481F
:10819000214601F010F8BBE71D46F2E7B3F1FF3FBF
:1081A00008BFB2F1FF3FB2D0F1E700BFD8310020E5
:1081B00064E1020013B5114B1149186801900823BE
:1081C0001048582200F0F8FB044698B90E4A0F48B0
:1081D00001A900F0C1FA044660B90C48012100F081
:1081E000ADFB01230A4A0948194600F00FFB094B71
:1081F00001221A70204602B010BD00BF60E10200EB
:10820000DC31002034320020F5820200102B0020E7
:10821000FFFF7F00D831002030B56AB103684FF00E
:10822000FF344FF0FF355A614A1E5142C3E90245FF
:1082300051411961002030BD0720FCE7F7B5044625
:1082400000250DF1070017460E468DF8075000F087
:108250003BFAD4E90223B3F1FF3F08BFB2F1FF3F7D
:1082600007D1FFF717FF301841F10001C4E90201FF
:1082700001259DF8070000F04BFA55B12369A7616D
:1082800003B126612146002003B0BDE8F040FFF7AE
:108290001DBF284603B0F0BD37B5054600240DF1DB
:1082A00007008DF8074000F00FFAD5E90223B3F17B
:1082B000FF3F08BFB2F1FF3F1FBF4FF0FF324FF04B
:1082C000FF33C5E9022301249DF8070000F020FADE
:1082D00034B12946012003B0BDE83040FFF7F6BEB7
:1082E000204603B030BD0000014800F044BB00BF91
:1082F000102B00202DE9F743064600F027FB40B184
:10830000624AD2E9003113F1807341F10001C2E900
:1083100000310021304600F028FB38B15C4C236866
:1083200023B12068FFF7EEFE0023236001213046D1
:1083300000F01BFB20B1FFF7ADFE564BC3E9000177
:108340005548534C01A900F084FB4FF0FF384FF023
:10835000FF39A0B9DFF844814D4D404600F041FFA0
:10836000002800F08580D0E90223B3F1FF3F08BF69
:10837000B2F1FF3F32D1404600F02DFFEDE7037828
:10838000012B20D0022B08D1444D284600F023FFBA
:10839000002877D0C0E90289F7E75BB94168D1E9E5
:1083A0000223B3F1FF3F08BFB2F1FF3F02D03B48C9
:1083B00000F001FF01A9384800F076FB01A936481A
:1083C00000F047FBC5E741682368994202D10023CA
:1083D0002360EFE7314800F007FFEBE7296891B130
:1083E0002968D1E9020182428B412FD22B68D3E95F
:1083F0000223B3F1FF3F08BFB2F1FF3F03D029686A
:10840000404600F0D8FE404600F0E5FED0E90249C3
:108410000746FFF73FFE201A69EB0109012879F1B1
:10842000000318DBB0F5350F13D3FFF75DFF1C4ACF
:1084300002441C484FF49603002100F007FA90B95B
:108440002B6813B9304600F0D9F92F6003B0BDE8AE
:10845000F0832246EDE71348002100F07CFA38460D
:10846000FFF750FE01E00D28F9D000232B6074E7E0
:10847000074B1B68002BE9D1304603B0BDE8F04341
:1084800000F0C0B9084B01221A7093E7D0310020E8
:1084900050320020483200203432002064E10200D3
:1084A000FFFFB400102B0020D83100200648074AF7
:1084B00003780749D35C012213B1043002F09CBC5D
:1084C0000C3002F045BA00BF182B00200833002002
:1084D0007C3200200648074A03780749D35C012212
:1084E00013B1043002F03ABC0C3002F0E1B900BF25
:1084F000182B0020083300207D32002037B5057886
:10850000012D0DD0022D30D075B91F491F48FFF73E
:10851000A4FD002834D103B0BDE83040FFF7DABF36
:10852000037A1BB9FFF7C2FF03B030BD4368184C94
:1085300019782046FFF77FFD80B18DF8005001903B
:10854000144B68461B689847A168E368A2885B1AC9
:108550009A42E7D2104B01221A70E5E7A268E3685D
:108560009A42F1D08DF80000EAE7C3688DF8005018
:108570000193FFF79BFF074B68461B689847D3E7BB
:1085800003238DF80030F6E77D3200206C320020A6
:10859000583200205432002068320020F0B51F46C7
:1085A000234B89B004461A600D4600293DD08A88C5
:1085B00020480968FFF730FD002834D1AA89A9684E
:1085C0001D48FFF729FD00282DD11C4E0FCE6D460A
:1085D0000FC596E80F0085E80F0063690693237CBA
:1085E000174A18488DF81C70003B18BF01238DF8FE
:1085F0001430637C002B14BF0E2300238DF815303C
:10860000E3680293A3680393236801936946636850
:10861000009301F09DFB30B90B4B187023680133B8
:1086200001D0FFF743FF09B0F0BD0720FBE700BF13
:1086300054320020583200206C32002070E10200D9
:10864000FD840200182B00206832002070B5084D10
:10865000014608482E78FFF700FD044636B1002396
:108660002B70FFF723FF08B1FFF792FC204670BD87
:10867000683200205832002010B501460E48FFF73E
:10868000DAFC0446A8B90D480D4A0378D35C63B1FF
:10869000043002F057FB60B90A490748FFF7DDFCD8
:1086A00038B9BDE81040FFF715BF0C3002F0F4F800
:1086B000F1E7204610BD00BF6C320020182B0020CF
:1086C000083300207D32002070B5EFF3108672B6BB
:1086D0000C4A946801239CB993600B4B0B4DD3F863
:1086E000801029401160C3F88050D3F88410516085
:1086F0004FF0FF32C3F88420047006B962B670BD33
:108700000370FAE78032002000E100E0FC06FFBDC4
:10871000084B9A6810B55AB150B9EFF3108172B690
:10872000054A1C6814605C685460986001B962B6C0
:1087300010BD00BF8032002000E100E0435882B04D
:108740003BB10023435043580193019B012002B0E9
:1087500070471846FBE70000F8B5204B4479204EDF
:1087600043F824201F4A204B06EBC4049B1A2279AD
:10877000DB081B0432B143F002001C49FFF724F967
:108780000820F8BD02680C88C2F8084590F904502A
:108790008A7804795201002DD2B219DB14494F199D
:1087A00087F8002301226D0904F01F0402FA04F483
:1087B00041F82540427906EBC201012446F8320017
:1087C0000C7143F003000B49FFF7FEF80020D8E7D7
:1087D000094904F00F040A55ECE700BF9432002069
:1087E0008C3200206CDF0200BCDF020090E102004E
:1087F00000E100E0B2E1020014ED00E003680122B4
:108800001A607047036801225A60704773B501F11E
:108810005005AD000068ADB24FF480348C400026A6
:10882000C0F80843C0F84843465101F5A8714559BE
:10883000019522F07F42019D40F82120C0F8444379
:108840000BB1C0F8044302B070BD00002DE9F74F32
:108850000D4622F07F4402684FF4803705F1500640
:108860008F408046B60002EB8500C2F84873B6B26E
:10887000C2F80873D2F8041599464FF0000BD0F8EF
:108880004035C0F8401542F806B05B1A9259009284
:1088900023F07F43012B009A4FEA850A0CD1264B27
:1088A0004FF4806043F001039847D8F8003043F854
:1088B00006B09B590193019BD8F80010D1F80465CC
:1088C000C1F84473A31B23F07F43012B1CD11A4B27
:1088D00005F5A875013443F0010341F825404FF434
:1088E00080609847D8F80030D3F804359E4209D10B
:1088F000D8F800300020C3F84473C3F8047303B001
:10890000BDE8F08F0D20FAE78A44C9F1FF13CAF8D9
:108910004045D1F80405221A013A22F07F4203F5BE
:108920007F439342EED3002AE2D10134CAF8404596
:10893000D1F804359842DAE7D0E102000368022258
:10894000C3F8442309B1C3F80423704700684FF407
:108950008271FFF7F3BE4FF4803303FA01F103682D
:10896000C3F84813C3F808137047503189000068F2
:1089700089B2FFF7E3BE0368D3F80405704700002F
:1089800090F90430002B09DB5A09012103F01F0381
:1089900001FA03F34032024941F82230704700BF28
:1089A00000E100E0024B034A1B681068184700BF53
:1089B000943200208C32002010B561B1B2FBF3F488
:1089C00003FB1424A4B244B9C0E90014846082817A
:1089D000C381204610BD0E20FCE70920FAE737B519
:1089E00050E8013F9DB2C48925448489A54228BF2F
:1089F0002D1B0489A54202BFBFF32F8F002207E081
:108A0000C5EA030540E80154002CE9D14FF001020A
:108A10008DF803200193019A0A609DF8031001F07C
:108A2000FF0321B1006810FA82F003B030BD184690
:108A3000FBE70A884B889A4209D150E8012FC2EA25
:108A4000024240E80123002BF7D1012070470020AB
:108A5000704737B550E8023F1FFAA3F5C488A54216
:108A600002BFBFF32F8F00220DE0C4892544848903
:108A7000A54228BF2D1BC3EA054540E80254002C3F
:108A8000E8D14FF001028DF803200193019A0A60AA
:108A90009DF8031001F0FF0321B1006800EB1240C4
:108AA00003B030BD1846FBE70A884B889A4209D1CB
:108AB00050E8022FC2EA224240E80223002BF7D1FD
:108AC000012070470020704701F01F024B0901216F
:108AD000914000EB830000F01EB801F01F0301225B
:108AE0009A404B0900EB8300D14300F02CB84B09AE
:108AF00001F01F0150F82300C84000F0010070474A
:108B000010B5034653E8000F0A4643E8002494F0EA
:108B1000000FF7D110BD10B5034653E8002F42EA0D
:108B2000010043E8000494F0000FF6D110BD10B529
:108B3000034653E8000F00EA010243E8002494F0E2
:108B4000000FF6D110BD10B5034653E8002F02EA1E
:108B5000010043E8000494F0000FF6D110BD10B5F9
:108B6000034653E8002F02EB010043E8000494F0B1
:108B7000000FF6D110BD10B5034653E8002FA2EB4D
:108B8000010043E8000494F0000FF6D110BD01216C
:108B9000FFF7C1BF0021FFF7CABF10B590B1D0E900
:108BA000012301689B1ADBB20A60013BDBB2FF2B99
:108BB000026802D10020107110BD11684C1C1460B5
:108BC0000B70F2E70E20F7E737B5054600240DF1EC
:108BD00007008DF80740FFF777FD2A686B6811687A
:108BE00099420ED9481E106011F8013CEC68298AA0
:108BF00001FB0344AB6811791B1ADBB2994238BF01
:108C000013719DF80700FFF783FD204603B030BDC8
:108C100037B5054600230DF107000C468DF80730E7
:108C2000FFF752FD2A681368591C1160E968641A3D
:108C3000298AB4FBF1F41C709DF80700FFF768FD6A
:108C400003B030BD826810B504462AB1436901689B
:108C5000006998470023A36010BD0EB403B50399C3
:108C600021B104AB01AA019300F076F802B05DF8DF
:108C700004EB03B070470A2938B504460D4602D10B
:108C80000D21FFF7F8FFA3682268591CA160D55495
:108C9000D4E901329A4204D32046BDE83840FFF7B8
:108CA000D1BF38BD2DE9F84F9846DDE90A43154696
:108CB00082460F460A464FF00109AA420FD2C1452B
:108CC00038BFC14613F0010B01D16CB90024012655
:108CD000B8F1010F1BD908F1FF386E43F8E709F12D
:108CE0000109B2FBF5F2E8E79B070ED5B8F1000FDA
:108CF0000CBF30262026A145E9D2013C3146504622
:108D0000FFF7B9FF002CF6D1E0E72026F3E7B7FB29
:108D1000F6F39D42E1D9DFF83C80B7FBF6F350460D
:108D200018F8031006FB1377FFF7A5FF3346AB4295
:108D3000B6FBF5F6F1D2BBF1000F02D00CB1A145A4
:108D400001D3BDE8F88F20215046013CFFF793FF87
:108D5000F4E700BF96E602002DE9F74F05461746F7
:108D60008846002900F03E8118F8011B49B92B7B89
:108D7000002B00F03781284603B0BDE8F04FFFF725
:108D800061BF252940F0B780002698F800302D2BD0
:108D9000424608F1010823D0302B24D02B2B25D0BC
:108DA00000242A2B02F1010123D13B681A1D1B6804
:108DB0003A601C440A4613782E2B26D101324FF01C
:108DC000000A104610F8011BA1F1300CBCF1090F8C
:108DD0001DD80A2303FB0A13A3F1300A0246F0E769
:108DE00046F00106D1E746F00206CEE746F004065B
:108DF000CBE711F8013CA3F130000928DBD80A22A7
:108E000002FB0434303C0A46CBE74FF0000A12F86C
:108E1000011B01F0FB0068289046F8D0782909D89A
:108E20006F290CD8632962D022D8252963D058290C
:108E300000F0888098F80030002B95D197E77039C2
:108E40000829F7D801A353F821F000BFBF8F020013
:108E5000358E0200358E0200558F0200358E0200DD
:108E6000338F0200358E0200358E0200458F0200DE
:108E7000642901D06929DDD13A68D2F80090111D2A
:108E800089EAE9723960A2EBE9724FF0010B092A15
:108E900035DCD34538BFD3462CB1B9F1000F01DB27
:108EA000720700D5013CB30702D5BAF1000F03D019
:108EB000F00701D44CBB0024B9F1000F2DDAC9F141
:108EC00000092D212846FFF7D6FE06F00302022AEC
:108ED00004D1BAF1000F01D11CBB0024CDE900463A
:108EE00053460A2249462846FFF7DCFEA2E73B68C4
:108EF0001A1D19783A602846FFF7BDFE9AE70A2343
:108F00000BF1010BB2FBF3F2C1E7A345D4D2202150
:108F10002846013CFFF7AFFECCE77107D5D52B21E2
:108F2000D0E7A345DAD230212846013CFFF7A3FE63
:108F3000D2E73968CDE900460A1D3A6053460A2255
:108F40000968D0E739680A1D3A60CDE90046534602
:108F50001022F5E73B681A1D3A6016F00106D3F8B7
:108F6000009024D1B9F1000F03D0484604F092FCE0
:108F70000646B4421DD809F1FF3919F8011F00292E
:108F80003FF458AF2846FFF776FEF6E7284601364D
:108F9000FFF771FE19F806100029F7D1A642BFF4B9
:108FA00049AF20212846013CFFF765FEF6E7002681
:108FB000F0E720212846013CFFF75DFED9E73B683A
:108FC0001A1D3A60302128461C68FFF754FE7821AC
:108FD0002846FFF750FE00220823CDE90032214643
:108FE000102280E703B0BDE8F08F00BF2DE9F84FF5
:108FF000B0F806A04579D2F800B09DF828900AFB99
:1090000005F5043D88460BEB0301A94203F1040476
:1090100088BFA5EB030BB4FBFAF607460AFB164420
:10902000C2F800B04EB9AAEB04055D4528BF5D4605
:10903000BBF1000F04D1BDE8F88F3F68013EF1E7B6
:10904000043408EB06003C442A46B9F1000F0DD069
:109050002146ABEB050B04F09FFBDA452E443F683D
:1090600055464FF0000428BF5D46E1E70146204623
:10907000EFE7FFF792BDF8B546790146721E054647
:10908000002393422D6803D30024A64202D8F8BDE2
:109090000133F6E70F682846FFF7BAFD0134394679
:1090A000F3E72DE9F843068ACD1C0746FFF78CFD50
:1090B000043E35440446B5FBF6F5F0B14FF4807339
:1090C000EDB28380C680013D076081464FF0000805
:1090D000A84512D23846FFF777FD064648B16379B6
:1090E0000133637108F10108C9F800000760814687
:1090F000EEE72046FFF7BFFF34462046BDE8F88381
:1091000001210430FFF72BBD10B5012104460430C6
:10911000FFF731FDC0B220B92046BDE81040FFF78F
:10912000AABF10BD1FB503920022009203AAFFF749
:109130005DFF05B05DF804FB1FB5039201220092AC
:1091400003AAFFF753FF05B05DF804FB064B10B50B
:1091500000241C70054B1C60BFF35F8F0449054859
:1091600000F013F8204610BDA0320020A4320020E9
:10917000B0E6020098320020836800225A60C3E9FA
:1091800004229A60DA601A6070470B684A6843608C
:10919000934208BF0023016008BF436070474368E3
:1091A00043B10268916852680B449342436004BF24
:1091B00000234360704770B5446806460D4620683A
:1091C00018B1B3682946984718B923682B60256001
:1091D00070BD2468F3E74368186808B102681A6034
:1091E00070474368186870474368186800B970474B
:1091F000884203D102681A60012070470346006864
:10920000F4E7000010B50D49A1F59472914201D820
:1092100000200FE08C1AE30F03EBE4035B1002EB7A
:10922000C30452F83330834205D802D204F1080255
:10923000ECE7606810BD2146E8E700BFBCEB020028
:1092400008B5FFF7DFFF024B002808BF184608BD2E
:109250007FEA020010B50446C0B2FFF70DFA2046BF
:1092600010BD2DE9F8430468054694F8200002F08B
:1092700079F804F11807FF264FF0FF394FF0000886
:10928000207AFF2802D002F06DF82672607AFF285B
:1092900002D002F067F866722068431C03D000F029
:1092A000F3FEC4F8009084F80B800C34BC42E7D184
:1092B0006868BDE8F84302F071B900002DE9F0419B
:1092C000134EDFF850800C460025012706EB4106BF
:1092D000735D5BB1735D013BDBB27355735D93B935
:1092E00058F824301B682046DB6998474DB167B1B8
:1092F000084B53F824300221BDE8F041586802F0D1
:10930000C0B90125E4E70027F0E7BDE8F08100BF20
:10931000C1320020A832002010B540680B49027904
:109320008C5CFF2CE3B20DD0FE2B0DD0006803F552
:10933000A87350F82330064850F82200984203D111
:10934000FF238B54002010BD0120FCE7BC3200201D
:10935000CC3200202DE9F74F0368904693F8212086
:10936000022A04460F4640F098800C264E439A1974
:109370005268904509D1DB691BB9002003B0BDE8F4
:10938000F08F426810799847F7E7FFF7C5FF8346EB
:10939000002840F084806368DFF810911B79FE227A
:1093A00009F80320256895F8200002F037F8B8F195
:1093B000000F1FD12E44707A02F030F8307A02F09C
:1093C00015F863681B79FF2209F803200C2303FBBF
:1093D00007552368C5F80480DB69002BCDD063688E
:1093E0001A79304B03EB42030221D955606802F031
:1093F00035F9C2E7A969884507D32E441FFA81F8D9
:10940000307A02F00BF8707AD9E707EB47034FEA9E
:10941000830A05EB830360685A68914238D090450F
:1094200036D25B46032102F0EBF8636895F820B072
:10943000196855F80A002E4401F5A671B37A019116
:109440001BB300F089FE02460199584601F0AEFFB9
:1094500095F8200001F0CAFF63681B7909F80370D2
:1094600063681A79104B43F822800C2606FB0756D6
:10947000606800234246394602F0C2F8307A01F0B3
:10948000B5FF707A01F0B2FFA0E700F051FEDAE715
:109490000379FF2209F80320E7E708206EE711208F
:1094A0006CE700BFC1320020CC320020BC3200206B
:1094B00003681B8B5A436423B2FBF3F292B2FFF7AB
:1094C00049BF00002DE9F04F2DED028B89B0044615
:1094D00003928A46002900F04481056895F82130FE
:1094E000002B40F0408101F0FFFE08B1852846D1F5
:1094F00000F050FD002839D04FF070439B4AD3F85C
:10950000E83F03F0F003303B18BF01231370FF2343
:1095100085F820304FF6FF7300222B814FF0FF3388
:10952000EA722B60EA75AB82EB6005F1200001F076
:10953000E5FE074600BB0AF10803804604935FFA84
:1095400088F308EE103A5AF828305A1C00F0998037
:10955000266896F82110B9B108262046FFF781FE4B
:10956000304609B0BDEC028BBDE8F08F00F0CEFCB8
:109570000028C1D00326F3E72046FFF772FE042639
:10958000EEE74FF00108DAE7049A05934FF00C0973
:1095900009FB08F912F808B006EB090218465160F9
:1095A00082F80AB003228DF81820BBFA8BF2520918
:1095B0008DF8192006A901228DF81A2000F0F4FC7C
:1095C000C0B9059B46F809300122BBF1000F00F03D
:1095D000B1801F2B86BF664903F01F034FF0A041E7
:1095E00002FA03F3C1F80C3509F10800304401F028
:1095F00085FE08B10426B0E709F10900304401F006
:109600007DFE0028F6D10C2303FB08630593187A2E
:1096100001F004FF059B587A01F000FF56F809009D
:10962000BBF1000F00F0928000F096FD834656F8E3
:10963000090000F07DFD626811680C2202FB0866DB
:109640004FEA880303F5A073194481465A46307ADD
:1096500001F0ACFE6368707A19684A4601F5A4719E
:1096600001F0A4FE0123F3726368424A1B7902EB06
:109670004303002203F8082018EE101A2046FFF7D3
:1096800069FEB8F1000F3FF47CAFDAF81030B3F5A3
:10969000805F01D3092F61D1344B1B7813B1012FA7
:1096A00038BF012700238DF8193060688DF81870D5
:1096B0004FF4E063ADF81A3003792F4A079306A9F7
:1096C00001F0EAFE064600287FF447AF6068DAF84A
:1096D00010200368D3F81075FFB24FEA127CC7F16F
:1096E000200112010CFA01F1A7F1200322FA07F779
:1096F0002CFA03F30F431F434FF00108AF6101F051
:109700007BFF04233A466068CDF80080022101F017
:1097100090FF0221606801F0B4FF039BEB61636876
:10972000164A1B7985F8218042F82340144AFF210C
:10973000D15415E71F2B86BF0D4903F01F034FF0CF
:10974000A04102FA03F3C1F808354DE700F0F0FC40
:10975000834656F8090000F0FFFC6CE75B08013710
:1097600095E70B26FCE60826FAE600BFE03200206B
:1097700000030050C1320020BD920200A832002038
:10978000BC3200202DE9F0470768DFF8689000261A
:1097900004463D46B0464FF00C0A63681B7909EB5E
:1097A000430303F80680EB7A73B1236828680AFB49
:1097B0000633997AB1FA81F1490900F0D5FC28689D
:1097C00000F098FCC5F804800C357EB16368084A47
:1097D0001B79FF21D154606801F00EFF606801F031
:1097E000C3FE022387F82130BDE8F0870126D4E7C5
:1097F000BC320020C13200204FF08053D3F830013A
:10980000A0F1080358425841704700004FF08053C0
:10981000D3F83021082A06D1D3F83431052B02D8E9
:10982000024AD05C70470020704700BFC2EB0200C4
:10983000024AD2F80034002BFBD0704700E0014010
:1098400010B5FFF7D9FF40B14FF080430022C3F8B5
:109850000C21C3F81021C3F83825FFF7CDFF0028ED
:1098600046D04FF08052654BD2F80414C3F820154F
:10987000D2F80814C3F82415D2F80C14C3F828152C
:10988000D2F81014C3F82C15D2F81414C3F83015FC
:10989000D2F81814C3F83415D2F81C14C3F84015C4
:1098A000D2F82014C3F84415D2F82414C3F848158C
:1098B000D2F82814C3F84C15D2F82C14C3F850155C
:1098C000D2F83014C3F85415D2F83414C3F8601524
:1098D000D2F83814C3F86415D2F83C14C3F86815EC
:1098E000D2F84014C3F86C15D2F84424C3F870259C
:1098F000FFF78CFF18B1424B424AC3F88C26FFF7A2
:1099000085FF18B1404BFB22C3F81825FFF77EFFF7
:1099100070B14FF080414FF08053D1F8E42ED3F86E
:10992000583222F00F0203F00F031343C1F8E43E54
:10993000FFF76CFF20B1354B4FF40072C3F840269F
:10994000FFF75AFF48B14FF08043D3F80024D20705
:1099500044BF6FF00102C3F800242D4AD2F88830CA
:1099600043F47003C2F88830BFF34F8FBFF36F8F9B
:109970004FF08053D3F83021082A0ED1D3F8343178
:10998000052B02D8234AD35C3BB14FF01023D3F808
:1099900008224FF08043C3F858254FF01023D3F826
:1099A0000022002A03DBD3F80432002B22DA1A4902
:1099B00001234FF01020C1F804351224FFF738FFBF
:1099C000C0F80042FFF734FFC0F80442FFF730FF51
:1099D0000023C1F80435FFF72BFFBFF34F8F0C496D
:1099E0000E4BCA6802F4E0621343CB60BFF34F8FA3
:1099F00000BFFDE70A4B0B4A1A6010BD00C00040D3
:109A0000005000404881030000F0004000900240F8
:109A100000ED00E0BCEB020000E001400400FA05AC
:109A20002C2B00200090D003074B1B5C1F2B8ABF00
:109A3000064A4FF0A04203F01F03D2F80405D840B5
:109A4000C04300F001007047CCEB0200000300505F
:109A5000074B1B5C1F2B86BF064903F01F034FF00B
:109A6000A041012202FA03F3C1F80C35704700BF90
:109A7000CCEB020000030050074B1B5C1F2B86BF82
:109A8000064903F01F034FF0A041012202FA03F33D
:109A9000C1F80835704700BFCCEB0200000300504E
:109AA00008B50020FFF7E8FF0120FFF7E5FF0220DF
:109AB000FFF7E2FFBDE808400320FFF7DDBF08B570
:109AC0000020FFF7C5FF0120FFF7C2FF0220FFF7CC
:109AD000BFFFBDE808400320FFF7BABF0A4B185C80
:109AE0001F288ABF094B4FF0A04300F01F00D3F896
:109AF00004250121814021EA02000A40C3F808053B
:109B0000C3F80C25704700BFCCEB020000030050E7
:109B1000074B1B5C1F2B8ABF064A4FF0A04203F085
:109B20001F03D2F81005D840C04300F00100704771
:109B3000C8EB0200000300500B2809D00C2809D004
:109B4000182809D019280CBF03204FF0FF307047A8
:109B5000002070470120704702207047014B185CBD
:109B6000704700BFC8EB0200C20710B504460CD511
:109B70004FF0A0430322C3F83427C3F83827C3F8B3
:109B80003C27C3F84027FFF78BFFA3070AD54FF008
:109B9000A0430C22C3F82C27C3F83027C3F8602752
:109BA000C3F8642710BD000038B5074C051E04F14A
:109BB000080318BF1C4623682BB11A6822605B6833
:109BC00028469847F7E738BDEC32002020B9054B0E
:109BD00001225A70FFF7E8BF012802D1014A9070B4
:109BE000F8E77047E432002020B9034B01225A7095
:109BF000FFF7DABF704700BFE432002038B50E4CE3
:109C00002378B3B90D486360A3602361E36000F07B
:109C1000E7F8054603F0AAFA08B900F0EDF80123C9
:109C20002370074BD3F800340BB10123A3702846EF
:109C300038BD8525F5E700BFE4320020CD9B02004A
:109C40000000014037B50D4C00230DF107008DF8E1
:109C50000730FEF739FDE368013BE360E36833B9A1
:109C6000074BD3F8005415B900F0D8F8A5709DF84B
:109C70000700FEF74DFD03B030BD00BFE432002009
:109C800000000140012813B50CD0032820D038B9BA
:109C9000134B0122C3F88020BFF34F8FBFF36F8FA8
:109CA00002B010BD0F4C00230DF107008DF80730F6
:109CB000FEF70AFD23780BB9FFF7A0FFE3689DF8D4
:109CC00007000133E3600123A370FEF721FDE7E7FE
:109CD00000F092F802B0BDE81040FFF7B3BF00BF3C
:109CE00000E100E0E43200201FB503788DF8003079
:109CF0004368019383688DF80830C368054A03936D
:109D0000054B684653F8213052F82110984705B0AA
:109D10005DF804FBF8320020003300201FB5037803
:109D20008DF800304368019383688DF80830C3686C
:109D3000054A0393054B684653F8213052F8211029
:109D4000984705B05DF804FBF8320020003300208E
:109D5000F0B5194B90F800C0DFF86CE043F82C2008
:109D6000164B16460A6943F82C204B7F0EF80C3030
:109D70000C4607460FCC89B06D460FC594E80F001E
:109D800085E80F003B78CDF810C01EF803304BB1CA
:109D9000002E0B4A694608BF3246381D00F0F6FE19
:109DA00009B0F0BD002E074A694608BF324607F1E8
:109DB0000C0000F0A1FCF3E700330020F832002093
:109DC000E99C02001D9D02000833002000F1804044
:109DD000002382B0036003680193019B02B07047C7
:109DE000044A137923B90121106091801846704705
:109DF000852070470C330020074B1A68D20704D423
:109E0000C02283F8002301221A604FF08043012210
:109E1000C3F81825704700BF00E100E04FF0804212
:109E200008B50223C2F808334FF48270FFF7CEFF63
:109E30000123D360D2F81834DB03FBD408BD000043
:109E40004FF0804110B5D1F8003163B14FF480700C
:109E5000FFF7BCFF0D4B58790122C1F8082310B958
:109E60005A711B6898474FF08042D2F8043163B1B1
:109E70004FF48270FFF7AAFF0223C2F80833034BA6
:109E8000BDE810401B680120184710BD0C330020AE
:109E900000F1804000F5C040002382B003600368F9
:109EA0000193019B02B0704703681F2B83BF03F02F
:109EB0001F03036001484FF0A040704700030050AB
:109EC00007B5019001A8FFF7EFFF019B00EB8300AE
:109ED000D0F8003723F44033C0F80037D0F800370B
:109EE00043EA0141C0F8001703B05DF804FB00002D
:109EF000054B4FF0FF32072843F8202084BFC018DD
:109F000080F85820704700BF1433002038B51D4931
:109F100091F86A30A3BB4FF6FF70FF245A09012A5B
:109F20000CBF02464FF0FF3203F01F05EA40D20794
:109F300048BFCA1803F1010348BF82F83040302BF4
:109F4000ECD10024E0B20134FFF7D2FF0C2CF9D1A0
:109F50000D4B00224A669A800C4BC02083F8060302
:109F6000402018604FF4BE70FFF792FF084B4FF08F
:109F70000040C3F80403012381F86A30104638BD5D
:109F80000820FCE7143300207833002000E100E0D3
:109F900000600040034B93F86A00003818BF0120AE
:109FA000704700BF1433002037B5354B1A180446EC
:109FB00092F93000013061D18878002852D01846DB
:109FC000002250F8045B013546D1181980F8302082
:109FD000002043F82200920002F1804202F5C042C4
:109FE0000B78D2F81055487825F499151B04000514
:109FF00025F4F85500F4801003F44033C2F81055EE
:10A0000003432002D2F8105500F47C5003432B4345
:10A01000C2F810354A780194012A01A826D1FFF729
:10A0200043FF019B9A40C0F8082501A80194FFF75F
:10A030003BFF019B134903F5E073032240F8232003
:10A0400024FA02F2012304F0070003FA00F08B5C0B
:10A0500018438854002003E00132082AB1D10420BB
:10A0600003B030BDFE2382F83030D3E7FFF71CFF8A
:10A07000019A01239340C0F80C35D6E70820EFE79A
:10A08000143300207833002037B5174C25180146CB
:10A0900095F83000072809D8FFF72AFF95F93030E6
:10A0A000124A03F5A273002042F823000C44FF2358
:10A0B00084F830300E4DCC0801F0070301229A409D
:10A0C0002B5D13420DD001A80191FFF7EDFE019B1E
:10A0D00003F5E073022140F823102B5D23EA02020E
:10A0E0002A5503B030BD00BF14330020006000408B
:10A0F00078330020074B184490F930309B0003F16F
:10A10000804303F5C043D3F8102542F00302C3F89F
:10A110001025704714330020044B184490F9300088
:10A120000C30800000F0FC00704700BF14330020AA
:10A1300008B5FFF7F1FF00F1804000F5C04008BD11
:10A14000044B184490F930001830800000F0FC00F7
:10A15000704700BF1433002008B5FFF7F1FF00F18E
:10A16000804000F5C04008BD0A4B1844003990F902
:10A1700030304FEA830303F1804303F5C04318BF37
:10A180000121D3F8102522F4801242EA0152C3F8CB
:10A190001025704714330020F7B53D4F3B18044697
:10A1A00093F93030002B71DA8B78C3F34003002B26
:10A1B0000BBF082500250C200820854202D1042071
:10A1C00003B0F0BD57F82560013647D138196EB29B
:10A1D00047F8252080F8306013B97B1983F8584080
:10A1E0008B785A071AD4D8073AD501A80194FFF7FB
:10A1F0005BFE019B00EB8300D0F8003723F00203E5
:10A20000C0F800372348E20804F0070C012303FAE2
:10A210000CF310F802C043EA0C03835488780B78DF
:10A2200010F0020028D0AD0005F1804505F5C045CD
:10A230002402D5F8102522F44F3222F44072C5F8DA
:10A2400010251B04D5F8102504F47C5403F4403386
:10A250001C431443C5F810450020B1E70135ACE7B5
:10A2600001A84A780194FFF71FFE019B03F5E073F4
:10A27000920040F82320C5E7083E47FA86F797F892
:10A28000604044EA831387F8603099E7082097E735
:10A29000143300207833002073B5244D2E18044663
:10A2A00096F93020072A1DDD083A45FA82F595F81F
:10A2B00060309B09032B10D1019001A8FFF7F4FD3A
:10A2C000019BD0F81015D94001F001010231204660
:10A2D00002B0BDE87040FFF7F3BD012B0CBF0221B7
:10A2E0000321F4E7D3B2072B1DD8930003F1804379
:10A2F00003F5C043D3F8100540F00100C3F8100582
:10A3000002F1400040B2800080B2FFF7C1FD51B1C0
:10A3100096F9303055F823302BB1012303FA02F2BD
:10A32000034BC3F8042302B070BD00BF14330020F8
:10A330000060004007B5019001A8FFF7B5FD019B43
:10A34000D0F81005D84000F0010003B05DF804FB20
:10A350002DE9FF470024CDE90244584D4FF48072A7
:10A36000012102F1804303F5C04390B21B68012B29
:10A3700006D1D5F804330B4202D0FFF789FD0C4318
:10A380000432B2F5907F4FEA4101EAD14B4BD3F84A
:10A390007C31012B11D14FF4BE70FFF779FD4FF0E6
:10A3A000A04344F00044D3F820250292C3F82025AE
:10A3B000D3F820280392C3F82028E3B2D3B1404F4A
:10A3C00000250126344210D0AB0003F1804303F591
:10A3D000C043D3F81005D3F8101557F8253023B132
:10A3E000C1F30141C0F3052098470135082D4FEA1C
:10A3F0004606E7D1002C59DA314D324C324E4FF03F
:10A400000008012716F9013B5A1C3CD0C3F3C201D6
:10A41000103169445FFA83F911F8081C03F03F0218
:10A4200003F0070307FA03F319422CD001A80192A5
:10A43000FFF73AFD019B03F5E07350F82330C3F3B7
:10A44000014ABAF1020F0CBF032102211046FFF7A7
:10A4500037FD01A80192FFF727FD019B07FA03F3DF
:10A46000C0F82035AB1893F9303055F8233053B18C
:10A470004FEA9911032904D0BAF1020F19D1012929
:10A4800001D11046984708F10108B8F1040FB9D17D
:10A490004FF0A043D3F820250292C3F82025D4F82A
:10A4A00020350393C4F820351343A7D104B0BDE889
:10A4B000F087BAF1030FE6D10229E1E7006000401E
:10A4C000143300200003005074330020014B1B683C
:10A4D000184700BF803300200E4B984237B50C461A
:10A4E00002D0002003B030BD00230DF107008DF82D
:10A4F0000730FEF7E9F8084B1D7915B901221C60F9
:10A500001A719DF80700FEF703F9002DE9D011201C
:10A51000E8E700BF002000408033002000234350C4
:10A5200082B043580193019B02B070470A4610B5B0
:10A530004FF48E71FFF7F2FF136A9168C95C136ADA
:10A5400001331362C0F81C1510BD024608B500683F
:10A550004FF49271FFF7E2FF10684FF48471FFF738
:10A56000DDFF136801221A6008BD8B690A4610B529
:10A570004FF4847123B9FFF7D1FFD0F8183510BD1F
:10A58000FFF7CCFF536AD168D0F81805C854536A56
:10A5900001335362F3E700001FB501238DF800304B
:10A5A000044BCDE90110D3E900126846904705B08D
:10A5B0005DF804FB8833002030B54D4DD5F80433E9
:10A5C0009A0585B051D5D5F82431002B4DD04FF4E4
:10A5D00092712846FFF7A2FF4FF40173C5F80833C4
:10A5E000444B93F829200AB901226A6040490222AB
:10A5F0008DF80020D1F88024C1F8802403929A6954
:10A600000292DA6801920022C3E906226846D3E981
:10A61000001290473648D0F81C315BB1354A516979
:10A62000136A99424DD992F82830002B49D111462E
:10A63000FFF77CFF2E48D0F84431002B56D04FF462
:10A64000A271FFF76BFF2B4B93F829200AB101226F
:10A6500002609A69002A49D0586AD96800229A6132
:10A6600005B0BDE83040FFF797BFD5F804335B076E
:10A67000D0D5D5F80831002BCCD01E4C1C48214633
:10A68000FFF773FF636AA2699A42C3D1E369E16885
:10A690004BB1A3612369E3600023606AE3616362F5
:10A6A000FFF77AFFB6E794F829300BB901236B6006
:10A6B0000F4B4FF40172C3F808230023606AA361B3
:10A6C000EEE70B484FF48E71FFF728FF5369002B1C
:10A6D000B0D051690291002391688DF8003001914A
:10A6E00053616846D2E900139847A3E705B030BD2F
:10A6F00000200040883300202DE9F843604D90F899
:10A7000004802C2303FB0853064693F82A300C469A
:10A710009146002B40F0AF805A490068FFF7DCFEFD
:10A720000746002840F0A9802268531C10D01F2A39
:10A7300087BF554902F01F0313464FF0A041012087
:10A74000984003F5E073C1F80805032041F82300A1
:10A750006168481C0DD01F298BBF01F01F030B46F9
:10A7600049484FF0A04003F5E0734FF0000C40F86B
:10A7700023C03068A369C0F8243594F814C0637D01
:10A78000BCF1010F4CEA0303C0F86C35C0F8141596
:10A79000C0F80C252BD1A368591C0DD01F2B8BBFE3
:10A7A00003F01F021A4638494FF0A04102F5E0724B
:10A7B0004FF0000C41F822C0E1684A1C13D01F2959
:10A7C00087BF314A01F01F0C8C464FF0A0424FF07A
:10A7D000010E0EFA0CFE0CF5E07CC2F808E54FF015
:10A7E000030E42F82CE0C0F80815C0F810352C22F2
:10A7F00002FB08F2AB18C3F804902369AB50B9F11F
:10A80000000F20D04FF48E71247FFFF787FE4FF4A6
:10A81000A2713068FFF782FE32681C4BC2F8043325
:10A82000130B42F307326101002AC9B21EDB18483C
:10A83000841884F800130121520903F01F0301FA60
:10A8400003F340F8223033680422C3F800252C2398
:10A8500003FB08530022C3E9062283F829205A612A
:10A86000012283F82A203846BDE8F883094A03F01C
:10A870000F03D154E7E70827F5E71127F3E700BFF7
:10A8800088330020B9A502000003005080000200B8
:10A8900000E100E014ED00E00279044B2C2101FB03
:10A8A00002335869003818BF0120704788330020F0
:10A8B0002DE9F84F064690F8048089469246FFF746
:10A8C000EBFF044600283CD1204F2C2508FB057BDC
:10A8D0004FF48E71CBF814A0CBF80890CBF8200081
:10A8E0008BF828003068FFF719FE30680123836079
:10A8F0005946FFF71BFEDBF804305D461BBB306892
:10A90000DBF814402B6A9C4211D83368D3F81C2121
:10A91000002AFBD00122DA6000202C2303FB0877F9
:10A9200000237B61BDE8F88F95F828303BB9D0F85B
:10A930001C31002BF8D05946FFF7F8FDE2E70F2055
:10A94000EBE71120EEE72046ECE700BF883300205C
:10A950002DE9F0473A4D07792C2303FB07530646B0
:10A960005C6824B103684FF40170C3F808032C231A
:10A9700003FB0753986950B1D869002841D024B12E
:10A9800033684FF40172C3F80423112436E09A614E
:10A99000D9605862D8612C2303FB075393F8293000
:10A9A0001BB910B93046FFF7D0FD4FF02C0808FB5B
:10A9B000075A3068DAF80430002B37D14FF4A2710F
:10A9C000D046FFF7ABFD3068D0F82491D0F80831BD
:10A9D000D0F84441CBB914B9B9F1000FF3D02C230E
:10A9E00003FB07550023AB61B9F1000F24D12CBB49
:10A9F00095F8291033680122B1B11A602046BDE8EC
:10AA0000F0871961DA610120C5E7B9F1000FE6D1DD
:10AA1000002CE4D14146FFF7A8FDDAF82430DAF83B
:10AA200018209A42CFD8DAE75A60E7E74FF401736B
:10AA3000C0F804330024E1E70324DFE70F24DDE757
:10AA4000883300200023435082B043580193019B78
:10AA500002B070471FB501238DF80030044BCDE9DB
:10AA60000110D3E900126846904705B05DF804FB79
:10AA7000B43300207FB5434AD2F82461002E60D061
:10AA800010464FF49271FFF7DDFF02238DF800307E
:10AA9000D2F88034C2F880340393D2F83C35029364
:10AAA000394BDA6801920022C3E906226846D3E9ED
:10AAB000001290473348D0F8443173B14FF4A2717B
:10AAC000FFF7C0FF304B9A693AB10022C3E9062272
:10AAD000D968D0F83C05FFF7BDFF2A48D0F82031EF
:10AAE000ABB14FF49071FFF7ADFF0123C360264B6C
:10AAF0005A6962B1D0F84C150291002299688DF81C
:10AB0000002001915A616846D3E9001290471D4820
:10AB1000D0F858319BB14FF4AC71FFF793FF1A4B4B
:10AB20005A6962B1D0F84C150291002299688DF8EB
:10AB3000002001915A616846D3E90012904704B0A1
:10AB400070BDD2F81031002BB4D04FF4887110468C
:10AB5000FFF778FF0C4BD2F83C0599698842A9D1E0
:10AB6000DC69D96864B1D2F8005225F02005C2F83A
:10AB700000521A699C61DA60DE61FFF76BFF99E7AA
:10AB80009C61FAE700200040B43300202DE9F8432F
:10AB9000664E90F80480242303FB0863044693F870
:10ABA00020300D469146002B40F0BC806049006883
:10ABB000FFF792FC0746002840F0B68029684B1C3E
:10ABC00010D01F2987BF5B4A01F01F030B464FF0CF
:10ABD000A0420120984003F5E073C2F80805032065
:10ABE00042F823006A68501C0DD01F2A8BBF02F068
:10ABF0001F0313464F484FF0A04003F5E0734FF09A
:10AC0000000C40F823C02068AB69C0F8243595F8E3
:10AC100014C06B7DBCF1010F4CEA0303C0F86C3526
:10AC2000C0F80C15C0F814252BD1AB68591C0DD0F9
:10AC30001F2B8BBF03F01F021A463E494FF0A04165
:10AC400002F5E0724FF0000C41F822C0E9684A1C9E
:10AC500013D01F2987BF374A01F01F0C8C464FF0D5
:10AC6000A0424FF0010E0EFA0CFE0CF5E07CC2F88B
:10AC700008E54FF0030E42F82CE0C0F80815C0F8C4
:10AC80001035242202FB08F2B318C3F804902B6994
:10AC9000B350B9F1000F2FD04FF488712A7FFFF71E
:10ACA000D1FE20684FF49071FFF7CCFE20684FF47E
:10ACB0009271FFF7C7FE20684FF4A271FFF7C2FE42
:10ACC0004FF4AC712068FFF7BDFE23681A49C3F842
:10ACD0000413190B43F307335201002BD2B21CDBD0
:10ACE0001648C51885F8002301225B0901F01F01F1
:10ACF00002FA01F140F8231023680822C3F8002566
:10AD0000242303FB08660023C6E90633736101238D
:10AD100086F820303846BDE8F883094B01F00F0172
:10AD20005A54E9E70827F5E71127F3E7B433002081
:10AD300075AA0200000300501003420000E100E089
:10AD400014ED00E00279044B242101FB0233586921
:10AD5000003818BF01207047B433002001F0604371
:10AD6000B3F1005F2DE9F0470646884692463BD195
:10AD700090F80490FFF7E6FF0446002836D11D4FF7
:10AD80003068242505FB09754FF49071C5F814A0AF
:10AD9000C5F80880FFF756FE4FF4AC713068FFF736
:10ADA00051FE33686A69A968C3F84415C3F8482599
:10ADB00001229A606A68DAB9D3F82021D3F85801E1
:10ADC0001AB90028F8D00F2007E00028FBD1012293
:10ADD000DA60D3F85821002AFBD0242303FB09773B
:10ADE00000237B61BDE8F0871020FBE71120F9E725
:10ADF0002046F7E7B4330020F8B501F06043B3F123
:10AE0000005F04460F465ED10379304D242101FBDB
:10AE10000351496821B100684FF40476C0F8086313
:10AE2000242000FB03539E6956B1D869002839D00D
:10AE300021B123684FF40472C3F80423112030E0D9
:10AE40009A61DF60DE6120684FF48871FFF7FAFDD8
:10AE500020684FF4A271FFF7F5FD2368C3F834753D
:10AE6000C3F8382516BB01221A602479242202FB7C
:10AE7000045252680ABBD3F81011D3F84421D3F816
:10AE80002401114302D10028F5D00A46242303FBF4
:10AE900004550023984218BF03209A42AB6118BFA3
:10AEA0000F20F8BD1F61DA610126CCE7D3F800223C
:10AEB00042F02002C3F80022D7E74FF40472C3F82F
:10AEC00004230020EDE71020EBE700BFB43300209F
:10AED0007FB503788DF804304368029383688DF85A
:10AEE0000C30C36804930369064A8DF81430064B8E
:10AEF00001A853F8213052F82110984707B05DF8A7
:10AF000004FB00BFD8330020E8330020F0B505462D
:10AF1000174615F804CB124A42F82C70114A42F831
:10AF20002C30114B0C460FCB85B06E4686E80F00D7
:10AF30002368009323798DF8053063798DF8063006
:10AF4000A3680293002FA389084AADF80C3008BF0C
:10AF50003A4663463146284600F054F805B0F0BD45
:10AF6000E8330020D8330020F4EB0200D1AE020019
:10AF70001F2886BF054A00F01F004FF0A0420123A2
:10AF800003FA00F0C2F80C05704700BF0003005040
:10AF90001F2886BF054A00F01F004FF0A042012382
:10AFA00003FA00F0C2F80805704700BF0003005024
:10AFB000114B07B5D3F81821DAB110490022C3F8B4
:10AFC0001821C87FD3F818310193FF28019B03D0C3
:10AFD0008B7F5BB1FFF7CCFF00234B770B72D1E97E
:10AFE0000031074803B05DF804EB1847FFF7D0FFC6
:10AFF000F2E703B05DF804FB00300040F8330020B6
:10B00000003400202DE9F74F06796D4D01934FF084
:10B01000240909FB06F905EB090A93469AF81C2056
:10B0200080460C46002A40F0C780076865493846CC
:10B03000FFF752FA0146002840F0C08045F809B0F9
:10B04000019BCAF80430237B2078012B00F29D80FD
:10B05000FFF78EFF23781F2B86BF03F01F035A4A8A
:10B060004FF0A04203F5E073012042F8230094F86A
:10B070000190B9F1FF0F00F08B804846FFF778FF91
:10B08000B9F11F0F8BBF09F01F034B464E4A4FF01B
:10B09000A04203F5E073032042F82300A378FF2BBE
:10B0A00079D01F2B8BBF03F01F021A4646484FF082
:10B0B000A04002F5E0724FF0000C40F822C09A4622
:10B0C000242202FB065282F82030E078D077FF2855
:10B0D00016D02379002B61D0FFF74AFFE3781F2BAE
:10B0E00086BF03F01F03384A4FF0A04203F5E07318
:10B0F000032042F82300242303FB065322799A7786
:10B100002378C7F80835A368C7F80C95C7F810A5C9
:10B11000C7F82435637B227B003B18BF0123022A3A
:10B120003FD0032A40D0012A01D143F00203C7F8DF
:10B130005435A379C7F8C0350723C7F80035242351
:10B140007343EB58B3B1D8F80030627943F307305A
:10B1500052010028C3F30733D2B228DB1B4C271857
:10B1600087F800230122400903F01F0302FA03F3CA
:10B1700044F82030242303FB065500236B7701237A
:10B180002B77084603B0BDE8F08FFFF701FF61E7BA
:10B190004FF0FF3982E74FF0FF3A91E7FFF7F8FEF3
:10B1A0009CE743F00403C2E743F00603BFE7084807
:10B1B00003F00F03C254DDE70821E2E71121E0E7C5
:10B1C000F8330020B1AF02000003005000E100E0BE
:10B1D00014ED00E02DE9F3410779424E24237B432F
:10B1E0001446F2180D46517F8046002978D1F35855
:10B1F00023B114F0140F04BF0123537795E80F0017
:10B200004FF0240C0CFB076C0CF10C0E8EE80F00B9
:10B210009CF81F00FF2804D09CF81E30C3B1FFF734
:10B22000B7FE296821B101F06043B3F1005F06D198
:10B23000AA6882B102F06043B3F1005F0BD024230F
:10B2400003FB076600237377102002B0BDE8F0818E
:10B25000FFF78EFEE5E7D8F800306868C3F84415BC
:10B26000C3F84805E968C3F834250022C3F8381547
:10B27000C3F81821D3F818210192019A14F00102A1
:10B2800018BF0122C3F8502514F0020218BF012292
:10B29000C3F8402522075CBF01221A6124227A43A9
:10B2A000B25892B9D3F81821002AFBD0242303FB0B
:10B2B0000766F07FFF2803D0B47F1CB1FFF758FE6C
:10B2C0000020C2E7FFF764FEFAE714F004004FF035
:10B2D000400202D0C3F80823F2E7C3F80423B4E71E
:10B2E0001120B2E7F8330020034B187810B901227F
:10B2F0001A707047852070471C3400202DE9F74FE5
:10B300004FF00009154D164F06464FF0040AC84687
:10B310005FFA89FB01240DF1070004FA0BF48DF8A4
:10B320000780FDF7D1F92C4208D03B6814EA0302EC
:10B3300001BF23433B6086F800B092469DF80700AA
:10B34000FDF7E6F9BAF1000F03D0A54309F10109B1
:10B35000DED1504603B0BDE8F08F00BFFFFF010013
:10B3600020340020012337B503FA00F5C5F310039C
:10B37000ABB10C4B0024C3F808550DF107008DF854
:10B380000740FDF7A1F9084B186820EA050018608E
:10B390009DF80700FDF7BCF9204603B030BD07203B
:10B3A000FBE700BF00F001402034002010B5A1B140
:10B3B0009AB101238340C3F3100484B10A4C24687A
:10B3C00023420ED0C00000F1804000F5F830C0F8F4
:10B3D0001015C0F81425002010BD0E20FCE7072032
:10B3E000FAE70820F8E700BF20340020012202FA23
:10B3F00000F3580C400440B91BB1064A12681342CE
:10B4000005D0054AC2F80435704707207047082068
:10B41000704700BF2034002000F00140012202FAF2
:10B4200000F3580C400440B91BB1064A126813429D
:10B4300005D0054AC2F80835704707207047082034
:10B44000704700BF2034002000F001402DE9F74391
:10B45000002406460F4600F5A0754FF48038A1463B
:10B460002B688BB1D6F8043308FA04F21A420BD0D9
:10B47000C5F800902B680193019BA30003F5A0730E
:10B4800098B2D7E9003198470134042C05F104053E
:10B49000E6D103B0BDE8F083F7B506792F4D0C2354
:10B4A0007343EF183C7A002C55D1EA504B687B600F
:10B4B000477903682246A446D4B2A7423CD8CA784A
:10B4C00043F307345201002CC3F30733D2B23DDB00
:10B4D000234F07EB040C8CF800230122640903F0CE
:10B4E0001F0302FA03F347F8243003684A78D3F8BD
:10B4F000040502F0030220F003000243C3F8042510
:10B50000D3F808058A7820F0030002F00302024312
:10B51000C3F80825D3F810050A7820F00F0102F0CF
:10B520000F020A43C3F810250C2303FB0655012321
:10B530002B72002003B0F0BD940004F5A07401321A
:10B5400043F804C01C590194019CB5E7054C03F075
:10B550000F03E254C9E70820ECE700BF24340020C1
:10B5600000E100E014ED00E0036801221A600279B6
:10B57000034B0C2101FB023302221A72704700BFF9
:10B5800024340020036801221A610179024B0C2047
:10B5900000FB01331A7270472434002038B5036869
:10B5A0001A0B43F30733002B04460CDB02F01F0198
:10B5B0005B0901228A4020330D4941F82320BFF363
:10B5C0004F8FBFF36F8F23680025D3F80022C3F895
:10B5D00000524FF0FF32C3F808232046FFF7D2FF96
:10B5E0002279044B0C2101FB02331D7238BD00BFD0
:10B5F00000E100E02434002003680122DA60704793
:10B6000037B54FF4803400688C407BB18B0003F574
:10B61000A0730025C550C3580193019BC0F8044393
:10B6200001F5A87140F8212003B030BDC0F80843EF
:10B63000F6E770B4046840F20116D4F800528E4068
:10B6400025EA0605C4F80052D4F800522B43C4F88A
:10B6500000329DF80C3070BCFFF7D2BF8B0003F5B1
:10B66000A07302689BB20020D05082B0D3580193DF
:10B67000019B4FF4803303FA01F1C2F8041302B0C6
:10B68000704702684FF4803303FA01F1C2F80813DF
:10B690007047000001490248FFF7D8BE243400205B
:10B6A0000080004001490248FFF7D0BE303400203E
:10B6B000009000401F288ABF094B4FF0A04300F0C4
:10B6C0001F0003EB8000D0F8003723F44033C0F8AC
:10B6D0000037D0F8003743EA0141C0F8001770473F
:10B6E000000300500220FEF7F9B900002DE9F047F1
:10B6F00080460D46FEF720FA0328044610D8012D97
:10B7000010D0022D30D05DB91A48FCF7C5FD1A4B98
:10B7100004EB440213449D78184B1B5DAB4219D0D7
:10B72000BDE8F087144E00EB4003F218F55C537847
:10B73000470053B1DFF84C900E484A464FF4804121
:10B74000FCF77CFD08B989F8008027443E440B4B88
:10B75000B2781A55002DE3D0094B1B68002BDFD0BF
:10B760002846BDE8F047184700EB4004024804446F
:10B770006578EFE7502B00203E340020593400203C
:10B78000543400203C34002000780221FFF7AEBF83
:10B7900008B5094B1B7853B10020FEF76DF9012065
:10B7A000FEF76AF9BDE808400320FEF765B9BDE879
:10B7B0000840FEF775B900BF3D340020F8B57B4C5A
:10B7C000237805461BB100232370FFF7E1FF172DF7
:10B7D00000F28880DFE805F00C1717435465768087
:10B7E000888D888D959A9A9A9A9AC4C9D1D9E4E499
:10B7F000FFF7CEFF6E48FCF74FFD6E4B002204466C
:10B800001A702046F8BD0120FEF70EF9F0B10120B4
:10B81000FEF732F9022D0CBF4FF4E1644FF47A6465
:10B82000644B1D7000254FF400464FF47A70294692
:10B830004FF4FA620023E4FB060101F019FE2A46E8
:10B840000146BDE8F8405A48FCF7F8BC0120FEF775
:10B85000FFF8022D0CBFC8244FF4C874E0E70020A5
:10B86000FEF7E2F840B10020FEF706F94FF4487405
:10B87000504B03221A70D5E7FEF7EAF8C824F7E721
:10B880000020FEF7D1F838B10020FEF7F5F84FF4AC
:10B890007A64484B0422EDE7FEF7DAF84FF4C874F7
:10B8A000F7E70020FEF7C0F848B10020FEF7E4F803
:10B8B000404B05221A7040F6CD410022C1E7FEF749
:10B8C000C7F8F5E70020FEF709F93A4B06221A708F
:10B8D000002240F26661B4E70120FEF7B9F8354B6B
:10B8E00007221A7000248CE701202070FEF7F6F87A
:10B8F000EEE701202070FEF7F1F800224FF400512E
:10B900009FE7FEF7DCF82B4B0C22EAE72A482B4E88
:10B91000FCF7C2FCD5F1110504461CD0D8B9012DA5
:10B9200013D0C820454321464FF400474FF47A70A6
:10B930004FF4FA620023C5FB070101F099FD22468E
:10B9400001461D48FCF77AFC04460220FEF780F809
:10B950000123337055E70220FEF78EF80023F8E745
:10B96000FFF716FF134B1222BBE7FFF711FF002072
:10B97000FEF76EF80F4B1322B3E7FFF709FF012024
:10B98000FEF766F80B4B1422ABE7FFF701FF002030
:10B99000FEF75EF80120FEF75BF8064B1522A0E7E4
:10B9A000FEF78DF8034B1D709CE700BF503400205C
:10B9B000702B002058340020302B00203D34002014
:10B9C000044B1B68DB0703D5034B1878FFF7F6BE63
:10B9D000704700BF4C34002058340020032801D8A1
:10B9E000FEF796B800207047044B1B6813F0010364
:10B9F00001D0FFF7E3BE1846704700BF4C3400206B
:10BA000038B51C4B18601C4B10F002040546196039
:10BA10001AD01A4B1A480E221A700F22DA7010220E
:10BA20009A7111225A72042140F23332FCF742FA21
:10BA3000044648B9FCF796FA044628B90146114A6B
:10BA40001148FCF7E9FB0446EB0711D50120FEF78E
:10BA50008BF86CB921460D4A0D48FCF7DDFB044616
:10BA600030B9BDE838400B4A0B480121FCF7D4BB84
:10BA7000204638BD4C340020543400203E34002091
:10BA800014EC020089B7020038EC0200C1B90200D0
:10BA90003CEC0200E5B6020034EC0200032811D8A9
:10BAA000012A0AD101290FD100F10E02D2B20D4BA9
:10BAB00000EB40001A54002070470129F7D00229FA
:10BAC00004D049B1072070470022F8E7054B00EB8E
:10BAD000400018444270EEE7024B00EB400018446F
:10BAE0008270E8E73E340020032808B506D8FEF748
:10BAF00035F80321FFF7DEFD002008BD0620FCE736
:10BB000008B5012202210020FFF7C8FF08B107286D
:10BB100010D1072202210120FFF7C0FF08B107283A
:10BB200008D100210A220846FFF7B8FF10B1072804
:10BB300008BF002008BD00000388102B10B502D0FC
:10BB4000112B1ED010BD1A4C2168B1B90122084634
:10BB5000FFF7A4FF08B1072824D107220221012002
:10BB6000FFF79CFF08B107281CD104220221002006
:10BB7000FFF794FF08B1072814D12368013323602D
:10BB8000E0E70B4A1368013B1360002BDAD1FFF7A3
:10BB9000B7FF0028D6D0074B1B68002BD2D0BDE8DA
:10BBA00010401847034B1B68002BE6D09847E4E78A
:10BBB000643400206034002008B50C20FFF794FFA7
:10BBC00008B1062806D10C20FFF78EFF10B1062819
:10BBD00008BF002008BD00000D4B10B518600C46D2
:10BBE00029B10120FFF7FAFE40B102232370094B6F
:10BBF0001B685BB9BDE81040FFF782BF0C20FFF760
:10BC0000EDFE08B10B23F1E72070F0E7002010BD36
:10BC1000603400206434002076DF70477FDF704797
:10BC20008FDF7047B1DF704733DF7047014B012270
:10BC30001A7070472455002008B50020FFF7D4FE85
:10BC400008B1FCF7A5F9FFF7B7FF08B1FCF7A0F9B9
:10BC5000FFF7EAFF18B1BDE80840FCF799B908BD45
:10BC6000064B0748074901221A70074BC01AC00843
:10BC7000000440F00300FBF7A7BE00BF26560020DB
:10BC8000ACDF020040EC02006CDF02000388212BD5
:10BC900037B5044643D007D8112B30D0132B4DD0E5
:10BCA000102B0CD003B030BD522B53D0562B01D0EB
:10BCB0003B2BF7D1A0881321FFF7AEFF45E0294BBE
:10BCC00029482A49C01AC008000440F00300FBF7C5
:10BCD0007BFE0720FFF788FE08B1FCF759F9244BDB
:10BCE000A1882448198001F08DF808B1FCF750F9BB
:10BCF000214B01221A70214B00221A70D2E7194BF6
:10BD000019481F49C01AC008000440F00300FBF79F
:10BD10005BFE174B4FF6FF721A80174BECE70025BE
:10BD200080888DF8045001A98DF80550FFF778FF41
:10BD300008B1FCF72DF9104B1D70B3E70C48002338
:10BD400000881A468521FFF769FF0028E5D0FCF737
:10BD50001FF9E2E7064800231A4619460088FFF754
:10BD600061FFF2E76CDF0200ACDF020054EC02007E
:10BD7000922B0020185500206934002068340020E0
:10BD80005EEC0200072808B513D00A280DD004285D
:10BD900019D10D4B13211888FFF73EFF30F008032F
:10BDA00011D0BDE80840FCF7F3B8BDE80840FFF744
:10BDB00043BF054B1A884FF6FF739A4203D10348DD
:10BDC00000F02AFDEAE708BD922B0020A8500020D1
:10BDD000F7B50378012B3ED0022B3CD0002B38D195
:10BDE000204C214D20782844FCF730FC1F49237853
:10BDF0000A781F48EE5CD2B2013386540A78DBB26F
:10BE000001321D44D2B20A7015F8012C23700A2A9F
:10BE100005D00D2A03D0174A12889A4219D8012B4F
:10BE200015D9154D104E154F2378ADF806300DF18C
:10BE300006022B883146384601F0DEF8082806D085
:10BE40001328F1D0052802D008B1FCF7A1F800238F
:10BE5000237003B0F0BD406803B0BDE8F040FCF7CC
:10BE600097B800BFA6500020B24F0020A750002076
:10BE7000A84F0020902B0020922B0020942B002014
:10BE80000C2808B51CD101290BD10E4B0E480F49C7
:10BE9000C01AC0080004BDE8084040F00300FBF7EA
:10BEA00093BD69B9074B08480949C01AC008000486
:10BEB00040F00300FBF788FDBDE80840FFF7BCBE7B
:10BEC00008BD00BF6CDF0200ACDF02006BEC0200BB
:10BED0007CEC020010B586B00B148DF801300B120B
:10BEE00040008DF80230042340F040000D4C8DF8E6
:10BEF00003100DEB03010022CDE904138DF80000BF
:10BF000002A9094801922270CDF808D00393FFF7E7
:10BF100061F908B1FCF73CF823780BB106B010BD0D
:10BF200020BFF9E72656002084ED020010B5042357
:10BF300086B0400040F041000DEB0301124C8DF83B
:10BF400000000022CDE904131048ADF8012002A939
:10BF50008DF8032001922270CDF808D00393FFF7EB
:10BF600039F908B1FCF714F823785BB19DF8063075
:10BF70009DF805001B0243EA00439DF807001843A3
:10BF800006B010BD20BFEFE72656002084ED02006A
:10BF900008B5094801F0D2FB00210C20FFF79AFFF9
:10BFA0004FF440310D20FFF795FFBDE80840002118
:10BFB0000E20FFF78FBF00BF8EEC020010B50C20E3
:10BFC000FFF7B4FF064B044643F001034FF448600B
:10BFD000984714F00F0F0CBF0120002010BD00BFC8
:10BFE00070ED020030B50E4D0FCD87B001AC0FC41F
:10BFF0002B680C4A0C48236001A9FDF763FA08B1CD
:10C00000FBF7C6FF0848084CFDF7BCFB32220021B5
:10C010002046FDF74DFA1128F8D007B030BD00BF1B
:10C0200020ED02002DBC02005CED020008B50848BE
:10C0300040F233320121FBF73DFF08B1FBF7A8FFC7
:10C04000FBF790FF18B1BDE80840FBF7A1BF08BDA2
:10C0500064ED020038B5374D374CA020FCF70CFBDF
:10C060002878FCF709FB2078FCF706FB6078FCF7E2
:10C0700003FBA078FCF700FBE078FCF7FDFA2079E1
:10C08000FCF7FAFA6079FCF7F7FAA079FCF7F4FA12
:10C09000E079FCF7F1FA207AFCF7EEFA607AFCF727
:10C0A000EBFAA07AFCF7E8FAE07AFCF7E5FA002070
:10C0B000FCF7E2FA0020FCF7DFFA0020FCF7DCFADC
:10C0C0000020FCF7D9FA0020FCF7D6FA0020FCF794
:10C0D000D3FA0020FCF7D0FA0020FCF7CDFA0020BC
:10C0E000FCF7CAFA0020FCF7C7FA0020FCF7C4FAF4
:10C0F0000020FCF7C1FA0020FCF7BEFA0020FCF794
:10C10000BBFA0020FCF7B8FA0020FCF7B5FA0020D3
:10C11000FCF7B2FA0020FCF7AFFAC020FCF7ACFA4B
:10C120002B78FF2B1DBF2B780133DBB200232B7044
:10C13000012038BD25560020FC43002010B51E4CC0
:10C140002378762B15D11D4801F0C6FA1C4801F062
:10C15000C3FA1C4801F0C0FA1B4B00221A70237866
:10C16000622B10D1194B01221A70174B00221A7042
:10C1700013E02378642B01D11548EBE72378632B78
:10C18000EDD11448E6E72378732B07D10F4A00233B
:10C190001370114A13700C4A137010BD2378782B5A
:10C1A000FBD10E4801F098FA6078303801F0B6FA09
:10C1B000044801F091FAD8E7A84F0020A7EC02004C
:10C1C000ACEC0200EDEC0200A75000202756002046
:10C1D000B1EC0200D9EC020025560020F1EC02007F
:10C1E0002DE9F0415B4D0FCD8AB004AC0FC495E84A
:10C1F0000300594B594A009384E803004FF48073BD
:10C2000004ACCDE902230193554A07236946204631
:10C21000FCF7C4F908B1FBF7BBFE4FF480410020E6
:10C22000FBF734FA08B1FBF7B3FEFBF76DF9FBF748
:10C23000C1FF08B1FBF7ACFEFFF7F8FE494901204A
:10C24000FFF7DEFB08B1FBF7A3FE21460020FFF756
:10C25000C3FC08B1FBF79CFEFCF778FF08B1FBF7C5
:10C2600097FE4FF0A0430322C3F838274FF48042D3
:10C27000C3F80C2500F03CFF08B1FBF789FE002352
:10C2800021460120049300F0C5FF08B1FBF780FEB2
:10C29000204601F07FF808B1FBF77AFE324B0FCB56
:10C2A00084E80F00314B0493314A32480023214681
:10C2B000FEF72CFE08B1FBF76BFEFFF793FE2E4F47
:10C2C0002E4E2F4DFFF764FE2E4801F037FA002363
:10C2D0003B7046F00106DFF8B4802B4C98F8003034
:10C2E0005BB3FFF76BFE40B30020FFF71FFE0314A4
:10C2F0002370031228606370A0700120FFF716FE00
:10C300000314E3700312C5F8E40323716071022083
:10C31000FFF70CFE0314A3710312C5F8C807E371FD
:10C3200020720320FFF702FE031463720312C5F8A4
:10C33000AC0BA372E072FFF78DFE3B78002BCDD0E3
:10C340000A244FF47A40B047013CFAD1FFF7F6FED9
:10C35000C1E700BF34ED020025550020285600201B
:10C36000D1BD020085BD02004CED02001A1D1E1F4A
:10C3700061BC020080ED0200A750002070ED0200B9
:10C380006C3400200BED0200FC43002027560020F7
:10C390000369C26893429CBF80681B18013B981ACE
:10C3A00070472DE9F843D0E902940546A9EB04084B
:10C3B0004068904520440F46144404D901F0ECF93C
:10C3C000EC60BDE8F8834246A4EB090401F0E4F90F
:10C3D0006868224607EB0801F0E72DE9F843C568D5
:10C3E0000646894617464FF000083469B3687068FE
:10C3F000A54228BFE418013C621B5C1BBC4228BF5D
:10C400003C46944228BF144649462844224601F03F
:10C41000C3F9B3682544AB4208BF00253F1BA044C5
:10C42000A144F560E1D14046BDE8F88310B5114C58
:10C43000114AA2610223C4E90433104BE361A264F0
:10C440004FF400730E4A0F492362E2640023102266
:10C45000E01DA3626362E362A3656365E365226531
:10C4600001F0F6F90849204601F0F2F92023A37102
:10C4700010BD00BF2857002090ED0200B0570020EB
:10C48000A057002099ED02009DED020070B5164BFB
:10C49000182400FB04451D4404FB00331646DC6AE7
:10C4A000012C0ED0022C18D0E4B92846FFF770FFFB
:10C4B000864204D832462846FFF773FF34462046AA
:10C4C00070BD2846FFF764FF8642344628BF044605
:10C4D00022462846FFF765FFF1E72846BDE8704091
:10C4E000FFF77BBF0024EAE728570020FFF79EBF35
:10C4F00030B5C8B1F2B10024651C8D4206DA15884A
:10C50000A54212D805196D789D420ED1A14211D9CC
:10C51000005D48B1013880B230B10234A3B210FAE4
:10C5200084F4A14206DB138030BD055D01352C4447
:10C53000A4B2E1E70020F7E713B513460022ADF8F7
:10C5400006200DF106020446FFF7D2FF10B1BDF838
:10C550000630E01802B010BD72DF704773DF70471D
:10C5600074DF704738B5012204460D46B0F8141444
:10C57000D0F81004FFF7E0FF00B1057004F13C02B1
:10C5800004F5826104F15400BDE83840FFF7E4BFD0
:10C59000F8B5067804460D46002E00F0068100230B
:10C5A000C0F82634C0F82934C388817000F22647C9
:10C5B0000BB1012903D0E37943B1022D06D1636B9E
:10C5C000ABB1012284F82D240820984704F22743B8
:10C5D00004F22D4113F8012B12B99942FAD11646F3
:10C5E0006B1E032B53D8DFE803F0050B0F1284F802
:10C5F0002D34EBE7A3791BB194F8243003B95EB96D
:10C60000E3790BB1002E44D1237A002B43D1637A16
:10C61000002B0CBF00250425636BA570002B3CD0BC
:10C62000033D012D39D86279002A36D094F82E24A2
:10C630009ABB84F83024012284F82F2407209847DD
:10C6400004F13C0518220021284601F0CEF8E26AE8
:10C650000123511E994284F83C3001D9042A00D1AB
:10C66000D3B284F8513094F8243043B1A26A511EF9
:10C67000012902D9042A18BF012284F85220A27885
:10C68000042A1CD8DFE802F0780D23365A00002572
:10C69000C2E70225C0E70325BEE7002384F82F3454
:10C6A000CEE7012384F831300023C4E91073C4F8C5
:10C6B0002034022384F83C308023A4F84830A37847
:10C6C000002B5DD1636B002B6BD1002068E0002B49
:10C6D00014BF0723032384F83C302369A4F84830AF
:10C6E00000230222C4F82034E36884F83120276450
:10C6F0006364E4E762696264A269A4F8482013B144
:10C70000062384F83C306379B3B194F82E349BB996
:10C7100094F8303483B1022384F850300421204649
:10C72000FFF720FF0028CAD1052384F8313004F533
:10C730008263C4F82034C2E70323F6E7E269626447
:10C74000226AA4F8482013B1062384F83C306379A8
:10C7500083B194F82E346BB994F8303453B102237A
:10C7600084F8503004212046FFF7FCFE0028A6D1B3
:10C770000623DAE70423D8E7002384F831309EE764
:10C78000D4F820142A4604F15400FFF7E5FE38B926
:10C7900094F8301094F85400FFF7E0FE002891D090
:10C7A000F8BD94F8310098478FE70820F8E7038830
:10C7B000112B10B50C460AD0262B1FD0102B05D1FB
:10C7C000C37B012B02D18388A1F8243410BD002241
:10C7D000838881F82E24B1F824249A42F6D10B796B
:10C7E000002BF3D101212046FFF7D2FE0028EDD027
:10C7F000A36B002BEAD0BDE810401847037A013B39
:10C80000012BE3D8897805230131B1FBF3F303EB66
:10C810008303C91AC9B2E6E738B5044690F8540054
:10C82000FFF79EFE012384F82E34002384F8303471
:10C8300084F8503006212046FFF794FE054638B9AB
:10C84000A1782046FFF7A4FE10B1A36B03B198476F
:10C85000284638BD034B1A8882420CBF1846002078
:10C86000704700BFCC590020024B9B6903B11847A9
:10C87000704700BFB059002037B50B46497A0F4AC0
:10C8800079B9D2E901141D7A0246002D18BF21465C
:10C890005868FBF7D3FC78B103B0BDE83040FFF730
:10C8A000E3BF00211972536933B10122ADF80600CC
:10C8B0008DF8042001A8984703B030BDB05900207E
:10C8C0004B8802889A4212D842889A420FD38088B5
:10C8D0008B8840F2F311884294BF021A421A9A429E
:10C8E00005D80844984234BF00200120704700203A
:10C8F000704700000388122B70B5014659D004D848
:10C90000102B1ED0112B44D070BD502BFCD12F4BBF
:10C91000C288DB899A42F7D1038A022BF4D1868838
:10C920003046FFF797FF05460028EDD001F11200D1
:10C9300000F02EF938BB6868FBF7AEFC0028E3D0A6
:10C9400009E0C37B012BDFD14FF6FF70FFF782FFB9
:10C95000054620B90420BDE87040FFF785BF1C4A9A
:10C960008E880680002303721368C0F80A3053686B
:10C97000C0F80E3010310A30FFF7A2FF134B687277
:10C98000DB89002BC0D129463046BDE87040FFF757
:10C9900073BF8088FFF75EFF04460028B4D040686C
:10C9A000FBF77AFC08B1FFF75FFF4FF6FF732380B8
:10C9B000AAE786883046FFF74DFF05460028A3D03A
:10C9C00008310A30FFF77CFF6872DCE7B0590020BD
:10C9D000E05900200AB1FCF777B8FCF77EB873B5D0
:10C9E0000191019C06466CB100252C46294601A800
:10C9F000FCF77DF818B106EB440301349D80013546
:10CA0000142DF3D13046346002B070BD2DE9F047EB
:10CA100003888488103B8CB005460A2B21D8DFE8B8
:10CA200003F0064020202020202020654700DFF86A
:10CA3000E880D8F80830DB430093D8F80410684643
:10CA4000FCF781F8009901A8FFF7C9FF0DF108096B
:10CA50000027019B9F4207D3132C12D90420FBF718
:10CA600097FA0CB0BDE8F08739F802AB0026013622
:10CA7000514608EB8600FCF730F81E2EF7D101373F
:10CA8000E7E71F482146FCF71FF81E482146FCF740
:10CA90001BF8EB7B022BE4D11B482146FCF714F872
:10CAA000DFE7174821460CB0BDE8F047FCF715B8A2
:10CAB000027A16483F2A4FEA1215214694BF0022F7
:10CAC0000122FFF787FF022D94BF002201221048A8
:10CAD0002146FFF77FFF012D0E4894BF002201225F
