:1000000000600020A50300005D0300005F03000006
:1000100061030000630300006503000000000000AE
:100020000000000000000000000000006703000066
:1000300069030000000000006B0300006D03000076
:100040006F0300006F03000025080000511300003B
:100050006F030000000000006F030000DD190000C6
:100060007D1E00006F0300006F0300006F0300009F
:100070006F0300006F0300006F0300006F030000B8
:100080006F0300006F0300006F0300006F030000A8
:100090006F0300006F0300006F0300006F03000098
:1000A0006F0300006F03000000000000000000006C
:1000B0006F0300006F03000000000000000000005C
:1000C0000000000000000000000000000000000030
:1000D0000000000000000000000000000000000020
:1000E0000000000000000000000000000000000010
:1000F0000000000000000000000000000000000000
:1001000000000000000000000000000000000000EF
:1001100000000000000000000000000000000000DF
:1001200000000000000000000000000000000000CF
:1001300000000000000000000000000000000000BF
:1001400000000000000000000000000000000000AF
:10015000000000000000000000000000000000009F
:10016000000000000000000000000000000000008F
:10017000000000000000000000000000000000007F
:10018000000000000000000000000000000000006F
:10019000000000000000000000000000000000005F
:1001A000000000000000000000000000000000004F
:1001B000000000000000000000000000000000003F
:1001C000000000000000000000000000000000002F
:1001D000000000000000000000000000000000001F
:1001E000000000000000000000000000000000000F
:1001F00000000000000000000000000000000000FF
:10020000354936480A1A02D0072291438D463449AF
:1002100034480A1A06D00722914381F30988022242
:1002200082F3148830483149314A00F044F83148AB
:100230003149324A00F03FF831483249324A00F041
:100240003AF832483249334A00F035F832483349F7
:10025000334A00F030F833483349344A00F02BF881
:1002600033483449344A00F026F8344834490022EF
:1002700000F02CF833483449002200F027F83348C6
:100280003349091A082902DB002202604160314A21
:1002900090471F481F49884205D00268043003B4C4
:1002A000904703BCF7E700208646EC46002000217B
:1002B000294A9047FEE7884207D0521A05D00378B2
:1002C00001300B700131013AF9D17047884202D0F8
:1002D00002700130FAE770470060002000580020EB
:1002E0000060002000600020A42500000000002025
:1002F00018000020EC030000EC030000FC240000C8
:10030000A42500000000002000000020FC240000C4
:10031000FC240000FC240000FC240000FC2400005D
:10032000FC240000FC240000FC240000A4250000A4
:10033000BC25000018000020180000201800002034
:100340004703002048030020480300204803002002
:10035000480B0020BB030000B9200000FEE7FEE7C9
:10036000FEE7FEE7FEE7FEE7FEE7FEE7FEE7FEE765
:1003700009480068094909680A280AD1002908D1F2
:10038000074802686FF070031A404FF040031A43A9
:10039000026000F009B800003001001034010010C4
:1003A000E40E0040FFF7E4BF0B484FF0070188431D
:1003B00085460A488047FFF723BF094809490A4A8A
:1003C000884207D0521A05D0037801300B700131F2
:1003D000013AF9D170470000006000200D220000B2
:0C03E000FC2400000000002000000020B1
:1003EC00044B1A5C012393404FF0A042C2F808352D
:1003FC00704700BFFC24000008B50020FFF7F0FF99
:10040C000120FFF7EDFF0220FFF7EAFFBDE80840EF
:10041C000320FFF7E5BFC20708B501460CD54FF026
:10042C00A0430322C3F84427C3F84827C3F84C273A
:10043C00C3F85027FFF7E0FF8B070AD54FF0A04316
:10044C000C22C3F83427C3F83827C3F83C27C3F869
:10045C00402708BD1FB50021039001AA44F20100FA
:10046C00CDE9011100F004F805B05DF804FB0000C3
:10047C0072B6094BD3F8F020D20700D500BEBFF3FB
:10048C004F8FD968054A01F4E0610A43DA60BFF383
:10049C004F8F00BFFDE700BF00ED00E00400FA0540
:1004AC0010B5034649B152B1541E14EA020006D1EC
:1004BC00986019609C80D86010BD0E20FCE7092064
:1004CC00FAE710B58468C2688388121B934208D37C
:1004DC00C26813400268D154C3680133C360002062
:1004EC0010BD0420FCE78268C3689A420AD0826877
:1004FC00838813400268D35C0B708368013383607C
:10050C0000207047052070470648074A03780749C2
:10051C00D35C012213B1043000F0D8BD0C3000F0D4
:10052C009BBB00BF000000205000002040000020BA
:10053C000648074A03780749D35C012213B10430FB
:10054C0000F076BD0C3000F037BB00BF000000207F
:10055C00500000204100002037B50578012D0DD04A
:10056C00022D30D075B91F491F48FFF7BCFF00287A
:10057C0034D103B0BDE83040FFF7DABF037A1BB9C2
:10058C00FFF7C2FF03B030BD4368184C1978204602
:10059C00FFF797FF80B18DF800500190144B68461F
:1005AC001B689847A168E368A2885B1A9A42E7D255
:1005BC00104B01221A70E5E7A268E3689A42F1D069
:1005CC008DF80000EAE7C3688DF800500193FFF73F
:1005DC009BFF074B68461B689847D3E703238DF8AE
:1005EC000030F6E741000020300000201C00002005
:1005FC00180000202C000020F0B51F46234B89B0BA
:10060C0004461A600D4600293DD08A8820480968A6
:10061C00FFF746FF002834D1AA89A9681D48FFF7C7
:10062C003FFF00282DD11C4E0FCE6D460FC596E80E
:10063C000F0085E80F0063690693237C174A18485E
:10064C008DF81C70003B18BF01238DF81430637CAF
:10065C00002B14BF0E2300238DF81530E368029392
:10066C00A36803932368019369466368009300F0C1
:10067C0095F830B90B4B18702368013301D0FFF794
:10068C0043FF09B0F0BD0720FBE700BF18000020B6
:10069C001C00002030000020002500006505000033
:1006AC00000000202C00002010B501460E48FFF77A
:1006BC0008FF0446A8B90D480D4A0378D35C63B112
:1006CC00043000F0A9FC60B90A490748FFF70BFF9A
:1006DC0038B9BDE81040FFF72BBF0C3000F060FAC2
:1006EC00F1E7204610BD00BF3000002000000020C4
:1006FC00500000204100002072B6024A13680133FA
:10070C001360704744000020034A1368013B1360D8
:10071C0003B962B6704700BF44000020FFF7ECBF7E
:10072C00FFF7F2BF10B50446C0B2FFF7BDFF20467D
:10073C0010BD00001FB503788DF80030436801939D
:10074C0083688DF80830C368054A0393054B6846E7
:10075C0053F8213052F82110984705B05DF804FB8E
:10076C00480000204C0000201FB503788DF80030A5
:10077C004368019383688DF80830C368054A039376
:10078C00054B684653F8213052F82110984705B0B4
:10079C005DF804FB480000204C000020F0B5194B1C
:1007AC0090F800C091F81DE043F82C20164B16462B
:1007BC000A6943F82C20154B03F80CE00C4607464D
:1007CC000FCC89B06D460FC594E80F0085E80F007B
:1007DC00CDF810C0BEF1000F09D0002E0C4A6946AE
:1007EC0008BF3246381D00F055FB09B0F0BD002E95
:1007FC00084A694608BF324607F10C0000F01CF9A4
:10080C00F3E700BF4C0000204800002050000020FF
:10081C004107000075070000014B1B68184700BF1B
:10082C005400002038B50B4B98420C4601D00020E8
:10083C0038BD0020FFF772FF074B1D7915B9012257
:10084C001C601A710020FFF76BFF002DEFD01120F8
:10085C00EEE700BF0020004054000020002343506E
:10086C0082B043580193019B02B070470A4610B501
:10087C004FF48E71FFF7F2FF136A9168C95C136A2B
:10088C0001331362C0F81C1510BD024608B5006890
:10089C004FF49271FFF7E2FF10684FF48471FFF789
:1008AC00DDFF136801221A6008BD8B690A4610B57A
:1008BC004FF4847123B9FFF7D1FFD0F8183510BD70
:1008CC00FFF7CCFF536AD168D0F81805C854536AA7
:1008DC0001335362F3E700001FB501238DF800309C
:1008EC00044BCDE90110D3E900126846904705B0DE
:1008FC005DF804FB5C00002030B54D4DD5F8043399
:10090C009A0585B051D5D5F82431002B4DD04FF434
:10091C0092712846FFF7A2FF4FF40173C5F8083314
:10092C00444B93F829200AB901226A6040490222FB
:10093C008DF80020D1F88024C1F8802403929A69A4
:10094C000292DA6801920022C3E906226846D3E9D2
:10095C00001290473648D0F81C315BB1354A5169CA
:10096C00136A99424DD992F82830002B49D111467F
:10097C00FFF77CFF2E48D0F84431002B56D04FF4B3
:10098C00A271FFF76BFF2B4B93F829200AB10122C0
:10099C0002609A69002A49D0586AD96800229A6183
:1009AC0005B0BDE83040FFF797BFD5F804335B07BF
:1009BC00D0D5D5F80831002BCCD01E4C1C48214684
:1009CC00FFF773FF636AA2699A42C3D1E369E168D6
:1009DC004BB1A3612369E3600023606AE361636246
:1009EC00FFF77AFFB6E794F829300BB901236B6057
:1009FC000F4B4FF40172C3F808230023606AA36104
:100A0C00EEE70B484FF48E71FFF728FF5369002B6C
:100A1C00B0D051690291002391688DF8003001919A
:100A2C0053616846D2E900139847A3E705B030BD7F
:100A3C00002000405C0000202DE9F843534D90F855
:100A4C0004802C2303FB0853064693F82A300C46EB
:100A5C009146002B40F096804D490068FFF7E2FE6E
:100A6C000746002840F0908022683068511C0BD05B
:100A7C004FF0A04101239340C1F8083502F5E07313
:100A8C004FF0030C41F823C061684B1C1FBF01F5EC
:100A9C00E0734FF0A04C4FF0000E4CF823E0A3692C
:100AAC00C0F8243594F814C0637DBCF1010F4CEAF6
:100ABC000303C0F86C35C0F81415C0F80C251DD113
:100ACC00A268531C1FBF02F5E0734FF0A0414FF01A
:100ADC00000C41F823C0E368591C0BD04FF0A04C1C
:100AEC0001219940CCF8081503F5E0714FF0030E85
:100AFC004CF821E0C0F80835C0F810252C2202FB78
:100B0C0008F2AB18C3F804902369AB50B9F1000F8D
:100B1C0020D04FF48E71247FFFF7A0FE4FF4A2710A
:100B2C003068FFF79BFE32681A4BC2F80433130B84
:100B3C0042F307326101002AC9B21EDB1648841841
:100B4C0084F800130121520903F01F0301FA03F387
:100B5C0040F8223033680422C3F800252C2303FB11
:100B6C0008530022C3E9062283F829205A61012286
:100B7C0083F82A203846BDE8F883084A03F00F03AF
:100B8C00D154E7E70827F5E71127F3E75C000020CD
:100B9C00050900008000020000E100E014ED00E017
:100BAC000279044B2C2101FB02335869003818BF21
:100BBC00012070475C0000202DE9F84F064690F8A4
:100BCC00048089469246FFF7EBFF044600283CD18F
:100BDC00204F2C2508FB057B4FF48E71CBF814A00D
:100BEC00CBF80890CBF820008BF828003068FFF782
:100BFC0035FE3068012383605946FFF737FEDBF87A
:100C0C0004305D461BBB3068DBF814402B6A9C42F9
:100C1C0011D83368D3F81C21002AFBD00122DA60EA
:100C2C0000202C2303FB087700237B61BDE8F88FA1
:100C3C0095F828303BB9D0F81C31002BF8D0594628
:100C4C00FFF714FEE2E70F20EBE71120EEE720465A
:100C5C00ECE700BF5C0000202DE9F0473A4D077926
:100C6C002C2303FB075306465C6824B103684FF43E
:100C7C000170C3F808032C2303FB0753986950B188
:100C8C00D869002841D024B133684FF40172C3F8FD
:100C9C000423112436E09A61D9605862D8612C2360
:100CAC0003FB075393F829301BB910B93046FFF7F3
:100CBC00ECFD4FF02C0808FB075A3068DAF80430CA
:100CCC00002B37D14FF4A271D046FFF7C7FD306827
:100CDC00D0F82491D0F80831D0F84441CBB914B9EC
:100CEC00B9F1000FF3D02C2303FB07550023AB61A4
:100CFC00B9F1000F24D12CBB95F8291033680122CF
:100D0C00B1B11A602046BDE8F0871961DA610120A3
:100D1C00C5E7B9F1000FE6D1002CE4D14146FFF74D
:100D2C00C4FDDAF82430DAF818209A42CFD8DAE782
:100D3C005A60E7E74FF40173C0F804330024E1E78D
:100D4C000324DFE70F24DDE75C0000200023435081
:100D5C0082B043580193019B02B070471FB5012329
:100D6C008DF80030044BCDE90110D3E90012684630
:100D7C00904705B05DF804FB880000207FB5434A1E
:100D8C00D2F82461002E60D010464FF49271FFF718
:100D9C00DDFF02238DF80030D2F88034C2F88034A5
:100DAC000393D2F83C350293394BDA680192002256
:100DBC00C3E906226846D3E9001290473348D0F8BD
:100DCC00443173B14FF4A271FFF7C0FF304B9A69F5
:100DDC003AB10022C3E90622D968D0F83C05FFF7E6
:100DEC00BDFF2A48D0F82031ABB14FF49071FFF71A
:100DFC00ADFF0123C360264B5A6962B1D0F84C1584
:100E0C000291002299688DF8002001915A61684680
:100E1C00D3E9001290471D48D0F858319BB14FF4DC
:100E2C00AC71FFF793FF1A4B5A6962B1D0F84C15AD
:100E3C000291002299688DF8002001915A61684650
:100E4C00D3E90012904704B070BDD2F81031002BDA
:100E5C00B4D04FF488711046FFF778FF0C4BD2F8E2
:100E6C003C0599698842A9D1DC69D96864B1D2F88A
:100E7C00005225F02005C2F800521A699C61DA6014
:100E8C00DE61FFF76BFF99E79C61FAE700200040F9
:100E9C00880000202DE9F8435A4E90F80480242352
:100EAC0003FB0863044693F820300D469146002B53
:100EBC0040F0A38054490068FFF7B4FC07460028B3
:100ECC0040F09D802A682068511C0BD04FF0A04147
:100EDC0001239340C1F8083502F5E0734FF0030C81
:100EEC0041F823C069684B1C1FBF01F5E0734FF03C
:100EFC00A04C4FF0000E4CF823E0AB69C0F8243541
:100F0C0095F814C06B7DBCF1010F4CEA0303C0F8DB
:100F1C006C35C0F80C25C0F814151DD1AA68531CEB
:100F2C001FBF02F5E0734FF0A0414FF0000C41F8E9
:100F3C0023C0EB68591C0BD04FF0A04C01219940F9
:100F4C00CCF8081503F5E0714FF0030E4CF821E0D6
:100F5C00C0F80835C0F81025242202FB08F2B3189B
:100F6C00C3F804902B69B350B9F1000F2FD04FF494
:100F7C0088712A7FFFF7EAFE20684FF49071FFF723
:100F8C00E5FE20684FF49271FFF7E0FE20684FF405
:100F9C00A271FFF7DBFE4FF4AC712068FFF7D6FEB1
:100FAC0023681A49C3F80413190B43F3073352018E
:100FBC00002BD2B21CDB1648C51885F80023012281
:100FCC005B0901F01F0102FA01F140F823102368BC
:100FDC000822C3F80025242303FB08660023C6E976
:100FEC0006337361012386F820303846BDE8F88358
:100FFC00084B01F00F015A54E9E70827F5E71127D0
:10100C00F3E700BF88000020890D000010034200A8
:10101C0000E100E014ED00E00279044B242101FB17
:10102C0002335869003818BF01207047880000202F
:10103C0001F06043B3F1005F2DE9F04706468846A6
:10104C0092463BD190F80490FFF7E6FF0446002847
:10105C0036D11D4F3068242505FB09754FF490716E
:10106C00C5F814A0C5F80880FFF770FE4FF4AC71FA
:10107C003068FFF76BFE33686A69A968C3F84415DA
:10108C00C3F8482501229A606A68DAB9D3F820219E
:10109C00D3F858011AB90028F8D00F2007E000281F
:1010AC00FBD10122DA60D3F85821002AFBD024238B
:1010BC0003FB097700237B61BDE8F0871020FBE779
:1010CC001120F9E72046F7E788000020F8B501F079
:1010DC006043B3F1005F04460F465ED10379304D97
:1010EC00242101FB0351496821B100684FF40476B7
:1010FC00C0F80863242000FB03539E6956B1D869DD
:10110C00002839D021B123684FF40472C3F80423AA
:10111C00112030E09A61DF60DE6120684FF4887145
:10112C00FFF714FE20684FF4A271FFF70FFE23683F
:10113C00C3F83475C3F8382516BB01221A6024791C
:10114C00242202FB045252680ABBD3F81011D3F8C4
:10115C004421D3F82401114302D10028F5D00A46CA
:10116C00242303FB04550023984218BF03209A4202
:10117C00AB6118BF0F20F8BD1F61DA610126CCE707
:10118C00D3F8002242F02002C3F80022D7E74FF434
:10119C000472C3F804230020EDE71020EBE700BF36
:1011AC00880000201FB503788DF800308388ADF8D7
:1011BC00043083688DF80630C3688DF807300369F6
:1011CC0002934369054A0393054B684653F8213053
:1011DC0052F82110984705B05DF804FBAC000020D4
:1011EC00B0000020024B4FF4807043F0010318470D
:1011FC00202500002DE9F047154690F80090324A62
:10120C0042F82950314A42F829304B7B07460C46AC
:10121C006BB30868496882008B0002F1A04203F1AD
:10122C00A04340F20C66C2F800674FF0010AC3F805
:10123C0000674FF0A0460AFA00F00AFA01F1C6F86E
:10124C000805C6F8081540F20D61C2F80017C3F87E
:10125C000017FFF7C7FF4FF00008D6F8102563689A
:10126C0022FA03F3DB070DD5B8F1000F1DD1002DC9
:10127C00174A4B4608BF2A462146381DBDE8F047A1
:10128C0000F01EB923680AFA03F3C6F80C35FFF711
:10129C00A9FF23680AFA03F3C6F8083508F1010818
:1012AC00FFF7A0FFB8F1090FD7D1636801264FF003
:1012BC00A04806FA03F3C8F80C35FFF793FF6368F0
:1012CC009E40C8F80865D2E7B0000020AC000020B2
:1012DC00B11100000023435082B043580193019B8D
:1012EC0002B070470A7B0346032A29D8DFE802F0D4
:1012FC00212519028A68500304D5D3F84C250869B6
:10130C00904207D18A6852031AD4D3F84C25496904
:10131C00914215D000200622C3F80005C3F8002521
:10132C007047D3F84C2508699042F3D1D3F83C258B
:10133C00EDE7D3F84C250969EAE7D3F83C25FAE741
:10134C0001207047F0B5594D594CD5F8243187B070
:10135C00FBB14FF492712846FFF7BCFFD5F804316E
:10136C00BBB9A368C5F808330223A360A368C5F80A
:10137C000433D5F860311BB1D5F800329F0503D486
:10138C004A4B01221A625A61012384F82E3007B0AD
:10139C00F0BDD5F80431002B50D044484FF4827185
:1013AC00FFF798FF236A5E0609D494F82E3033B900
:1013BC003F49FFF797FF80F0010084F82E00236A65
:1013CC005D0720D43B4E0FCE01AD0FC533683748B7
:1013DC002B604FF4B071FFF77DFF4FF4AE71FFF748
:1013EC0079FF94F8303013B194F82E305BB12F4B59
:1013FC000022C3F80022A2602F4AC3F808232F4B07
:10140C000822C3F88021294AD2F8C434C2F8C43463
:10141C0098073DD501238DF8003094F830300BB986
:10142C0084F82F30236A5B0703D594F82E30002BF9
:10143C00ADD0D4E9003168469847A8E71B484FF473
:10144C00A471FFF747FF237B83B91A4F0FCF01AE6F
:10145C000FC63B68336094F83030002BD3D1C5F8FD
:10146C000032A360144BC5F80833C8E74FF400737F
:10147C00C5F8003240F20223A36003F1CE73C5F825
:10148C000833A368C5F804330123AB602B627EE7F5
:10149C00590701D50223BEE7DA0701D50323BAE7C2
:1014AC0094F82E30002BB6D00423B4E70030004063
:1014BC00B4000020C000002002029C0100E100E00A
:1014CC002DE9F84F0679304D4FF0340A0AFB06FA35
:1014DC0005EB0A079B4697F82D3080460C46914643
:1014EC00002B4DD129490068FFF79CF9002849D100
:1014FC002168637B87F8323001F5E0724FF0A0432E
:10150C00B860C7F804B087F82F0087F8300040F2B5
:10151C000C6745F80A9043F82270626802F5E07C8B
:10152C0043F82C70D8F80030C3F80815C3F80C2514
:10153C00A268C3F82425B9F1000F14D0227B43F321
:10154C00073152010029C3F30733D2B213DB104C1D
:10155C00671887F800230122490903F01F0302FAD8
:10156C0003F344F82130342303FB0655012385F89B
:10157C002D30BDE8F88F074903F00F03CA54F2E78A
:10158C000820F6E71120F4E7B40000205113000006
:10159C0000E100E014ED00E0036802790621C3F8D5
:1015AC000015044B342101FB0233022283F82D2059
:1015BC00704700BFB40000202DE9F843DFF8C48267
:1015CC0090F804900468342606FB0986002386F8FC
:1015DC002E30CB6803F06043B3F1005F0D46174625
:1015EC0003D010263046BDE8F883A74BC4F8083367
:1015FC0096F82F3023B1B368C4F804331126F1E701
:10160C0012F0140F0CBF0123002386F82F308E46E6
:10161C00BEE80F0006F10C0CACE80F00DEF8003051
:10162C00CCF80030C7F3001386F8303037626B7893
:10163C00C4F8883520464FF48271FFF74BFE4FF407
:10164C009271FFF747FE4FF4B071FFF743FE4FF472
:10165C00A471FFF73FFE17F0010318BF0123C4F874
:10166C00503517F0020318BF0123C4F840352B780E
:10167C00032B00F2B580DFE803F084A069022B692C
:10168C0003F06043B3F1005FABD14FF48073C4F847
:10169C000032EA686B68C4F844254FF4A871C4F8AA
:1016AC004835FFF717FE01232362A360D4F85031AD
:1016BC00002BFBD04FF4A8712046FFF70BFEAB6854
:1016CC002A69C4F84425C4F84835342303FB09833C
:1016DC004FF480229A60082300263A0704D42A7813
:1016EC00032A1CBF0122E250342303FB09F308EB4D
:1016FC00030258F80330002B75D10125D4F848218A
:10170C00D4F80431002B40F08980003A18BF012234
:10171C00D4F82431002B00F088804FF492712046CD
:10172C00FFF7D8FDD4F86011D4F8003209B1980550
:10173C0004D4256265610029E0D00022D90574D556
:10174C004FF4A4712046FFF7C5FDD7E76B68EA6834
:10175C00C4F84425C4F848352B6903F06042B2F153
:10176C00005F7FF43EAFAA68C4F834354FF484535D
:10177C00C4F83825C4F80032342303FB0983022251
:10178C0012E06B68EA68C4F8442517F0200FC4F81F
:10179C0048354FF034030BD04FF48072C4F800225C
:1017AC0003FB09834FF480229A600123236292E7A2
:1017BC004FF40072C4F80022DFE76B68EA68C4F8E3
:1017CC003425C4F838354FF48053C4F80032342330
:1017DC0003FB098302229A600123236200237BE727
:1017EC000823072679E77B0744BF002393607D0617
:1017FC0006D4342303FB09839A6842F002029A60F0
:10180C00342303FB0988D8F8083043F40073C8F874
:10181C000830D8F80830C4F80433E3E64FF482718A
:10182C002046FFF757FD012272E7002A3FF466AF0E
:10183C003421D4F8C434C4F8C43401FB0982002028
:10184C0082F82F0093B113F0010F14BF4FF402462E
:10185C00032648F2012213F0020F18BF164613F0AC
:10186C00040F48F2022318BF1E46BBE67B063FF569
:10187C00B9AE09FB01812046FFF734FD002808BFF3
:10188C000326AFE6B400002002029C0110B586B01E
:10189C000024CDE902349DF820308DF80510A342C8
:1018AC00CDE9042401A914BF202222468DF804405E
:1018BC00FFF782FE06B010BD10B586B0012402936E
:1018CC000023CDE903328DF805101A4601A98DF8D5
:1018DC0004400593FFF770FE06B010BD034B18785B
:1018EC0010B901221A70704785207047E80000205B
:1018FC002DE9F84F134DDFF8508007464FF0000AE2
:10190C0004264FF001095FFA8AFB002009FA0BF458
:10191C00FEF704FF2C420AD0D8F8003014EA030278
:10192C0001BF2343C8F8003087F800B016460020EA
:10193C00FEF7F6FE1EB1A5430AF1010AE3D13046CB
:10194C00BDE8F88FFFFF0F00EC00002010B5A1B12F
:10195C009AB101238340C3F3130484B10A4C246865
:10196C0023420ED0C00000F1804000F5F830C0F8E2
:10197C001015C0F81425002010BD0E20FCE7072020
:10198C00FAE70820F8E700BFEC000020012303FA77
:10199C0000F0C0F313031BB1054B1B68184204D0B5
:1019AC00044BC3F80405002070470820704700BFA3
:1019BC00EC00002000F0014000F1804000F5E04018
:1019CC00002382B0036003680193019B02B070474F
:1019DC00F0B5524B524CD3F8043185B0002B3DD0AE
:1019EC0094F82E204FF48270FFF7E6FF2AB394F898
:1019FC002F3013BB494AD2F80031002B32D04FF4B0
:101A0C008070FFF7D9FF638B94F82D00834250D977
:101A1C0021891B1A9BB289B26383CB1A616801EBD3
:101A2C004303C2F82C36C2F830064FF48270FFF72D
:101A3C00C3FF3A4B01225A6014E063680293238976
:101A4C00ADF80C30E36800218DF8041033BB23741F
:101A5C00236801A89847002384F82F3094F82E307F
:101A6C00002BC7D12D4BD3F810315BB14FF48870DC
:101A7C00FFF7A2FF0023237402238DF8043001A882
:101A8C0023689847254BD3F81431EBB14FF48A7087
:101A9C00FFF792FF0023237405B0F0BD208B608309
:101AAC0063602081E160002AD2D11C4B01221A60B4
:101ABC00CEE7BAD1E368012184F82F1013B10021CD
:101ACC006183AEE76383B0E766694FF00047012599
:101ADC00002EE1D0B6FA86F227FA02F346329200D3
:101AEC0026EA030602F1804303F5E0431B68002B52
:101AFC00EED01046A2F58C72FFF75EFFD30882F091
:101B0C000402C2F380028DF808308DF8045023686B
:101B1C008DF8092001A89847DAE700BF0070004053
:101B2C00F000002038B5204A92F82C300446002BE7
:101B3C0037D111601D490078C1F8F0056078C1F803
:101B4C00F4050125E078137482F82D30536182F886
:101B5C002F306FF0004382F82E0082F82C504FF497
:101B6C008270C1F80833FFF727FF4FF48070FFF73E
:101B7C0023FF4FF48A70FFF71FFFA3780C485B011B
:101B8C00DBB280F80733802303600223C1F80433EF
:101B9C0092F82E300BB1C1F80453C1F80055002057
:101BAC0038BD0820FCE700BFF000002000700040AA
:101BBC0000E100E070B52A4B1A7C02F0FF05002A08
:101BCC004BD10A79012A9CBF264CC4F8005500F170
:101BDC000C0503EB4504247924B993F82D4001340A
:101BEC0083F82D4003EB4503CC790D7A8E781C716C
:101BFC005D714B7836021B0106F4E06603F030038E
:101C0C0033430E7806F003063343CE78360306F4DE
:101C1C0080563343160406F4E02633434E79897913
:101C2C00360506F480160906334301F080710B4328
:101C3C000C4901EB0016000100F1804000F5E0407A
:101C4C00012AC6F81835C0F81455C0F8104502D84A
:101C5C000123C1F80035002000E0112070BD00BF49
:101C6C00F000002000700040054B93F82E30002B44
:101C7C0014BF0020042000F1804000F5E0407047C4
:101C8C00F000002070B5264A264B05461220C2F8FB
:101C9C0008031C7C022C03D1C2F80403112070BD74
:101CAC00187C01281CD1D86818B10223C2F804335F
:101CBC00F4E7DD60198393F82E305BB9D2F800316C
:101CCC00002BFBD04FF48070FFF776FEC2F82C5639
:101CDC00C2F83016124B0222C3F804230020DEE7B0
:101CEC00022093F82E40C2F80403012600201E7433
:101CFC005D601981D8603CB1598393F82D30C2F8DE
:101D0C002C56C2F83036CAE7C2F82C564FF4807005
:101D1C00C2F83016FFF750FE16602046BFE700BF32
:101D2C0000700040F0000020F7B505792F4C0C2313
:101D3C006B43E71816463A7A002A54D1E6504B68A2
:101D4C007B60477903689446D6B2B7423CD8CA78D0
:101D5C0043F307365201002EC3F30733D2B23DDBF7
:101D6C00234F07EB060C8CF800230122760903F0B5
:101D7C001F0302FA03F347F8263003684A78D3F8B6
:101D8C00040502F0030220F003000243C3F804250B
:101D9C00D3F808058A7820F0030002F0030202430E
:101DAC00C3F80825D3F810050A7820F00F0102F0CB
:101DBC000F020A43C3F810250C2303FB054401232F
:101DCC002372002003B0F0BD960006F5A076013218
:101DDC0043F806C09E590196019EB5E7054E03F0E7
:101DEC000F03F254C9E70820ECE700BF20010020E4
:101DFC0000E100E014ED00E0036801221A600279B2
:101E0C00034B0C2101FB023302221A72704700BFF4
:101E1C002001002037B54FF4803400688C407BB132
:101E2C008B0003F5A0730025C550C3580193019B8B
:101E3C00C0F8044301F5A87140F8212003B030BD6F
:101E4C00C0F80843F6E770B4046840F20116D4F801
:101E5C0000528E4025EA0605C4F80052D4F8005210
:101E6C002B43C4F800329DF80C3070BCFFF7D2BF86
:101E7C002DE9F341104C114F114E00254FF48038D1
:101E8C00236883B1D7F8043308FA05F21A420AD052
:101E9C000023236023680193A4F50040019B80B2CA
:101EAC00D6E9003198470135042D04F10404E7D13B
:101EBC0002B0BDE8F08100BF4081004000800040CE
:101ECC002001002070470000037813B9014B012258
:101EDC001A707047460100200378022B02D140682B
:101EEC00FEF7B8BA012BFAD07047000008B503789A
:101EFC0053B940680521FFF7C5FE08B1FEF7AAFAF1
:101F0C00024A13680133136008BD00BF2C01002086
:101F1C001FB5FFF7E3FC08B1FEF79CFA174A184807
:101F2C000023CDE9022302A9164AFFF7FDFE08B1F2
:101F3C00FEF790FA144B1548D3F810250021D2B2B5
:101F4C0020FA02F2009101230D48FFF77CFF0C48A8
:101F5C00FFF752FFFFF788FE04460D48FFF7C8FC59
:101F6C0008B1FEF777FA0A4B0A4918782246FFF7B0
:101F7C00EDFC08B1FEF76EFA04B010BD00000306CC
:101F8C0078250000D11E00000080004000A86100F0
:101F9C00440100204081004008B5054B1878FFF73C
:101FAC00F5FC18B1BDE80840FEF754BA08BD00BFF7
:101FBC00440100201FB5134A10685168127A01AB16
:101FCC0003C3114911481A70FFF7ACFD08B1FEF7B5
:101FDC0041FA01A90020FFF7EDFD08B1FEF73AFA2E
:101FEC000B480521FFF74EFE08B1FEF733FA0948FE
:101FFC000521FFF747FE08B1FEF72CFA05B05DF896
:10200C0004FB00BF40250000F91E00006425000001
:10201C00300100203A0100201FB50123ADF80C302F
:10202C00002300930F48022303AA4821FFF72EFC3C
:10203C0008B1FEF70FFA0C4C2378002BFCD00023D0
:10204C008DF80C30237000930648012303AA482115
:10205C00FFF71CFC08B1FEF7FDF92378002BFCD030
:10206C0004B010BD84250000460100201FB51B22C2
:10207C000923CDE900234FF0CC710223CDE90213E3
:10208C00074A084800236946FFF7B4F808B1FEF781
:10209C00E1F90548FFF780FA05B05DF804FB00BFD5
:1020AC00D51E00008025000084250000F0B5234DCE
:1020BC008BB00120FEF7AFF9FFF7D8FFFFF7ACFFAD
:1020CC00FFF778FFFFF724FFFFF766FF0FCD04AC97
:1020DC000FC495E803001A4B1A4A00934FF480730F
:1020EC0084E80300CDE902230193174A07236946CC
:1020FC0004A8FEF781FA08B1FEF7ACF91348144CAA
:10210C00144E154F00F0D6F944F001044FF4FA7553
:10211C004FF47A40A047013DFAD120BF3378002B11
:10212C00FBD0002333700D4801233A464821FFF7BA
:10213C00C3FB0028EAD0FEF78DF9E7E74C25000039
:10214C004701002047020020E51E00002625000064
:10215C007025000046010020450100208425000068
:10216C00BFF34F8F0549064BCA6802F4E062134374
:10217C00CB60BFF34F8F00BFFDE700BF00ED00E069
:10218C000400FA054FF08053D3F83001421C04BF11
:10219C004FF0704393F8E00F831F5842584170473B
:1021AC004FF0704393F8E02F062A09D1D3F8E83F9B
:1021BC00C3F30313033B042B02D8024AD05C7047D1
:1021CC00002070479F2500004FF08053D3F830015A
:1021DC00421C04BF4FF0704393F8E00F062804D064
:1021EC00A0F10A0358425841704701207047000083
:1021FC00024AD2F80034002BFBD0704700E00140BB
:10220C0010B5FFF7BFFF40B14FF080539C4AD3F895
:10221C002433C3F30423C2F84035FFF7C1FF10B1D8
:10222C00984B994A5A67FFF7CFFF48B14FF080534C
:10223C004FF08042D3F84432C3F34233C2F83C35FA
:10224C00FFF7AEFF30B1914AD2F8FC3023F0807327
:10225C00C2F8FC30FFF7B8FF40B14FF080430022CA
:10226C00C3F80C21C3F81021C3F83825FFF798FFE9
:10227C0020B14FF080430322C3F8A025FFF790FF55
:10228C0060B1834B0522C3F810260122C3F88826BF
:10229C000022C3F818263F22C3F814264FF08053AF
:1022AC00D3F83021511C09BF4FF07043D3F83431AF
:1022BC0093F8E02FD3F8E83F08BFC3F30313062AC3
:1022CC004ED1033B042B03D8724AD35C002B49D06C
:1022DC004FF08052704BD2F80414C3F82015D2F88A
:1022EC000814C3F82415D2F80C14C3F82815D2F826
:1022FC001014C3F82C15D2F81414C3F83015D2F8F6
:10230C001814C3F83415D2F81C14C3F84015D2F8BD
:10231C002014C3F84415D2F82414C3F84815D2F885
:10232C002814C3F84C15D2F82C14C3F85015D2F855
:10233C003014C3F85415D2F83414C3F86015D2F81D
:10234C003814C3F86415D2F83C14C3F86815D2F8E5
:10235C004014C3F86C15D2F84424C3F8702501E07E
:10236C000A2AB5D0FFF70EFF48B14FF080534FF05B
:10237C008042D3F8583203F04F03C2F8E43EFFF723
:10238C0023FF48B14FF08043D3F80024D20744BF59
:10239C006FF00102C3F800244FF08053D3F83021C2
:1023AC00062A0ED1D3F83431033B042B02D83B4A16
:1023BC00D35CBBB13A4AD2F83C3743F48063C2F8E1
:1023CC003C374FF08053D3F830210A2A0AD1D3F886
:1023DC0034313BB14FF08042D2F8E43E43F00F036E
:1023EC00C2F8E43E4FF08053D3F83021062A0FD1C7
:1023FC00D3F83431033B042B02D82A4AD35C3BB1CB
:10240C004FF01023D3F808224FF08043C3F858251F
:10241C004FF01021D1F80032002B03DBD1F804323D
:10242C00002B17DA204901234FF01020C1F8043596
:10243C001524FFF7DDFEC0F80042FFF7D9FEC0F807
:10244C000442FFF7D5FE0023C1F80435FFF7D0FE98
:10245C00FFF786FED1F80C32DB070DD512480123AD
:10246C00C0F804350024FFF7C3FEC1F80C42FFF797
:10247C00BFFEC0F80445E9E70C4B0D4A1A6010BDCD
:10248C000030014000C007400DF0ADBA00ED00E097
:10249C00005000409025000000C000409525000031
:1024AC00001000409A25000000E0014014000020BC
:1024BC000090D00320B582B0451E00F015F803E063
:1024CC00FEF730F9431C08D015F8010F0021002845
:1024DC00F6D101460A20FEF725F9019000F006F826
:1024EC00019802B020BD00BF704700BF704700BF0D
:1024FC0011121314FFFFFFFFFFFFFFFFFFFFFFFF92
:10250C00FFFFFFFF00000000000000000000D601EC
:10251C00060100000338FDD870470D0A554152548E
:10252C00206578616D706C6520737461727465647C
:10253C002E0D000000000000020000010000000051
:10254C000C00000012000000050000000700000055
:10255C000000000000E0D7010100060000000000B0
:10256C00000000000338FDD87047000000800040D8
:10257C0000040000000000000030004000000000DB
:10258C000100000000000101010000000101000039
:08259C00000001010000000035
:1025A4000000000000200040000000000020004067
:0825B400000000000090D003BC
:04000003000003A551
:00000001FF
